:400000000080002011000000653700006537000008B5044B1A6803F53F5302331A6003F0A3FB00BFFA46004010B5054C237833B9044B13B10448AFF300800123237010BD9E
:400040002082FF1F00000000E46D0000084B10B51BB108480849AFF300800848036803B910BD074B002BFBD0BDE81040184700BF00000000E46D00002482FF1F0881FF1F6D
:400080000000000008B505F067FCC043C0B2434B1870434BD87700F00603062B1BD0414B1B68002B02DD00223E4B1A603D4B5B68002B02DD00223B4B5A603A4B9B68002B06
:4000C00002DD0022374B9A60364BDB68002B02DD0022344BDA6000F06003602B1BD0314B1B68002B02DA00222E4B1A602D4B5B68002B02DA00222B4B5A602A4B9B68002BBF
:4001000002DA0022274B9A60264BDB68002B02DA0022244BDA6000F01803182B1BD0214B1B68002B02DA00221E4B1A601D4B5B68002B02DD00221B4B5A601A4B9B68002B91
:4001400002DD0022174B9A60164BDB68002B02DA0022144BDA6010F0800F02D010F0010F1BD1104B1B68002B02DD00220D4B1A600C4B5B68002B02DA00220A4B5A60094BDD
:400180009B68002B02DA0022064B9A60054BDB68002B02DD0022034BDA6008BD2683FF1F2C83FF1F3C82FF1F084B1B7C23B1084B1B68084A1A60704710B5044C0123237465
:4001C00003F01CF80023237410BD00BF3C82FF1F386E0000E86D000010B5044600F00F0004F0C0FFC4F3011005F042FAC4F3811005F0CCFA10BD00BF2DE9F04182B04020B9
:40020000FFF7EAFF4D490B785B00013B4C4A128803FB02F3ADF800304A4A537C5B00013B4948008803FB00F3ADF802304B785B00013B4649098803FB01F3ADF80430937C08
:400240005B00013B424A128803FB02F3ADF80630002223E002AB03EB420333F8083C13F4004F0DD01BB2002BB8BF5B423549898A0B415B4202A901EB420121F8083C0BE0A4
:400280001BB2002BB8BF5B422E49898A0B4102A901EB420121F8083C0132D2B2032AD9D9264B1A7902A901EB420232F8080C294D68805A7901EB420232F8082C264C62805F
:4002C000997902AE06EB410131F808CC2349A1F802C0DB7906EB430333F8088C204BA3F80280B5F800E08644A5F800E02788174427800E8866440E801A8842441A8040B26C
:40030000FFF76AFF4020FFF767FF94F90200FFF763FF4020FFF760FF95F90000FFF75CFF4020FFF759FF94F90000FFF755FF4020FFF752FF02B0BDE8F08100BF0C81FF1FC9
:40034000306800403C82FF1F28680040346A00402C6A00403085FF1F2083FF1FF883FF1F8C84FF1FF8B55020FFF736FF624B1B7A8BB9624B624AB2F900201A60614AB2F928
:4003800000205A60604AB2F900209A605F4AB2F90020DA6023E0022B0DD15220FFF71CFF564B5B4A91691960D1695960116A9960526ADA6013E05320FFF70EFF4F4B504A02
:4003C000B2F900201A604F4AB2F900205A604E4AB2F900209A604D4AB2F90020DA6091224C4B1A60444B5B7A082B45D15420FFF7F3FE474B93F8292083F8282093F82A20D7
:4004000083F829209C692401DC62D86900011863196A090159635A6A12019A63D3F800E0C3F818E05F68DF619E681E62DD685D622346002C01DA04F10F03AEEB2313344C01
:40044000E3630346002801DA00F10F03A7EB23172F4B1F640B46002901DA01F10F03A6EB23162B4B5E641346002A01DA02F10F03A5EB2315264B9D641F4BDA68002A13DD60
:40048000234BD86AD96B0144D962186B196C01441963586B596C01445963986B996C01449963013A144BDA60134B1B7C012B1FD1174BDB6A002B00DA0F331B11144A9361DC
:4004C000136B002B00DA0F331B11114AD361536B002B00DA0F331B110D4A1362936B002B00DA0F331B110A4A53625520FFF774FE5020FFF771FEF8BD0C81FF1FAC84FF1FA5
:400500004086FF1F7483FF1F9686FF1F5C84FF1F3C82FF1F7484FF1F2DE9F04D84B07020FFF75AFE724B1888724A1388184480B21080714B1A88714C238813442380704BE6
:400540001988704A13880B4413806F4B19886F4A13880B44138000B2FFF73EFE7020FFF73BFEB4F90000FFF737FE7020FFF734FE674B986918BBDB690BBB5D4B1B88F3B958
:400580005D4B1B88DBB9624B1B6AC3B9604B5B6AABB95B4B1B8893B95B4B1B887BB95D4B5B7C032B02D102225A4B5A74584B0022DA641A655A659A6502F090FFB9E1554BB6
:4005C0005B7C022B02D10322524B5A74504B93F85C30002B00F0A4807120FFF7FDFD4C4B986980EAE073A3EBE073602B05DD002049494A4BC3E9000113E006F079F90446E6
:40060000444B987C06F074F90146204606F078FA05F04EFD0022404B05F09EFD3F4BC3E900013B4BD86980EAE073A3EBE073602B05DD00203849394BC3E9040113E006F05A
:4006400057F90446334B987C06F052F90146204606F056FA05F02CFD00222F4B05F07CFD2E4BC3E904012A4B186A80EAE073A3EBE073602B05DD00202749284BC3E908010E
:4006800013E006F035F90446224B987C06F030F90146204606F034FA05F00AFD00221E4B05F05AFD1D4BC3E90801194B586A80EAE073A3EBE073602B05DD00201649174B66
:4006C000C3E90C0194E006F013F90446114B987C06F00EF90146204606F012FA05F0E8FC00220D4B05F038FD0C4BC3E90C017FE03085FF1F5E84FF1F2083FF1F3E85FF1F04
:40070000F883FF1FC283FF1F8C84FF1F3C85FF1F3C82FF1F0C81FF1F000038406088FF1F06F0E6F80446864BB3F9140006F0E0F805462046294606F0E3F9824C05F0B8FCC5
:40074000C4E90001804EF06906F0D2F8294606F0D7F905F0ADFCC4E90401306A06F0C8F8294606F0CDF905F0A3FCC4E90801706A06F0BEF8294606F0C3F905F099FCC4E9BC
:400780000C01724BB3F9000006F0B2F8704B1D68294606F001F905F08BFCC4E902016D4BB3F9000006F0A4F80146284606F0F4F805F07EFCC4E90601674BB3F9000006F054
:4007C00097F80146284606F0E7F805F071FCC4E90A01624BB3F9000006F08AF80146284606F0DAF805F064FCC4E90E01FFF7DCFC4FF00008554BA3F800807120FFF7ECFC28
:40080000574DD5E900674E4CA07C05F03FFC0022544B05F0EDFA02460B463046394605F09BFC0022504B05F0C1FD05F02FFF80B24E4B1880237E04AA02EB830300B243F8AD
:40084000100C444BA3F800807220FFF7C5FCD5E90467A07C05F01AFC0022424B05F0C8FA82468B463046394652465B4605F074FC00223D4B05F09AFD05F008FF80B23C4B9C
:400880001880637E04AA02EB830300B243F8100C314BA3F8008050465946D5E9082305F05BFC0022304B05F081FD05F0EFFE80B2304B1880A37E04AA02EB830300B243F82E
:4008C000100C264BA3F8008050465946D5E90C2305F042FC0022244B05F068FD05F0D6FE80B2254B1880E37E04AA02EB830300B243F8100C237F5B00013B009A02FB03F3BC
:40090000114AD36492F85D305B00013B019901FB03F31365637F5B00013B029901FB03F3536592F85E305B00013B039901FB03F393657620FFF750FC04B0BDE8F08D00BF13
:400940000C81FF1FA088FF1F3C82FF1F3085FF1FDC83FF1F2083FF1FF883FF1F8C84FF1F6088FF1F0000F03F000038404086FF1F7483FF1F9686FF1F5C84FF1F70B580202F
:40098000FFF72AFC544AD36C83EAE371A1EBE37182F85F10002B04DA01224F4B83F8602003E000224C4B83F860204B4A136D83EAE371A1EBE37182F86110002B04DA01228F
:4009C000454B83F8622003E00022434B83F86220424B9B7F022B0AD13F4B002283F8632083F8642083F8652083F8662025E03A4A536D83EAE371A1EBE37182F86310002B7F
:400A000004DA0122344B83F8642003E00022324B83F86420304A936D83EAE371A1EBE37182F86510002B04DA01222B4B83F8662003E00022284B83F86620284DE87F264C42
:400A400094F8623003EB400095F8203003EB400094F8603003EB400094F8673003EB4000C0B21F4E307003F0E9F894F8610000F00F00FFF7B1FB8020FFF7AEFBAA7C194BDA
:400A80001A7094F85F2010331A7094F8612010331A7095F8210094F8663003EB400095F8223003EB400094F8643003EB400094F8673003EB4000C0B2307004F047FFAA7CDE
:400AC000094B1A7094F8632010331A7094F8652010331A7070BD00BF3C82FF1F0C81FF1F4D85FF1F1E6400401C640040F8B56020FFF772FB274B5B7A13F0010F49D06120F5
:400B0000FFF76AFB234B5B7A581E234E7168234FC0EBC0003A18395430685070001100F0F000C1F30321014491701D480188D1701C4C2588157145F30B1505F0F005C1F374
:400B4000032129445171184991F829509571F268C3EBC3017B187A54B1685970091101F0F001C2F303220A449A70104E3288DA700F4F3988197141F30B1101F0F001C2F38A
:400B800003220A445A719D710023238003803B803380F8BD0C81FF1FAC84FF1F8C85FF1F3E85FF1F5E84FF1F3C82FF1F3C85FF1FC283FF1F70B5634B93F823301E2B7CD10F
:400BC000604B5B7A0F2B78D15E4B5B7C072B06D199225D4B5A7001225C4B9A6612E05B4B9B6E33B96622584B5A700122574B9A6608E05522544B5A70544BDB6E13B901228C
:400C0000524BDA660024524B1C6023461EE05AB2022A04DC4C49885C4E49885414E058B24B4A126861B2C2EBC2020A444A4DAE5C484D2E54062905D145490A6801320A60F6
:400C4000002401E00134E4B20133DBB25AB23A2ADDDD08223E4B1A6000243C4B1C67224616E050B23A4B1B6861B2C3EBC3030B44394DEE5C394D2E54062905D134490B6853
:400C800001330B60002401E00134E4B20132D2B253B2372BE5DD002307E05AB2D11C3048405C304988540133DBB25AB21D2AF4DD0023274A1360254A5367244B5B6F8BB9E7
:400CC00003F08AFA00283BD0A420FFF785FA21483B2103F04FFA052004F080FE01221B4B5A6770BD012B10D103F076FA40B3A520FFF772FA1948382103F03CFA052004F07C
:400D00006DFE0222114B5A6770BD022B10D103F063FAA8B1A620FFF75FFA12481E2103F029FA052004F05AFE0322084B5A6770BD032B05D103F050FA10B10422034B5A6751
:400D400070BD00BF0C81FF1F8486FF1F3C82FF1F8C86FF1F2084FF1F8C85FF1F5485FF1F2C83FF1F0084FF1F2DE9F04F83B03020FFF732FA3A4B00221A605A609A60DA6048
:400D80001021384AD160D3F81880C8F1000BDF69C7F1000A1E6AC6F100095D6A6C420BEB0A034B441B19009345D0908C800005F09BFD0190009B002BB8BF5B42184605F00C
:400DC00097FD0146019805F09BFE00904FF07E5105F080FF78B3584605F08AFD009905F0DBFD05F09FFF4044DFF874B0CBF80000504605F07DFDDDF80080414605F0CCFDC0
:400E000005F090FF3844CBF80400484605F070FD414605F0C1FD05F085FF3044CBF80800204605F065FD414605F0B6FD05F07AFF2844CBF80C0003F03BF828B9084B0022F8
:400E4000DA6601229A6707E0054B9B6F23B103F045F90022024B9A6703B0BDE8F08F00BF3C82FF1F0C81FF1F2DE9F0413F20854B187004F053FD04F043FD834B00251D8035
:400E80005D80C0229A8040F22232DA8040F222521A8140F295125A814FF410729A81D4E04220FFF799F91DB93E22764B1A7014E0012D03D13D22734B1A700EE0022D03D1F7
:400EC0003B22704B1A7008E0032D03D137226D4B1A7002E03F226B4B1A706A4B187804F01DFD2846FFF778F90026AAE0062E04DD0A2004F073FD062700E0374604F078FCD9
:400F0000642407E004F098FC04F072FC002C00F0A480013C10F0200FF4D104F063FC642407E004F097FC04F05DFC002C00F09880013C10F0100FF4D0012E31DD062E08D1B3
:400F4000514B33F8170000EBC72040F0100080B205E04D4B33F8170000EBC72080B204F04DFC04F03FFC642407E0052004F036FD04F038FC002C76D0013C10F0010FF4D0BA
:400F800004F04EFC642407E0052004F027FD04F047FC002C6AD0013C0028F5D004F03AFCF80280B280F4004004F028FC04F01AFC642407E0052004F011FD04F013FC002C8F
:400FC00057D0013C10F0010FF4D004F029FC642407E0052004F002FD04F022FC002C4BD0013C0028F5D004F015FC8046642405E0052004F0F3FC002C41D0013C4FF6FF7325
:401000009845F5D0C8F30A0307EBC5021F4921F81230012E11DD062E08D11B4A32F8172042F0100293420CD101360AE0164A32F81720934205D1013603E00BB9013600E062
:401040000136072E7FF752AF0135114B9B7FAB423FF726AF0020BDE8F0810120BDE8F0810120BDE8F0810120BDE8F0810120BDE8F0810120BDE8F0810120BDE8F081012048
:40108000BDE8F0816E84FF1F7C84FF1F0086FF1F0C81FF1F70B53F20654B187004F03EFC04F02EFC634B00251D805D80AEE04220FFF792F81DB93E225D4B1A7014E0012D4E
:4010C00003D13D225A4B1A700EE0022D03D13B22574B1A7008E0032D03D13722544B1A7002E03F22524B1A70514B187804F016FC2846FFF771F8002684E004F079FB6424C3
:4011000007E004F099FB04F073FB002C00F08580013C10F0200FF4D104F064FB642406E004F098FB04F05EFB002C78D0013C10F0100FF5D0F00280B280F4004004F05EFB3D
:4011400004F050FB642404E004F04CFB002C68D0013C10F0010FF7D004F062FB642404E004F05EFB002C5ED0013C0028F8D004F051FB642302E0002B57D0013B4FF6FF7293
:401180009042F8D006EBC503C0F30A022A4921F813202A4B9B7F022B1CD83EB905F1110300F4707292102649CA542AE005F1110200F0C00400F480639BB25B12204903EBF9
:4011C00024138C5C23448B5405F1130300F03F00C85416E03EB905F1110300F4707292101749CA540DE005F1110200F0C00400F4806083B25B12124903EB2413885C03447B
:401200008B540136012E7FF778AF01350B4B9B7FAB423FF74CAF002070BD012070BD012070BD012070BD012070BD012070BD00BF6E84FF1F7C84FF1F0086FF1F0C81FF1FF9
:401240002C83FF1FF8B53F20684B187004F066FB04F056FB0026B4E04220FEF7BDFF1EB93E22624B1A7014E0012E03D13D225F4B1A700EE0022E03D13B225C4B1A7008E093
:40128000032E03D13722594B1A7002E03F22574B1A70564B187804F041FB3046FEF79CFF00258AE004F0A4FA642407E004F0C4FA04F09EFA002C00F08B80013C10F0200F6B
:4012C000F4D104F08FFA642406E004F0C3FA04F089FA002C7ED0013C10F0100FF5D0012D26DD434B33F8150000EBC52080B204F085FA04F077FA642407E0052004F06EFBB1
:4013000004F070FA002C67D0013C10F0010FF4D004F086FA642407E0052004F05FFB04F07FFA002C5AD0013C0028F5D004F072FAE80280B280F4004004F060FA04F052FADA
:40134000642407E0052004F049FB04F04BFA002C46D0013C10F0010FF4D004F061FA642407E0052004F03AFB04F05AFA002C39D0013C0028F5D004F04DFA0746642404E06E
:40138000052004F02BFB7CB3013C4FF6FF739F42F6D0C7F30A0705EBC603164A22F81370012D06DD124B33F815309F4205D1013503E00FB9013500E00135062D7FF772AF17
:4013C00001360D4B9B7FB3423FF746AF0020F8BD0120F8BD0120F8BD0120F8BD0120F8BD0120F8BD0120F8BD0120F8BD6E84FF1F7C84FF1F0086FF1F0C81FF1F00000000F8
:401400002DE9F04F8FB0514B93F823304BB94F4B5B7A082B05D14D4B9B6A022B01D9FFF7A3FC02F0CDFE002850D0494C0023E367484802F0DDFEE067474B1B78984204DD5E
:40144000C3B2454A1370454A1370424B1B78022B1CD1404A5278052A18D13E4A91780E2914D1527B032A11D106E03A4CA55C3C4CA5540133DBB200E000235AB28A42F4DB4B
:40148000334BC3F8800000229A661CE0542B1AD1304B5A789B789A4215D12E4BDB78162B11D107E05AB22B498C5C2E498C540133DBB200E000235AB23F2AF3DD244BC3F801
:4014C000840000229A6604F0B3FA0AE01F4B5B7C072B02D104F0ACFA03E01C4A936A013393621B4B9B6E002B40F0C483184BD3F880300E2B40F0B480052004F06FFA184BFB
:401500001A7B134B83F82A20104B5B7C023BDBB2012B29D8124B93F904000D4A597901EB0021116093F90600D97901EB0021516093F90800597A01EB0021916093F90A1089
:40154000DB7A03EB0123D36014E000BF0C81FF1F3C82FF1FEC84FF1F4286FF1FA684FF1F8083FF1F4486FF1FCB4B00221A605A609A60DA60C94B93F82C300BB1FEF782FD07
:40158000C64B5B7C023BDBB2012B01D9FFF7ECFB1022C24BDA60C04B1F68D3F818B0CBEB07075E68D3F81CA0CAEB06069D68D3F82090C9EB0505DC68D3F82480C8EB04047A
:4015C000BB192B441B19009342D0B44B988C9B7F00FB03F005F088F90190009B002BB8BF5B42184605F084F90146019805F088FA00904FF07E5105F06DFB48B3384605F033
:4016000077F9009905F0C8F905F08CFB5844A24F3860304605F06CF9009E314605F0BCF905F080FB50447860284605F061F9314605F0B2F905F076FB4844B860204605F0A6
:4016400057F9314605F0A8F905F06CFB4044F860914A0023C2F88030012191668F4A93628D4BD3F88430402B40F00483072004F061F98B4B1A79894C02F003012172C2F31C
:401680008001854E86F85C10C2F3C00184F82C10C2F300112174C2F3401184F82D10C2F3801201325200A27793F905109A7902EB0122A28293F907101A7A02EB0122A2846A
:4016C0005A7A02F003012176C2F381016176C2F30111A1769209E2769A7A02F003012171C2F381016171C2F30111A1719209E271DA7A02F001012177C2F340012170C2F322
:40170000800186F85D10C2F3C0017174C2F300116177C2F340116170C2F3801186F85E10D209B2741A7BB28293F90D109A7B02EB0122E28593F90F001A7C02EB002080B2CC
:40174000584A108093F911109A7C02EB012292B20092228693F913101A7D02EB012291B20191618693F915A09A7D02EB0A2A1FFA8AFA4D4AA2F800A093F917901A7E02EB35
:4017800009291FFA89F9494AA2F8009093F919809A7E02EB08281FFA88F8454AA2F8008093F91BB01A7F02EB0B2B1FFA8BFB414AA2F800B093F91D109A7F02EB012295B253
:4017C0003D4A0295158093F91F1093F8202002EB012297B2394A0397178093F822E0384ACDF810E0A2F800E093F9231093F8242002EB01221FFA82FE324ACDF814E0A2F85F
:4018000000E093F9251093F8262002EB01221FFA82FE2D4ACDF818E0A2F800E093F9271093F8282002EB01221FFA82FE274ACDF81CE0A2F800E093F9291093F82A2002EB6D
:4018400001221FFA82FE224ACDF820E0A2F800E093F92B1093F82C2002EB01221FFA82FE1C4ACDF824E0A2F800E093F92D1093F82E2002EB01221FFA82FE174ACDF828E098
:40188000A2F800E093F92F1093F8302002EB01221FFA82FE22E000BF3C82FF1F0C81FF1F4486FF1FA484FF1F1283FF1FC483FF1FEC83FF1F5883FF1F7084FF1F6284FF1F35
:4018C0001483FF1F6283FF1FE884FF1FDA83FF1F4E83FF1F7E83FF1F7884FF1FBC4ACDF82CE0A2F800E093F9311093F8322002EB01221FFA82FEB74ACDF830E0A2F800E00F
:4019000093F9337093F8342002EB0727BFB2B24A178093F9355093F8362002EB0525ADB2AE4A158093F8372093F838E0120102EB1E12AB498A8002F0EF024FF0020C6CF343
:4019400046126FF3C7120A714FEA0E2E93F839200EF4706E9644A1F806E093F83AE093F83B204FEA0E1E0EEB121EA1F808E0120293F83CE002F4706272444A8193F83D2041
:4019800093F83EE0130103EB1E138B8104F0ACFF944905F0B5F80D906063504604F0A4FF914905F0ADF88246A063484604F09CFF8D4905F0A5F8E063404604F095FF8949AD
:4019C00005F09EF8894B1860584604F08DFF854905F096F8864B1860029804F085FF814905F08EF8834B1860039804F07DFF7E4905F086F8804B1860049804F075FF7A496C
:401A000005F07EF87D4B1860059804F06DFF764905F076F87A4B1860069804F065FF714905F06EF8774B1860079804F05DFF6D4905F066F88046744B1860089804F054FF7E
:401A4000684905F05DF8714B1860099804F04CFF644905F055F883466D4B18600A9804F043FF604905F04CF86A4B18600B9804F03BFF5C4905F044F8674B18600C9804F01F
:401A800033FF584905F03CF8644B1860384604F02BFF544905F034F80746614B1860284604F022FF4F4905F02BF85E4B1860404604F0FEFA804689465B4DC5E9048958465C
:401AC00004F0F6FAC5E90201C5E90E89C5E90C01C5E91889C5E92001C5E92289C5E91601384604F0E5FA80468946C5E9068907F1004004F0DDFAC5E90801C5E91089C5E943
:401B00001201C5E91A89C5E91C01C5E92489C5E926010D9804F0CCFA02460B4628A1D1E9000104F043FC8046894694F8400004F0ADFA02460B464046494604F00DFB80462B
:401B40008946504604F0B4FA02460B464046494604F002FB1CA3D3E9002304F0FDFA04F0BDFD324B1860009804F0BEFE04F0A0FA00222F4B04F0F0FA80468946019804F021
:401B800085FA02460B464046494604F00FFC04F0A5FD284B1860002384F82030E37784F8223084F821300122B266A362C6F88430FFF748FB00284BD03EE000BFAFF3008067
:401BC000B81E85EB51B8AE3FCAE2FE23D32109401C83FF1F4485FF1FC083FF1F2C85FF1F7C84FF1F0000C84200007A447883FF1F6883FF1FD083FF1F0883FF1FFC85FF1F0A
:401C00005483FF1FE483FF1FA884FF1F6884FF1FE883FF1F6C83FF1F6483FF1F7083FF1FF483FF1F4885FF1F5081FF1FE083FF1F00004E40DC83FF1F96F8883043F00403AF
:401C400086F8883006226274072003F073FE02E0052003F06FFE4FF47A7003F0BFFE084B5B7C042B06D0062B04D0072B02D00222034B5A742020FEF7AFFA0FB0BDE8F08F28
:401C80000C81FF1FAFF3008010B5414B1B78002003F026FB002004F06FF803F083FD044603F0F2FC00EB840403F068FA00EB0410C4B2F020FEF790FA364B93F823301F2BB1
:401CC00039D1354BD3F88C30B3F5007F25D1012003F006FB304B0022C3F88C202D494A7293F890300E2B03D92B4B83F8902003E00133294A82F89030274B93F8903013F0E6
:401D0000030F02D1012004F037F8234B93F89130022B05D103F08CFE02E05B091D4A53721D4AD2F88C300133C2F88C300022194B83F823200BE00133164A82F82330164A47
:401D4000D2F88C300133C2F88C3072B662B6124BD3F88C30B3F5007F02D1002003F08AFA02220D4BC3F894200A4B93F8233013F0070F01D1FEF740FA0022064B9A62FFF7E1
:401D80003FFBFEF717FF2046FEF726FA10BD00BF034F00400C81FF1F3C82FF1F000000002DE970430024724B1C70724B1C70724E0322B262714DAC61EC612C626C62704B17
:401DC0001C715C719C71DC711C725C729C72DC726C4B1C806C4B1C806C4B1C806C4B1C806C4B0221197099215970912199706A4B83F820200122727485F8984085F8884077
:401E0000664A1470664A1470664A1470664A1470DC761C775C779C77DC77644B187800F03F00187003F07AFD85F85F4085F8614085F8634085F86540F07F95F8623003EB5C
:401E4000400096F8203003EB400095F8603003EB400095F8673003EB4000C0B2544C207001F0ECFEB27C534B1A70B27C10331A7095F85F2010331A7095F8612010331A70F7
:401E800096F8210095F8663003EB400096F8223003EB400095F8643003EB400095F8673003EB4000C0B2207003F050FDB27C424B1A70B27C10331A7095F8632010331A7014
:401EC00095F8652010331A70308EC0EB00108000738E90FBF3F004F00BFD384B1860384C384B1C60384A394B1A60394A394B1A60706B04F0DDF802460B4619A1D1E900016E
:401F000004F054FA8046894696F8400004F0BEF802460B464046494604F01EF980468946B06B04F0C5F802460B464046494604F013F90DA3D3E9002304F00EF904F0CEFB43
:401F4000254B18604FF07E52244B1A60244B1C60244A254B1A6001F0C1FABDE8708300BFB81E85EB51B8AE3FCAE2FE23D32109404286FF1F9486FF1F0C81FF1F3C82FF1F50
:401F80008083FF1F3085FF1F2083FF1FF883FF1F8C84FF1F8486FF1F2C83FF1F6184FF1F5083FF1F6484FF1FA684FF1F6E84FF1F4D85FF1F0E6400400C640040DC83FF1F8F
:401FC00000004040A884FF1F0000A041E883FF1F00004041F483FF1FE083FF1F6884FF1F6C83FF1F000020414885FF1FAFF3008010B5C020FEF7F0F803F0F4FA064C84F860
:402000004100C120FEF7E8F894F84100FEF7E4F8C620FEF7E1F810BD0C81FF1F10B582B000240DE00DF1060003F0F2FA1B4B83F84100012003F0D2FC0134E4B2642C04D8B9
:40204000164B93F84130002BECD1BDF80630144A1380124A92F8412042B927339BB2B22B17D98F220E4B1A80202213E0FF2A04D18F220B4B1A8010220CE0102A04D18F2233
:40208000074B1A80402205E08F22054B1A80802200E02022034B1A7002B010BD0C81FF1F9884FF1F6184FF1F10B50C4603F024FA142003F093FC03F0E3F9002003F0ECF9AA
:4020C00058B103F0FBF90346002801DA00F10F03C3F30713054A137002E0FE22034B1A702046FEF779F8014B187810BD9684FF1F2DE9F0410C461F461AB11646042A02D84B
:4021000002E0012600E0042603F008FC84F0800003F0AAFD002404E0002003F0A5FD0134E4B2B442F8D303F093FD0546642408E0052003F053FC03F08BFD0546DCB1013491
:40214000E4B215F0010FF3D0B84603F099FD0B4BD855002407E008EB040703F091FD074BD8550134E4B2B442F5D3022003F036FC2846BDE8F0810120BDE8F0810C83FF1FA6
:40218000F8B5AC4B5B7A1BB90021AB4A82F8991003F00302032A00F20183DFE812F0040004028A02C302A34B5B7C072B00F0F682A14C94F89930013384F89930FFF72EFF9D
:4021C0009E4B1A78B4F89A3013449BB2A4F89A30984A527A0B2A2DD9C3F38703984A93750022A4F89A2094F89930032B18D9954B1B78202B14D094F8983043F0400384F8FD
:40220000983094F89C300133DBB284F89C30072B10D90722874B5A74022003F08BFBBDE2854B93F8982022F0400283F89820002283F89C20FFF7DCFE0520834B1870B12147
:40224000824B1970FFF730FF7B4AB2F89E30184480B2A2F89E00774B5B7A0B2B2DD9C0F38700774A5075744A0021A2F89E1092F89920032A17D91D2815D86F4991F898209B
:4022800042F0010281F8982091F8A0200132D2B281F8A020072A10D90722664B5A74022003F048FB7AE2644A92F8981021F0010182F89810002182F8A0100B2B27D95E4BCA
:4022C00093F89930032B18D903F04EFDA8B15A4A92F8983063F07F0382F8983092F8A1300133DBB282F8A130072B10D90722514B5A74022003F01EFB50E24F4B93F8982075
:4023000002F07F0283F89820002283F8A120494B5B7C062B00F04282464B5B7A0B2B32D903F00EFB10F0040F23D1434A92F8983043F0080382F8983092F8A2300133DBB223
:4023400082F8A230072B0AD93A4A527C042A06D10622384B5A74022003F0ECFA1EE2032B11D9344B5B7C042B0DD00422314B5A7414E2314B93F8982022F0080283F8982043
:40238000002283F8A2202B4B9B7F022B60D106202D4B1870B4212D4B1970FFF785FE264AB2F8A430184480B2A2F8A400214B5B7A0B2B40F2AF80C0F38700214BD8730022B6
:4023C0001A741D4BA3F8A42093F89930032B26D91D2824D8184A92F8983043F0020382F8983092F8A6300133DBB282F8A630072B0AD9104A527C042A06D106220D4B5A7497
:40240000022003F097FAC9E1032B40F28380094B5B7C042B7ED00422064B5A747AE0064B93F8982022F0020283F89820002283F8A6206FE00C81FF1F3C82FF1F9884FF1F52
:402440002C83FF1F6184FF1F1183FF1F1083FF1FAA4E06203070AA4DB4212970FFF724FEA84CB4F8A4301844A4F8A40007203070B5212970FFF718FEB4F8A830184480B28A
:40248000A4F8A800A04B5B7A0B2B43D9B4F8A420C2F387029D49CA73C0F3870008740021A4F8A410A4F8A81094F89930032B27D91D2A01D91D2823D8924A92F8983043F035
:4024C000060382F8983092F8A6300133DBB282F8A630072B0AD98C4A527C042A06D10622894B5A74022003F025FA57E1032B11D9854B5B7C042B0DD00422834B5A7409E0B6
:40250000804B93F8982002F0F90283F89820002283F8A6207C4B5B7A0B2B40F23F8103F003FA0446FEF7B6FD03F01CFA10F0010F2BD1744B93F89930032B26D9714A92F8CA
:40254000883043F0040382F8883092F8AA300133DBB282F8AA30072B0DD96B4A527C042A09D10622684B5A74022003F0E3F9204603F0D4F912E1032B11D9634B5B7C042B9C
:402580000DD00422604B5A7409E05E4B93F8882022F0040283F88820002283F8AA20204603F0BCF9FAE05A4F6F263E7030463B2104220023FFF79CFD564D2A786B7803EBA4
:4025C0000223554C1BB2226813442360AA78EB7803EB02231BB26268134463603E7030463F2102220023FFF783FD2A786B7803EB02231AB2A3681344A360434A527A0B2A03
:4026000013D9214620688412404AD47080101071486884125471801090719812D0719B10137200230B604B608B60394F6F263E703046432104220023FFF75AFD354D2A7810
:402640006B7803EB0223344C1BB2E2681344E360AA78EB7803EB02231BB22269134423613E703046472102220023FFF741FD2A786B7803EB02231AB2636913446361224AAA
:40268000527A0B2A40F28A802146E06884121F4A54728010907208698412D47280101073981250739B1093730023CB600B614B6174E00B2B0ED90120104B18709721104B6B
:4026C0001970FFF7F1FC154A138818440F4B1876002313800C4B5B7A0B2B5FD90320074B18709921064B1970FFF7DEFC0C4A13881844064B9876002313804FE01183FF1F3C
:402700001083FF1F3C82FF1F0C81FF1F2C83FF1F6E84FF1F0C83FF1FBC84FF1F8886FF1FD883FF1F0B2B0ED90024244B1C709821234B19702046FFF7B7FC224A1388184476
:40274000214BD8751480214B5B7A0B2B0ED902201A4B187098211A4B1970FFF7A5FC1C4A13881844184B5876002313800420134B18709A21124B1970FFF796FC154A1388F0
:40278000184480B21080114B5B7A0B2B06D9C0F387000D4BD87600220E4B1A800B4B5B7A0B2B0AD9084B094A527C1A770A4A92F88810597792F898209A77F8BD1183FF1F77
:4027C0001083FF1F2E85FF1F2C83FF1F0C81FF1F7C83FF1FEA84FF1F3C82FF1F38B503F03DFA642406E003F051FA03F037FAB4B10134E4B200F0200000F0FF050028F2D154
:4028000003F026FA642406E003F04EFA03F020FA3CB10134E4B210F0100FF5D002E0012500E00225284638BD38B50D46144603F075F8284603F018FA204603F015FA03F0F9
:4028400007FA0546642408E0052003F0C7F803F0FFF9054644B10134E4B215F0010FF3D0FFF7BCFF284638BD012038BD38B5274C6F252570284603F051F803F059FAFFF75E
:40288000ADFF2078752101220023FFF731FC20781A2100223F23FFF7C7FF142003F09EF820781C2100221F23FFF7BEFF142003F095F820786B2100222B46FFF7B5FF1420D0
:4028C00003F08CF8207837210222FF23FFF7ACFF142003F083F820781B2118221346FFF7A3FF142003F07AF8FFF778FF2078752101220023FFF7FCFB054B5B78054A116897
:402900000B441360FFF76AFF38BD00BF6E84FF1F0C83FF1FBC84FF1F38B5FFF769FBFFF73FFA62B602F0CEFC02F022FF02F074FC0320002103F05CF80020014601F080FA8B
:40294000002006E001F03CFC642003F047F801F0AFFA0028F6D001F0C1FB0222484B83F89120484802F0F0FB02F02AFE4FF47A7003F034F8444D00242C7002F0ADFD2878FA
:4029800002F0BAFD02F06EFD02F0E8FCFFF746FB3E4B1A783E4B9A7529E0052C11D9384A92F8983043F0400382F898300721394A5174374A11779377022002F0BBFF01202F
:4029C00038BDFFF715FB47F2305003F007F847F2305003F003F847F2305002F0FFFFFFF71DFB2A4B1A782A4B9A750134E4B2284B9B7D782BD1D8284B1B78202BCDD1052092
:402A0000214B18709321254B1970FFF74DFB204B587500242BE0052C11D9194A92F8983043F0010382F8983007211A4A5174184A11779377022002F07DFF012038BD47F2E3
:402A4000305002F0CBFF47F2305002F0C7FF47F2305002F0C3FF05200B4B187093210F4B1970FFF721FB0A4B58750134E4B2084B5B7D1D2BCFD9FFF7F9FE002038BD00BFC7
:402A80003C82FF1F891C00001183FF1F9884FF1F2C83FF1F0C81FF1F6184FF1F1083FF1F2DE9F041022002F045FFFFF735FF044618B10A30C0B2BDE8F081062002F03AFF8E
:402AC00047F2305002F08AFF47F2305002F086FF47F2305002F082FF944B9B7F022B37D10620934B18709921924B1970FFF7DCFA00252AE0022D12D98F4A92F8983043F0F9
:402B0000020382F898300421884A51748B4A11779377072002F00EFF1420BDE8F08147F2305002F05BFF47F2305002F057FF47F2305002F053FF06207D4B187099217D4BC0
:402B40001970FFF7B1FA0135EDB21D28D2D957E0774F06203870774D99212970FFF7A4FA0646072038709A212970FFF79DFA002542E0022D20D91D2E06D86F4A92F8983051
:402B800043F0020382F898301D2806D86A4A92F8983043F0040382F898300422634B5A74664B1A77644A92F898209A77072002F0C1FE1420BDE8F08147F2305002F00EFF37
:402BC00047F2305002F00AFF47F2305002F006FFDFF85C81062088F80000564F99213970FFF762FA0646072088F800009A213970FFF75AFA0135EDB21D2EBAD91D28B8D993
:402C0000072002F097FE4FF47A7002F0E7FE002529E0022D19D9484A92F8983043F0010382F898300422414B5A74FEF733FA30B1414A92F8883043F0040382F88830072053
:402C400002F078FE2820BDE8F08147F2305002F0C5FE47F2305002F0C1FE47F2305002F0BDFE0135EDB202F07DFE10F0010FD0D000252FE0022D1FD92F4B93F8982042F014
:402C8000010283F8982093F8882042F0040283F888200422254B5A74FEF7FCF930B1264A92F8883043F0040382F88830072002F041FE3220BDE8F08147F2305002F08EFE0C
:402CC00047F2305002F08AFE47F2305002F086FE0135EDB2FEF7C8F80028CBD1052002F029FE02F03FFE10F0010F19D1FEF7D2F930B1114A92F8883043F0040382F8883013
:402D00000D4A92F8983043F0010382F898300422064B5A74022002F00DFE3C20BDE8F081072002F007FE2046BDE8F0810C81FF1F1183FF1F1083FF1F3C82FF1F2C83FF1F4A
:402D400010B500F059FCFFF7ABFE314B5B7C072B05D0FFF74DF900222E4B83F891202E4B2B4A527C1A772B4A92F88810597792F898209A77274BD3F89430022B44D1244B94
:402D800093F823300A3B152B39D8DFE803F00B383838383820383838273838382E38383838383833FDF7DEFA1B4B194A527C1A77184C94F888205A7794F898209A77FDF7D4
:402DC000ABFBFDF7DBFD0023C4F89430D2E7FDF78DFE00220F4BC3F89420CBE7FFF7D0F900220C4BC3F89420C4E70022094BC3F89420BFE70022074BC3F89420BAE7002266
:402E0000044BC3F89420B5E70A2002F0E7FDB1E70C81FF1F3C82FF1F2C83FF1F38B5564BD3E9004520462946544BD3E9062303F019FC38B1524BD3F8F43000200021C3E9FA
:402E4000000117E0204629464C4BD3E9082303F0FFFB38B14A4BD3F8F43000200021C3E9000107E0464BD3F8F430464AD2E90001C3E90001404BD3E90445204629463F4B70
:402E8000D3E9102303F0EEFB38B13D4BD3F8F43000200021C3E9020117E020462946374BD3E9122303F0D4FB38B1354BD3F8F43000200021C3E9020107E0314BD3F8F4305C
:402EC000304AD2E90201C3E902012B4BD3E9084520462946294BD3E91A2303F0C3FB38B1274BD3F8F43000200021C3E9040117E020462946214BD3E91C2303F0A9FB38B18A
:402F00001F4BD3F8F43000200021C3E9040107E01B4BD3F8F4301B4AD2E90401C3E90401154BD3E90C4520462946144BD3E9242303F098FB38B1124BD3F8F4300020002194
:402F4000C3E9060138BD204629460C4BD3E9262303F07EFB38B10A4BD3F8F43000200021C3E9060138BD064BD3F8F430054AD2E90601C3E9060138BD6088FF1F5081FF1F08
:402F80009886FF1FE088FF1F2DE9F04F93B08346C36F1B68D3E90023CDE90623D0E90623CDE90A23036AD3E9002390469946CDE90289D0F884301F6883681D685A681446E5
:402FC00008929A680592DB680993436800261E7038687968BA68FB6828606960AA60EB6038697969BA69FB6928616961AA61EB61DBF878301C60FFF711FF404649460022CC
:403000007B4B03F0A9F802460B46CDE90023CDE90C23A24614E0F300FC18EA18D2E900895344DDE90001D3E9002303F095F802460B464046494602F0DDFEC4E90001013699
:40304000032EE8DDDBF87C301C68DDE90601DDE9002302F0CFFEC4E90001DBF87830059A1A6000F0CBF8FFF7D9FE00240EE0614B03EBC403D3E90601DDE9022303F06CF8A8
:4030800012AB03EBC40343E906010134012CEEDD4FF00009BA4628E04FEAC9040AEB04082B19D3E90067089B2344D3E90001DDE90C2303F051F8CDE90001059B1C44D4E914
:4030C0000001DDE90E2303F047F802460B46DDE9000102F08FFE02460B463046394602F089FEC8E9000109F10109B9F1030FD3DD5746DBF87C301C68DDE9020100223E4B8A
:4031000003F02AF8DDE9062302F074FEC4E90001DBF87830099A1A6000F070F8FFF77EFE00240EE0334B03EBC403D3E90C01DDE9022303F011F812AB03EBC40343E906017D
:403140000134022CEEDD4FF0000AB946089E059FCDF814B0DDF824B037E04FEACA0409EB04082B19D3E90023CDE900233319D3E90001DDE90C2302F0EFFFCDE902013B1958
:40318000D3E90001DDE90E2302F0E6FF02460B46DDE9020102F02EFECDE902015C44D4E90001DDE9102302F0D7FF02460B46DDE9020102F01FFE02460B46DDE9000102F069
:4031C00019FEC8E900010AF1010ABAF1030FC4DDDDF814B0DBF87C301B68DDE90A01C3E90001DBF8043001221A7013B0BDE8F08F0000E03FF06D00000000E83F2DE9F04FF6
:4032000083B0AE4B93F8AC41012C0FD11D46D3F8980103F5D073D3E90067013002F026FF32463B4602F098FFC5E908014CB9A34BD3F8B021D3F884301B68D3E90001C2E93E
:4032400000019F4ED6E902899E4B186802F030FFCDE9000140464946DDE9002302F07CFF80468946D6E9000142464B4602F0C0FD06460F46944BC3E90067944CD4E902011A
:40328000934BD3E9002302F067FF82468B4630463946D4E9042302F05FFF02460B465046594602F0A7FD82468B46D4E906673046394652465B4603F0CBF950B9D4E90867F6
:4032C0003046394652465B4603F0CCF908B956465F46804BC3E90067C3E90289784EDDE90001D6E9062302F037FF80468946D6E9040142464B4602F07BFD06460F46724BFA
:40330000C3E90267714CD4E90C01714BD3E9022302F022FF82468B4630463946D4E90E2302F01AFF02460B465046594602F062FD82468B46D4E910673046394652465B46A0
:4033400003F086F950B9D4E912673046394652465B4603F087F908B956465F465D4BC3E90467C3E90689564EDDE90001D6E90A2302F0F2FE80468946D6E9080142464B4650
:4033800002F036FD06460F464F4BC3E904674F4CD4E916014E4BD3E9042302F0DDFE82468B4630463946D4E9182302F0D5FE02460B465046594602F01DFD82468B46D4E963
:4033C0001A673046394652465B4603F041F950B9D4E91C673046394652465B4603F042F908B956465F463B4BC3E90867C3E90A89334EDDE90001D6E90E2302F0ADFE04464B
:403400000D46D6E90C0122462B4602F0F1FC06460F462D4BC3E90667DFF8B0A0DAE920012B4BD3E9062302F097FE8046894630463946DAE9222302F08FFE02460B46404666
:40344000494602F0D7FC80468946DAE924673046394642464B4603F0FBF850B9DAE926673046394642464B4603F0FCF808B946464F46184BC3E90C67C3E90E450F4B93F88B
:40348000AC31012B17D1144C2046FFF77DFDA4F10800D4F890310133C4F89031D4F8A83104F11805D5E90045C3E90045D0F8A8310133C0F8A83103B0BDE8F08F9886FF1FE6
:4034C000A088FF1FE083FF1FE088FF1F5081FF1F0089FF1F6088FF1FA086FF1F70B53E4C204600214FF4E47203F073FC04F5D673E36004F5D873C4F8843004F5D073A362F4
:4035000004F1F402C4F8802004F1F002C4F88C2004F5C872C4F88820C4F8C840A460012284F8AC2104F58072C4F8802104F59072C4F8842104F5A072C4F8882104F5B072FB
:40354000C4F88C21254DC4F8F05004F5C0722261234A626104F5DC72C4F8B02100202149C3E90001204A0024134643F8044B5460043343F8044B43F8044B43F8044B43F856
:40358000044B43F8044B1C6005F10C0343F8044B43F8044B43F8044B43F8044B1C60402612482146324603F014FC11482146324603F00FFC0F4BD3E90001C5E90001D3E9B3
:4035C0000A01C5E90201D3E91401C5E90401D3E91E23C5E9062370BD9886FF1F0089FF1F406E00000000B03FE088FF1FA088FF1F6088FF1F5081FF1F08B500F001F808BDDE
:4036000072B62DE9FE5F4FF0AA30B0F1AA3F40F09F804FF05530B0F1553F40F099804FF0AA31B1F1AA3F40F093804FF05531B1F1553F40F08D804FF0AA32B2F1AA3F40F0C4
:4036400087804FF05532B2F1553F40F081804FF0AA33B3F1AA3F7BD14FF05533B3F1553F76D14FF0AA34B4F1AA3F71D14FF05534B4F1553F6CD14FF0AA35B5F1AA3F67D1CA
:403680004FF05535B5F1553F62D14FF0AA36B6F1AA3F5DD14FF05536B6F1553F58D14FF0AA37B7F1AA3F53D14FF05537B7F1553F4ED14FF0AA38B8F1AA3F49D14FF0553835
:4036C000B8F1553F44D14FF0AA39B9F1AA3F3FD14FF05539B9F1553F3AD14FF0AA3ABAF1AA3F35D14FF0553ABAF1553F30D14FF0AA3BBBF1AA3F2BD14FF0553BBBF1553F0E
:4037000026D14FF0AA3CBCF1AA3F21D14FF0553CBCF1553F1CD14FF0AA3EBEF1AA3F17D14FF0553EBEF1553F12D168460B498D468D4518BF85460BD109498D468D4518BF55
:40374000854605D185464FF00000BDE8FE5F70474FF00100BDE8FE5F704762B6A8AAAAAA54555555FEE700BF08B5104E104D16E029686B68AC68002204E051F8040B43F8B8
:40378000040B0432A242F8D1E868002203E0002143F8041B04328242F9D11035013E002EE6D103F0E5FAFFF7CBFAFEE7010000009C70000008B5124A124B1A60124A1368D4
:4037C00043F40073136000230AE0032B03D80F4A52F8231000E00E490E4A42F8231001332F2BF2D90C4B1A780C4B1A70094A0C4B1A6000F065F900220A4B1A6008BD00BFBA
:403800000004FA050CED00E014ED00E000000000653700000080FF1FBC7600400481FF1F08ED00E00081FF1FFEE700BFF0B40022174611E050F82760F3B226F0FF0608E0D9
:4038400001EB420511F812406D78A5550132013BDBB2002BF4D101372B2FEBD9F0BC704708B50A46002103F0B4FA08BD38B5484A1578EDB20021474B1980192102331970B3
:40388000072102331980182343490B701F200231088002310B7027200231088002310B7006213E4B1970F3210A3319700323137084223B4B1A700522013B1A70394C04E0B0
:4038C0004FF4F07002F078F8013C24B1364B1B7813F0200FF4D02E4B1D7043F21332A3F286431A80023B05221A701B7843F2C82404E04FF4F07002F05FF8013C24B12B4B35
:403900001B7813F0800FF4D114B90120FFF78CFF40224FF040231A70702203F500731A7040F6180222331A8041F25122023B1A80002419250CE01E4B1B7803F0010343EAEF
:40394000440404F003044FF4F07002F035F8013D0DB1032CEFD115B90320FFF765FF154A4FF48073138007231370002312490B7048200231087013700532137002220F4B70
:403980001A700F4A137843F00F03137038BD00BF9846004080400040864000400043004009430040A086010008430040104200402542004004400040064000400140004074
:4039C000A2430040F8B5174B1B78DBB2164E3478E4B2164F3D78EDB203F00701144A11701B090132137044F00303337045F003033B7060220F4B1A70B02203F2F7131A70DC
:403A0000102228331A70202203331A7012222D331A700A2001F0E2FF3D7034704422064B1A70F8BDCF010049F8460040F94600406E580040095900407658004008B503F090
:403A4000BDF908BD072817D810B44000C0B20B4B53F820101A1892F840400A7822430A700130C0B253F82020184490F8401013780B4313705DF8044B704700BF486E00003B
:403A8000072819D810B44000C0B20C4B53F820101A1892F840400A7822EA04020A700130C0B253F82020184490F84010137823EA010313705DF8044B704700BF486E000003
:403AC00010B572B6414A137843F00403137000240BE03F4963001A1952000A44106DB2F85410FFF7BDFE0134E4B2052CF1D900240BE03749A3001A1952000A44506F916F73
:403B00001022FFF79BFF0134E4B2002CF1D04FF090403049FFF78AFE2F4A137843F0020313701032137843F0020313702B4C237843F040032370A2F58632513A137843F00B
:403B400010031370264827490822FFF777FF264826490A22FFF772FF254826490522FFF76DFF254825490A22FFF768FF244825490A22FFF763FF244824490A22FFF75EFF4C
:403B8000234824490A22FFF759FF234823490A22FFF754FF224823490A22FFF74FFF224822490822FFF74AFF214A137843F00803137001221F4B1A70FFF758FEFFF702FFD2
:403BC0001D4821460E22FFF739FF10BDE8460040486E0000B000004803500140A04300400251004054110048C05100405C110048CB51004068110048F0510040701100484E
:403C0000105100407C1100482051004088110048305100409411004840510040A011004850510040AC11004862510040B81100482243004000480040B0430040014B1870E6
:403C4000704700BF7E640040F8B501F0BDFE0646404A137843F0010313701032137843F00103137001273C4B1F700225943B1D7002F5E2521B32137803F07F0313700020D5
:403C800001F0ACFE354C237803F0F9032370344A137803F0DF03137023783B432370384601F09CFE282001F099FE2E4B1A7802F07F021A701A7802F0BF021A7023782B4305
:403CC0002370284601F08AFE237843F0040323700023254A137001321370304601F078FE1720072101F0BEFE1720204901F0A6FE1820072101F0B6FE18201D4901F09EFEC9
:403D00001520072101F0AEFE15201A4901F096FE2846072101F0A6FE2846174901F08EFE0320072101F09EFE0320144901F086FE0420072101F096FE0420114901F07EFE6D
:403D40000C20072101F08EFE0C200E4901F076FEF8BD00BFA54300409D6000409443004012600040F851004084600040954700006545000091470000D94600001147000066
:403D80004D4700009D47000008B5214B18700023204A1370204A1370204A1370204A1370204A1370204A1370204A1370204B4FF400021A604FF080721A604FF400121A6098
:403DC00004221A6008221A6010221A6011B1012906D00BE0174A137803F0FE0313700AE0144A137843F00103137004E0114A137843F00103137003220F4B1A708022203BAC
:403E00001A70012001F0D8FD04220C4B1A7008BDCB89FF1FCA89FF1F3C89FF1F3D89FF1F3E89FF1FCE89FF1F3F89FF1F3B89FF1F00E100E009600040286000401260004095
:403E400038B505460C46064B1B7823B9FFF7FCFE0122034B1A7028462146FFF795FF38BDEC82FF1F00230A4A13700A4A13700A4A13700A4A13700A4A13700A4A13700A4AAC
:403E800013700322094B1A708022203B1A707047CA89FF1F3C89FF1F3D89FF1F3E89FF1FCE89FF1F3F89FF1F3B89FF1F28600040014B1878704700BF3D89FF1F00EB4000BB
:403EC0008000024B18444078704700BF5C89FF1F431EDBB2072B0BD8064B00011A18185C00F00F00537843EA0020023880B2704700207047FC5F0040431EDBB2072B3BD88E
:403F0000F0B4074600EB40039B001C4C2344DB889BB2C3F500739A4207D900EB40039B002344DA88C2F5007292B200EB40039B00124C2344DB7843EA1223114D04012E1975
:403F40002B55D3B2737039B909E0CE5C3D010D4C665501339BB200E000239342F5D3430003449B00054A134400225A705A79D2B20001054B1A54F0BC704700BF5C89FF1FEF
:403F8000FC5F004078600040FE5F0040431EDBB2072B0BD8430003449B00054A134400225A705A79D2B20001024B1A54704700BF5C89FF1FFE5F004070B5D9B1054614467A
:403FC0000E46C8B1082819D8FFF782FFA04203D22846FFF77DFF0446002305E02901094A525CF25401339BB2A342F7D32846FFF7CDFF04E0002402E0002400E0002420462A
:4040000070BD00BF7860004010B4FF2400220EE00A4B9B5C03EB43039B0009490B449B78DBB2834201D1144602220132D2B2012AEED920465DF8044B704700BF2889FF1F1C
:404040006489FF1F10B5204C2079FFF7DDFF237813F0800F0ED06378DBB2212B2FD11B4B07221A80C0EBC000194A1044586000F0E7FA10BD144B5B78DBB2202B02D0222B10
:4040800010D01EE0114A07231380C0EBC00310490B4453600F4A135C43F00103135400F0F7FA10BD084B9B780B4A22F81030094A135C43F00203135400F082F910BD00205F
:4040C00010BD002010BD00BF006000404C89FF1FF081FF1F3089FF1F3489FF1F10B500241F4B1C701F4B1C705C700AE01E4B185DC0B2431EDBB2072B01D8FFF747FF01342E
:40410000E4B2012CF2D9194B1B7813F0FF0F1AD0154B1B7813F0FF0F17D0154B1B7813F0FF0F14D0114B1B78DBB2082B11D80E4B1B78DBB2082B0ED80D4B1B78DBB2082B57
:404140000BD8002010BD012010BD012010BD012010BD012010BD012010BD012010BD00BFED82FF1F3089FF1F2489FF1F2089FF1F2889FF1F70B506460D460E4B1B780E4A4F
:40418000D45CE4B204EB44039B000C4A13441B899BB28B4208D204EB44039B0013441D89ADB2002001F018FC204631462A46FFF7A3FE70BDED82FF1F2089FF1F5C89FF1F69
:4041C00008B5034B1B78034AD05CFFF777FE08BDED82FF1F2489FF1F08B5034B1B78034AD05CFFF76BFE08BDED82FF1F2089FF1F08B50146074B1B78074AD05CC0B200EBCE
:4042000040039B00054A13441A8992B2FFF7D4FE08BD00BFED82FF1F2489FF1F5C89FF1FC37803F0030390F9020000280FDA032B06D002F001030B48C15442F001020EE017
:40424000C2F380030848C15442F0040207E0032B05D0C2F340030548C15442F002021046704700BF2089FF1F2889FF1F2489FF1F1C4B19781C4A13880B449BB21380002377
:404280000EE01A4A51680978C9B21948C1545168013151600133DBB21188013989B21180124A128892B20AB1072BEAD90D4A1278D2B2082A00D05BB10E490A7882F080025B
:4042C0000A700F210C4A117002210C4A117004E0022209490A7009490A70094A1370014A137070473B89FF1FC889FF1F4C89FF1F006000404089FF1F3A89FF1FCA89FF1F2B
:404300005889FF1F0222074B1A708022064B1A700F22064B1A700023054A1370054A137001207047CA89FF1F4089FF1F3A89FF1F3B89FF1F5889FF1F08B5FFF799FF08BD2C
:4043400010B4184B197801F00F010239C9B2164A13880B449BB21380002010E0134B5C68134A125CD2B222705A6801325A600130C0B20139C9B21A88013A92B21A800B4B79
:404380001B889BB20BB10029E8D10A4B19700A4A137883F0800313700B22084B1A705DF8044B704729600040C889FF1F4C89FF1F006000405889FF1F4089FF1F3A89FF1F42
:4043C0000623064A1370064A13708022054B1A700022054B1A700120704700BFCA89FF1F3A89FF1F4089FF1F5889FF1F064B9B6843B1054B9A6810709A68044909885180DC
:4044000000229A60704700BF4C89FF1FC889FF1F08B5134B1A78D2B21A701B78DBB213F0800F02D00F4A137008BD0220FFF7DEFF0D4B1B7803F06003202B05D0402B06D011
:4044400043B900F095FC06E001F0A2FC03E000F03DFE00E0002010B90322024B1A7008BD286000403A89FF1F0060004008B5084B1978084A13880B449BB213800022064B39
:404480001A700120FFF7B2FF0322044B1A7008BD3B89FF1FC889FF1FCA89FF1F3A89FF1F08B50B4B1B78DBB2042B06D0062B07D0022B0BD1FFF7DAFF08BDFFF741FF08BD6C
:4044C0000320FFF793FF0322024B1A7008BD00BFCA89FF1F3A89FF1F08B50022044B1A700120FFF783FF0322024B1A7008BD00BFCA89FF1F3A89FF1F08B50B4B1B7813F073
:40450000FF0F07D0084A137843F0800307490B70002313700022064B1A700120FFF766FF0322044B1A7008BDCE89FF1F08600040CA89FF1F3A89FF1F08B5094B1B78DBB2B6
:40454000042B06D0062B07D0022B07D1FFF7F4FE08BDFFF7C1FF08BDFFF7CEFF08BD00BFCA89FF1F08B5284B1B78DBB213F0100F48D013F0800F0CD003F00F03012B16D139
:40458000FFF746FF214B1B7813F0800F11D1012312E013F0400F03D0FFF7CEFF01230BE013F0200F07D0FFF77BFF012304E0002302E0002300E0002323B3134B1B7813F0CA
:4045C000800F1FD1124B1B78124A12781343124A13701278D2B29A4214D10C4B1B78DBB2094A127812F0800F07D1084B1B78DBB2054A1370137803F00F03044A1278D2B274
:404600009342EAD108BD00BF286000403A89FF1F4089FF1F5889FF1F296000400022064B1A80064B9B682BB1044A916800230B7092685380704700BFC889FF1F4C89FF1F47
:4046400008B50F4B1B889BB213B9FFF75BFE15E002220C4B1A7000220B4B1A70FFF7DEFF0A4AD179937943EA0123054A128892B29A4201D9024A1380FFF7FAFD012008BDB9
:404680004C89FF1FCA89FF1F4089FF1F0060004008B504220B4B1A7080220B4B1A70FFF7BDFF0A4AD179937943EA0123084A128892B29A4201D9064A13800B22054B1A704D
:4046C000012008BDCA89FF1F4089FF1F006000404C89FF1F3A89FF1F0A4A137803F0FE031370094B9B7C094B1B7B03F00303012B04D0064AD37B83F08003D3730122034B19
:404700005A7370470B600040FC5F00405C89FF1F0B4A137803F0FD0313700A4B93F82230094B1B7E03F00303012B04D0064AD37E83F08003D3760122034B5A76704700BFA7
:404740000B600040FC5F00405C89FF1F0D4A137803F0FB0313700C4B93F832300B4B93F8243003F00303012B06D0084A92F8273083F0800382F827300122044B83F82520FA
:40478000704700BF0B600040FC5F00405C89FF1F704700BF08B5FFF765FB08BD08B501F0E9F808BD70B588B0054603AC174E0FCE0FC43368237035B322232B7003236B7035
:4047C00001A801F067F9002402231AE008AA224412F81C2C08A901EB121111F8141CE954581C00212954981C02F00F0208AE324412F8142C2A54DA1CA9540134E4B204332A
:40480000DBB2212BE2D908B070BD00BFC86E000010B401223DE0114613010C242148C45402EB42039B00204803445B7913F0FF0F12D002EB42039B0003441B7913F0800F6D
:4048400004D01001194B03449C700AE01001174B03440820987004E01001144B0344802098704B000B449B000F480344DC88E4B208010C4901448C71D888C0F30720C871A5
:40488000D888C0B20871DB88C3F307234B710132D2B2082ABFD9FF22054B1A705DF8044B704700BF706000405C89FF1FFC5F00400A600040074B1B78074A02EBC30253681D
:4048C0001A7C824203D903EBC003586970470020704700BFCB89FF1F186F0000F8B5404B1B7813F0FF0F79D03D4B18780138C0B2FFF7E0FF047AC2683A4B1878C0B20023BB
:404900006AE01178814264D13749095CC9B25578A9425ED1917801F07F01D67806F00306DFF8C8E04D000D44AD000EEB05074FF0000C87F803C092F802C087F804C092F829
:4049400003C00EF805C095883D8192F90250002D0DDA012E01D1072700E00D274D000D44AD00224E35446F7101266E700CE0012E01D1052700E009274D000D44AD001B4EA4
:4049800035446F7100266E70DFF868E00F010EEB07060125B57001FA05F529448900134D29440D89C5F307250EF807500D89EDB27570CE88F6B20E4D3D44AE71CE88C6F369
:4049C0000726EE71CE88F6B22E71C988C1F30721697108320133DBB2A34292D3F8BD00BF3D89FF1F3E89FF1F4889FF1F5C89FF1F70600040FC5F0040034B1A78034B03EB4C
:404A0000C2035868704700BFCB89FF1F186F000008B5074B18780138C0B2FFF74BFF28B14268127900EBC203586908BD002008BD3D89FF1F2DE9F84300220EE06F4E53007A
:404A40009D18AD00741900217155A170E1702181A172617061710132D2B2082AEED940B90AE000226649CA546649CA540133DBB200E00023012BF4D9634B1B7813F0FF0F48
:404A800000F0B980604B18780138C0B2FFF712FF80464368DB7913F0400F05D05B4A137843F00103137004E0584A137803F0FE03137098F808704FF0000901266CE0D8F8EF
:404AC0000C50002464E0AB7803F07F039E425CD1314606EB46039B00484803441B899BB2A888834205D206EB46039B00434A134418812B784248C35CDBB26878834244D188
:404B000095F802C03D484B000B449B0000EB030E8EF804C095F803E000F803E0EB7803F0030395F90200002811DA012B02D14FF0070C01E04FF00D0CDFF8C0E04B00581820
:404B40008000704480F805C00123437012E0012B02D14FF0050C01E04FF0090C27484FEA410E0EEB01039B00034483F805C0194600234B70AB790A2B01D0022B05D1284689
:404B800031464A46FFF74CFB814608350134E4B2BC4298D30136F6B2082E90D9D8F80C0000220CE0837803F07F0310F8084B03EB43039B0016490B449C700132D2B2BA420A
:404BC000F0D3FFF725FF134B1860002301210EE00A4C4A00501880002044C380028913449BB203F0010213449BB20131C9B20829EED9FFF70DFEBDE8F88300BF5C89FF1F4F
:404C00004889FF1F3889FF1F3D89FF1F3F89FF1F6489FF1F4489FF1F08B5154B1A7902F07F02531EDBB2072B20D8530013449B0010490B44997841F0010199700021D970F7
:404C4000597841F0020159701B7913F0800F05D01201094B13448D229A7004E01201064B134489229A70FFF7ABFB08BD002008BD006000405C89FF1FFC5F0040264B1B7917
:404C800003F07F035A1ED2B2072A43D810B55A001A44920021490A44917801F0FE0191700021D17019017F241D484454517801F0FD015170127912F0800F14D003EB4302AE
:404CC000920016490A445278D2B2012A05D11B0102461A440C23937019E01B01104A1A440D23937013E003EB430292000B490A445278D2B2012A05D11B01094A1A44082391
:404D0000937004E01B01064A1A4409239370FFF757FB10BD00207047006000405C89FF1FFC5F004010B50E4B1C79E4B20D4B18780138C0B2FFF7BEFD43681B799C4201D9E5
:404D4000022C0AD8084A135DDBB208490B55044B9B78DBB21355012010BD002010BD00BF006000403D89FF1F4889FF1F3889FF1F10B5964B1B78DBB20021954A118013F086
:404D8000800F00F0B380914A5278D2B20A2A00F27981DFE812F06F00770177017701770177010B00770198007701A000874BDB78DBB2012B09D1FFF71FFE4268844B5A6037
:404DC00012221A80FFF73CFC10BD804BDB78DBB2022B13D17D4B9878FFF76CFD002800F0538142687A4B5A605A68D1785A68927842EA01221A80FFF723FC10BD734BDB782F
:404E0000DBB2032B05D032E00A7811440133DBB201E000236F496D4A9278D2B29A4203D90A7812F0FF0FEFD1684B9B78DBB2EE2B00D16949654B9B7813F0FF0F0BD0634BE1
:404E40009B78DBB2654A127C934204D1644C2046FFF7A8FC21460B7813F0FF0F00F016810B785B4A13805160FFF7EAFB10BD00F08FFF10BD13F0030317D0022B40F0088144
:404E800053490B80514B1B7903F07F0303EB43039B00544A13449A78D2B2534B1A7000225A704B60FFF7CCFB10BD494902230B804E4B1A78D2B24C4B1A7000225A704B60DA
:404EC000FFF7BEFB10BD424B01221A80484A5A60FFF7B6FB10BD3E4A012313803B4B1B7944490B445360FFF7ABFB10BD374A5278013A0A2A00F2CE80DFE812F04B00CC0001
:404F00009700CC000B00CC00CC00CC001300CC0030002E4B9B78DBB2374A1370FFF750FA10BD2A4B9B7803F0FF041BB1601EC0B2FFF7C0FC04B110B9002C40F0AD802C4BFC
:404F40001B78DBB29C4206D0294B1C7001202B4B1870FFF76FFDFFF733FA10BDFFF7E2FE002800F09B80194A1379DBB21279D2B223490A70234AD25C1E49C95CD3B28B42F9
:404F800004D001221D4B1A70FFF7A8FCFFF718FA10BD03F00303012B36D04BB1022B7FD10A4B9B7813F0FF0F7CD1FFF767FE10BD064B9B78DBB2012B76D10C4A137803F0CF
:404FC000FD031370FFF7FCF910BD00BF006000404C89FF1F806F0000046F000064700000DC89FF1F5C89FF1FF082FF1F3F89FF1F3D89FF1F4889FF1FCE89FF1F3C89FF1FC7
:405000003E89FF1F3889FF1F2D4B1B79DBB2012B4CD82B4B98781B79DBB22A49CA5C22EA0002CA54FFF7CCF910BD03F00303012B17D04BB1022B3BD1214B9B7813F0FF0FFE
:4050400038D1FFF7E9FD10BD1D4B9B78DBB2012B32D11D4A137843F002031370FFF7B0F910BD174B1B79DBB2012B27D8144B98781B79DBB21349CA5C22EA0002CA54FFF74C
:405080009FF910BD002010BD002010BD002010BD002010BD002010BD002010BD002010BD002010BD002010BD002010BD002010BD002010BD002010BD002010BD002010BDA8
:4050C00000600040CC89FF1F3F89FF1F08B50B4B1B7813F0800F0CD0084B5B78DBB2012B09D1074B074A5A6012781A80FFF7A8FA08BD002008BD002008BD00BF00600040E3
:405100004C89FF1FDC6E0000024B1B68C3F88400704700BF08ED00E04001C0B2014B1870704700BF11E400E04FF40032014B1A60704700BF00E100E04FF40032014B1A6059
:40514000704700BF80E100E010B50446FFF7F4FF2046FFF7D9FF0720FFF7DEFFFFF7E4FF10BD00BF044A137803F00F030001C0B203431370704700BF20510040014B1878D0
:405180000009704721510040024A137843F080031370704778650040014B1870704700BF83640040014B1878704700BF63640040014B1870704700BF23640040014B1878E2
:4051C000704700BF43640040014B1870704700BF0364004008B501E0FFF7F0FFFFF7E2FF10F0080FF8D108BD08B50220FFF7E0FF0220FFF7E9FF00F0E7FB064A137843F0CE
:405200001003137000F0E4FBFFF7E4FF0020FFF7C3FF08BD9364004008B5054B1B7823B9FFF7E2FF0122024B1A70FFF7ADFF08BDF482FF1F024A137843F08003137070474D
:4052400077640040014B1870704700BF86640040014B1878704700BF66640040014B1870704700BF26640040014B1878704700BF46640040014B1870704700BF06640040FF
:4052800008B501E0FFF7F0FFFFF7E2FF10F0080FF8D108BD08B50720FFF7E0FF0720FFF7E9FF00F091FB064A137843F01003137000F08EFBFFF7E4FF0020FFF7C3FF08BD22
:4052C0009664004008B5054B1B7823B9FFF7E2FF0122024B1A70FFF7ADFF08BDF582FF1F044A137803F0EF03000100F010001843107070470051004008B50A280FD00C2847
:4053000002D0082806D102E04FF4805209E04FF4807206E0002000F05FFB002201E04FF480620021094B198042F2107303FB02F303F6C413064A82FB0302DB17C3EBE22308
:40534000044A1360044B198008BD00BFD089FF1FAD8BDB68D489FF1FD289FF1F38B500F033FB04461E4A137843F0020313701032137843F002031370193A137843F0080373
:4053800013701032137843F00803137002F5AA521932137843F0030313701822114B1A70013B1A7842F040021A701A7802F0FC021A70CE22053B1A700225A3F59753123BAF
:4053C0001D70094A137843F0080313700A2000F005FB064B1D60204600F0FAFA38BD00BFAB4300400E5900402F5B004080E200E010B504460A280DD00C2802D0082804D191
:4054000001E0C22207E0422205E0002000F0E4FAC22200E08222034B1A702046FFF76CFF10BD00BF0A59004008B5102000F0AAFA0120072100F016FB0120074900F0FEFA2F
:40544000064A137843F0060313700C20FFF7D0FF0022034B1A8008BDD554000009590040D889FF1F08B5054B1B7823B9FFF7DCFF0122024B1A70FFF771FF08BDF682FF1F80
:40548000044B1A7802F0FB021A701A7842F001021A7070470859004010B5074B1B7813F0010401D10028F8D024B1012000F096FA014B1B78204610BD09590040034B1B885A
:4054C000034A1088181A00B2704700BFA25B0040D289FF1F704700BF10B5002404E02046FEF7CEFA0134E4B2072CF8D9FF22014B1A7010BD0C82FF1F10B50446054B187823
:40550000FF2801D0FEF7BCFA2046FEF79BFA014B1C7010BD0C82FF1F054A137843F0020313701032137843F002031370704700BFA8430040054B1A7802F0FD021A701A78DA
:4055400000F0020010431870704700BF24580040014B1870704700BF815B0040064B1B78C3F3810303F19243063393F83031DBB2024A1370704700BF24580040094600409D
:4055800008B5064B1A7802F0F3021A701A7800F00C0010431870FFF7E1FF08BD2458004010B50024054B1C7001331C700420FFF7E7FF2046FFF7BEFF10BD00BF2458004034
:4055C00008B5074B1B7823B9FFF7EAFF0122044B1A70FFF7A1FF9C20FFF7BAFF08BD00BFF782FF1F10B500F08DFA00F0D5FA58B9012000F0B3FA072802D04FF0FF3400E019
:40560000072400F0EFFA00E00424204610BD00BF10B582B0154B1B7813F0020F19D10446124B1B789B0816D101A8022100F07CFA022812D19DF80430012B04D19DF80530ED
:40564000238000240BE09DF805305B422380002405E0102403E0072401E04FF0FF34072C01D000F0BFFA204602B010BD22470040044A137803F0CF03000100F0300018437B
:405680001070704760510040024B1878C0F30110704700BF61510040084A137843F0010313701032137843F00103137002F64D32137843F001031370704700BFA343004043
:4056C000014B1870704700BF034F0040014B1880704700BF044F0040014B1880704700BF064F004008B51F4A137803F0010313701D4B1A7802F0FC021A701A7802F0F302DA
:405700001A701A7842F00C021A701A7802F07F021A701A7842F080021A701A78D2B21A7009331A7802F0CF021A701A7842F030021A701A7802F0F0021A701A7842F00F0214
:405740001A700A4A137843F00103137040F67130FFF7BCFF40F67130FFF7BEFF0820FFF7AFFF08BD004F0040024F0040014F004008B5054B1B7823B9FFF7B4FF0122024B1E
:405780001A70FFF789FF08BDF882FF1F044A137803F03F038001C0B203431370704700BF60510040014B1878800970476151004008B500F009F90A4A137843F020031370DE
:4057C0000432137843F010031370A2F20512137843F01003137000F0FBF800F0DDF808BD95650040014B1878704700BF69650040014B1878704700BF64640040034B1B78DE
:4058000013F0040FFAD0024B188070476965004048650040014B188880B2704758650040044B1B7813F0200F01D0012070470020704700BF6464004001E0044B1B88044BA2
:405840001B7813F0200FF8D1704700BF586500406464004008B500F0B7F80A4B1A7842F001021A701A7802F0FE021A7001331A7842F001021A701A7802F0FE021A7000F08C
:40588000A7F808BD9865004008B501E00E4B1B880E4B1B7813F0200FF8D100F095F80C4B1A7842F001021A701A7802F0FE021A7001331A7842F001021A701A7802F0FE028A
:4058C0001A7000F085F808BD58650040646400409865004008B51F22074B1A70FFF7D4FFFFF780FFFFF784FF0023044A1370A2F20512137008BD00BF85650040896500401B
:4059000008B5054B1B7823B9FFF7E4FF0122024B1A70FFF74DFF08BDF982FF1F014B1870704700BF76640040014B1878704700BF76640040014B1870704700BF7264004048
:40594000014B1878704700BF72640040014B1870704700BF73640040014B1878704700BF60640040024B187800F00100704700BF21510040024B1878C0F38010704700BF7C
:405980008F450040034B1A7800F0F80010431870704700BF8E400040054A137843F0020313701032137843F002031370704700BFA2430040000000000230800803D000BFA8
:4059C00001380046FCD17047EFF3108072B6704780F31088704700BF01BE704708B5034B1B7A03FB00F0FFF7E7FF08BD1082FF1F0E4B1A7802F0FC0200F0030010431870D4
:405A00001A7842F080021A701A7802F07F021A7049011A7801F0600102F09F02114319701A7842F010021A70704700BF834300400122014B1A7070478443004070B5044667
:405A40000E46074B1D681F2802D90020FFF7C4FF04F01F04103455F8240045F8246070BD08ED00E038B504460D46072902D90020FFF7B2FF1F2C02D90020FFF7ADFF04F039
:405A80001F0000F1604000F564406D01EDB2057038BD00BF134B1B78DBB20360124A127843EA02230360114A127843EA024303600F4A127843EA026303600E4B1B78DBB2E0
:405AC00043600D4A127843EA022343600B4A127843EA024343600A4A127843EA02634360704700BF0301004904010049EC4600400201004901010049000100490501004973
:405B00000601004908B5FFF75FFF064A137843F0080313701032137843F008031370FFF757FF08BDA043004070B506460D4600240CE00120FFF752FF064B1B7813F0010F73
:405B4000F7D0054B1B7833550134E4B2AC42F3D3204670BD22470040204700400C4B1B7813F0020F0FD00B4BB6221A70E1221A700E221A7002331B7813F0020F05D1054BB3
:405B8000187007207047042070470920704700BF224700402047004010B5FFF715FF0F4B1B78A3B901220D4B1A700D4B1B6813F0010F0ED00A4A136823F00103136000BFB4
:405BC00000BF00BF0122054B5A60002402E0042400E00024FFF7FCFE204610BDFC82FF1F0400084008B5FFF7EFFE0A4B00221A705B68012B0AD1084A136843F001031360DB
:405C000000BF00BF00BF0022024B5A60FFF7E0FE08BD00BFFC82FF1F0400084008B5FFF7D3FE0A4A137843F020031370013A137843F010031370023A137843F01003137063
:405C4000FFF7C6FE00F082F808BD00BF9D640040014B1878704700BF6C640040014B1878704700BF6A640040034B1B7813F0040FFAD0024B187070476C6400404A6400402E
:405C8000014B1878704700BF5A64004001E0044B1B78044B1B7813F0200FF8D1704700BF5A6400406A64004008B5FFF78DFE064B1A7842F001021A701A7802F0FE021A7084
:405CC000FFF786FE08BD00BF9A64004008B501E00A4B1B780A4B1B7813F0200FF8D1FFF773FE084B1A7842F001021A701A7802F0FE021A70FFF76CFE08BD00BF5A64004004
:405D00006A6400409A64004008B50F22064B1A70FFF7DCFFFFF79CFFFFF7A0FF0023034A1370023A137008BD8D6400408C64004008B5054B1B7823B9FFF7E6FF0122024BB8
:405D40001A70FFF76BFF08BD0483FF1F054A137843F0040313701032137843F004031370704700BFA2430040024B1878C0F38000704700BF41510040044A137803F0EF03FD
:405D8000000100F01000184310707047C051004008B5124B1B7803F00303012B02D0022B04D00FE00D4B1B79DBB20CE00B4B1B7903F07F0303EB43039B00094A13449B781B
:405DC000DBB200E00023074A1268D35C022B02D1FEF738F908BD002008BD00BF006000406489FF1F4489FF1F81F0004102E000BF83F0004330B54FEA41044FEA430594EA89
:405E0000050F08BF90EA020F1FBF54EA000C55EA020C7FEA645C7FEA655C00F0E2804FEA5454D4EB5555B8BF6D420CDD2C4480EA020281EA030382EA000083EA010180EAF5
:405E4000020281EA0303362D88BF30BD11F0004F4FEA01314FF4801C4CEA113102D0404261EB410113F0004F4FEA03334CEA133302D0524263EB430394EA050F00F0A78042
:405E8000A4F10104D5F1200E0DDB02FA0EFC22FA05F2801841F1000103FA0EF2801843FA05F359410EE0A5F120050EF1200E012A03FA0EFC28BF4CF0020C43FA05F3C018DE
:405EC00051EBE37101F0004507D54FF0000EDCF1000C7EEB00006EEB0101B1F5801F1BD3B1F5001F0CD349085FEA30004FEA3C0C04F101044FEA445212F5800F80F09A800B
:405F0000BCF1004F08BF5FEA500C50F1000041EB045141EA050130BD5FEA4C0C404141EB010111F4801FA4F10104E9D191F0000F04BF01460020B1FA81F308BF2033A3F14A
:405F40000B03B3F120020CDA0C3208DD02F1140CC2F10C0201FA0CF021FA02F10CE002F11402D8BFC2F1200C01FA02F120FA0CFCDCBF41EA0C019040E41AA2BF01EB0451AD
:405F8000294330BD6FEA04041F3C1CDA0C340EDC04F11404C4F1200220FA04F001FA02F340EA030021FA04F345EA030130BDC4F10C04C4F1200220FA02F001FA04F340EAA7
:405FC0000300294630BD21FA04F0294630BD94F0000F83F4801306BF81F480110134013D4EE77FEA645C18BF7FEA655C29D094EA050F08BF90EA020F05D054EA000C04BFDE
:406000001946104630BD91EA030F1EBF0021002030BD5FEA545C05D14000494128BF41F0004130BD14F580043CBF01F5801130BD01F0004545F0FE4141F470014FF00000BC
:4060400030BD7FEA645C1ABF194610467FEA655C1CBF0B46024650EA013406BF52EA033591EA030F41F4002130BD00BF90F0000F04BF0021704730B54FF4806404F1320446
:406080004FF000054FF0000150E700BF90F0000F04BF0021704730B54FF4806404F1320410F0004548BF40424FF000013EE700BF42004FEAE2014FEA31014FEA02701FBFC1
:4060C00012F07F4393F07F4F81F06051704792F0000F14BF93F07F4F704730B54FF4607401F0004521F0004120E700BF50EA010208BF704730B54FF000050AE050EA0102F1
:4061000008BF704730B511F0004502D5404261EB41014FF4806404F132045FEA915C3FF4DCAE4FF003025FEADC0C18BF03325FEADC0C18BF033202EBDC02C2F1200300FA31
:4061400003FC20FA02F001FA03FE40EA0E0021FA02F11444C1E600BF70B54FF0FF0C4CF4E06C1CEA11541DBF1CEA135594EA0C0F95EA0C0F00F0DEF82C4481EA030621EA7C
:406180004C5123EA4C5350EA013518BF52EA033541F4801143F4801338D0A0FB02CE4FF00005E1FB02E506F00042E0FB03E54FF00006E1FB03569CF0000F18BF4EF0010E9D
:4061C000A4F1FF04B6F5007F64F5407404D25FEA4E0E6D4146EB060642EAC62141EA55514FEAC52040EA5E504FEACE2EB4F1FD0C88BFBCF5E06F1ED8BEF1004F08BF5FEA62
:40620000500E50F1000041EB045170BD06F0004646EA010140EA020081EA0301B4EB5C04C2BFD4EB0C0541EA045170BD41F480114FF0000E013C00F3AB8014F1360FDEBFB6
:40624000002001F0004170BDC4F10004203C35DA0C341BDC04F11404C4F1200500FA05F320FA04F001FA05F240EA020001F0004221F0004110EBD37021FA04F642EB060133
:406280005EEA430E08BF20EAD37070BDC4F10C04C4F1200500FA04F320FA05F001FA04F240EA020001F0004110EBD37041F100015EEA430E08BF20EAD37070BDC4F12005F1
:4062C00000FA05F24EEA020E20FA04F301FA05F243EA020321FA04F001F0004121FA04F220EA020000EBD3705EEA430E08BF20EAD37070BD94F0000F0FD101F000464000E0
:4063000041EB010111F4801F08BF013CF7D041EA060195F0000F18BF704703F00046520043EB030313F4801F08BF013DF7D043EA0603704794EA0C0F0CEA135518BF95EA01
:406340000C0F0CD050EA410618BF52EA4306D1D181EA030101F000414FF0000070BD50EA410606BF1046194652EA430619D094EA0C0F02D150EA013613D195EA0C0F05D100
:4063800052EA03361CBF104619460AD181EA030101F0004141F0FE4141F470014FF0000070BD41F0FE4141F4780170BD70B54FF0FF0C4CF4E06C1CEA11541DBF1CEA1355DF
:4063C00094EA0C0F95EA0C0F00F0A7F8A4EB050481EA030E52EA03354FEA013100F088804FEA03334FF0805545EA131343EA12634FEA022245EA111545EA10654FEA0026C1
:406400000EF000419D4208BF964244F1FD0404F5407402D25B084FEA3202B61A65EB03055B084FEA32024FF480104FF4002CB6EB020E75EB030E22BFB61A754640EA0C001A
:406440005B084FEA3202B6EB020E75EB030E22BFB61A754640EA5C005B084FEA3202B6EB020E75EB030E22BFB61A754640EA9C005B084FEA3202B6EB020E75EB030E22BF41
:40648000B61A754640EADC0055EA060E18D04FEA051545EA16754FEA06164FEAC30343EA52734FEAC2025FEA1C1CC0D111F4801F0BD141EA00014FF000004FF0004CB6E79B
:4064C00011F4801F04BF01430020B4F1FD0C88BFBCF5E06F3FF6AFAEB5EB030C04BFB6EB020C5FEA500C50F1000041EB045170BD0EF0004E4EEA113114EB5C04C2BFD4EB30
:406500000C0541EA045170BD41F480114FF0000E013C90E645EA060E8DE60CEA135594EA0C0F08BF95EA0C0F3FF43BAF94EA0C0F0AD150EA01347FF434AF95EA0C0F7FF466
:4065400025AF104619462CE795EA0C0F06D152EA03353FF4FDAE1046194622E750EA410618BF52EA43067FF4C5AE50EA41047FF40DAF52EA43057FF4EBAE12E74FF0FF3C8A
:4065800006E000BF4FF0010C02E000BF4FF0010C4DF804CD4FEA410C7FEA6C5C4FEA430C18BF7FEA6C5C1BD001B050EA410C0CBF52EA430C91EA030F02BF90EA020F00202E
:4065C000704710F1000F91EA030F58BF994208BF90422CBFD8176FEAE37040F0010070474FEA410C7FEA6C5C02D150EA013C07D14FEA430C7FEA6C5CD6D152EA033CD3D0F7
:406600005DF8040B704700BF8446104662468C461946634600E000BF01B5FFF7B7FF002848BF10F1000F01BD4DF808EDFFF7F4FF0CBF012000205DF808FB00BF4DF808ED60
:40664000FFF7EAFF34BF012000205DF808FB00BF4DF808EDFFF7E0FF94BF012000205DF808FB00BF4DF808EDFFF7CEFF94BF012000205DF808FB00BF4DF808EDFFF7C4FF9B
:4066800034BF012000205DF808FB00BF4FEA410212F5001215D211D56FF47873B3EB625212D94FEAC12343F0004343EA505311F0004F23FA02F018BF404270474FF0000091
:4066C000704750EA013005D111F0004008BF6FF0004070474FF00000704700BF4FEA4102B2F1E04324BFB3F5001CDCF1FE5C0DD901F0004C4FEAC0024CEA5070B2F1004F79
:4067000040EB830008BF20F00100704711F0804F21D113F13872BCBF01F00040704741F480114FEA5252C2F11802C2F1200C10FA0CF320FA02F018BF40F001004FEAC123C0
:406740004FEAD32303FA0CFC40EA0C0023FA02F34FEA4303CCE77FEA625307D150EA01331EBF4FF0FE4040F44000704701F0004040F0FE4040F40000704700BF80F0004089
:4067800002E000BF81F0004142001FBF5FEA410392EA030F7FEA226C7FEA236C6AD04FEA1262D2EB1363C1BFD218414048404140B8BF5B42192B88BF704710F0004F40F475
:4067C000000020F07F4018BF404211F0004F41F4000121F07F4118BF494292EA030F3FD0A2F1010241FA03FC10EB0C00C3F1200301FA03F100F0004302D5494260EB40005E
:40680000B0F5000F13D3B0F1807F06D340084FEA310102F10102FE2A51D2B1F1004F40EBC25008BF20F0010040EA03007047490040EB000010F4000FA2F10102EDD1B0FAE2
:4068400080FCACF1080CB2EB0C0200FA0CF0AABF00EBC25052421843BCBFD0401843704792F0000F81F4000106BF80F400000132013BB5E74FEA41037FEA226C18BF7FEA59
:40688000236C21D092EA030F04D092F0000F08BF0846704790EA010F1CBF0020704712F07F4F04D1400028BF40F00040704712F100723CBF00F50000704700F0004343F0E8
:4068C000FE4040F4000070477FEA226216BF08467FEA23630146420206BF5FEA412390EA010F40F4800070474FF0000304E000BF10F0004348BF40425FEA000C08BF7047FA
:4069000043F0964301464FF000001CE050EA010208BF70474FF000030AE000BF50EA010208BF704711F0004302D5404261EB41015FEA010C02BF84460146002043F0B643C9
:4069400008BFA3F18053A3F50003BCFA8CF2083AA3EBC25310DB01FA02FC634400FA02FCC2F12002BCF1004F20FA02F243EB020008BF20F00100704702F1200201FA02FC06
:40698000C2F1200250EA4C0021FA02F243EB020008BF20EADC7070474FF0FF0C1CEAD0521EBF1CEAD15392EA0C0F93EA0C0F6FD01A4480EA010C400218BF5FEA41211ED0FB
:4069C0004FF0006343EA501043EA5111A0FB01310CF00040B1F5000F3EBF490041EAD3715B0040EA010062F17F02FD2A1DD8B3F1004F40EBC25008BF20F00100704790F0B1
:406A0000000F0CF0004C08BF49024CEA502040EA51207F3AC2BFD2F1FF0340EAC250704740F400004FF00003013A5DDC12F1190FDCBF00F000407047C2F10002410021FA12
:406A400002F1C2F1200200FA02FC5FEA310040F1000053EA4C0308BF20EADC70704792F0000F00F0004C02BF400010F4000F013AF9D040EA0C0093F0000F01F0004C02BFA0
:406A8000490011F4000F013BF9D041EA0C018FE70CEAD15392EA0C0F18BF93EA0C0F0AD030F0004C18BF31F0004CD8D180EA010000F00040704790F0000F17BF90F0004FED
:406AC000084691F0000F91F0004F14D092EA0C0F01D142020FD193EA0C0F03D14B0218BF084608D180EA010000F0004040F0FE4040F40000704740F0FE4040F44000704733
:406B00004FF0FF0C1CEAD0521EBF1CEAD15392EA0C0F93EA0C0F69D0A2EB030280EA010C49024FEA402037D04FF0805343EA111143EA10130CF000408B4238BF5B0042F141
:406B40007D024FF4000C8B4224BF5B1A40EA0C00B3EB510F24BFA3EB510340EA5C00B3EB910F24BFA3EB910340EA9C00B3EBD10F24BFA3EBD10340EADC001B0118BF5FEA95
:406B80001C1CE0D1FD2A3FF650AF8B4240EBC25008BF20F0010070470CF0004C4CEA50207F32C2BFD2F1FF0340EAC250704740F400004FF00003013A37E792F0000F00F0D0
:406BC000004C02BF400010F4000F013AF9D040EA0C0093F0000F01F0004C02BF490011F4000F013BF9D041EA0C0195E70CEAD15392EA0C0F08D142027FF47DAF93EA0C0F50
:406C00007FF470AF084676E793EA0C0F04D14B023FF44CAF08466EE730F0004C18BF31F0004CCAD130F000427FF45CAF31F000437FF43CAF5FE700BF4FF0FF3C06E000BF7B
:406C40004FF0010C02E000BF4FF0010C4DF804CD4FEA40024FEA41037FEA226C18BF7FEA236C11D001B052EA530C18BF90EA010F58BFB2EB030088BFC81738BF6FEAE170FB
:406C800018BF40F0010070477FEA226C02D15FEA402C05D17FEA236CE4D15FEA412CE1D05DF8040B704700BF844608466146FFE70FB5FFF7C9FF002848BF10F1000F0FBDA0
:406CC0004DF808EDFFF7F4FF0CBF012000205DF808FB00BF4DF808EDFFF7EAFF34BF012000205DF808FB00BF4DF808EDFFF7E0FF94BF012000205DF808FB00BF4DF808EDF6
:406D0000FFF7D2FF94BF012000205DF808FB00BF4DF808EDFFF7C8FF34BF012000205DF808FB00BF4FEA4002B2F1FE4F0FD34FF09E03B3EB12620DD94FEA002343F00043A8
:406D400010F0004F23FA02F018BF404270474FF00000704712F1610F01D1420205D110F0004008BF6FF0004070474FF0000070470E4B70B51E460E4C0025E41AA410A54203
:406D800004D056F8253098470135F8E700F074F9084B094C1E46E41AA4100025A54204D056F8253098470135F8E770BD8470000084700000847000008C70000010B5431EAB
:406DC0000A44914204D011F8014B03F8014FF8E710BD03460244934202D003F8011BFAE770470000000000004F76657272756E00000000000000E03F00000000000000005D
:406E000000000000000000000000000000000000000000000000E83F00000000000000001CC7711CC771CC3F555555555555D53F1CC7711CC771DC3F9886FF1F0000000067
:406E40006F646533000000002D510040285B00404D510040244300404D510040244300404D510040244300400D510040244300400D510040244300404D5100402443004088
:406E80003D510040285B004002022000100008000200080001004040004F00400C0000000140001000140140000800400140000A004C0140000210500140100000500140D5
:406EC000441100481000000030313233343536373839414243444546000000002800000000010400010000000000000000014359555342000000303030303100000000009D
:406F00000000000012034D005300460054003100300030000100000001000000206F00000100000064700000000000000000000001000000386F00000100000020700000D2
:406F400003000000646F00000000000000000000000000000000000000000000606F0000020A000000008103080002000100820240000A000100030240000A0002030000AE
:406F8000040309042C0343007900700072006500730073002000530065006D00690063006F006E0064007500630074006F00720010035500530042005500410052005400ED
:406FC0003803430044004300200043006F006D006D0075006E00690063006100740069006F006E00200049006E007400650072006600610063006500260343004400430072
:4070000020004400610074006100200049006E007400650072006600610063006500000009024300020101C032090400000102020103052400100104240202052406000115
:4070400005240100010705810308000A09040100020A0000040705820240000007050302400000001201000202000008B40432F20100010280010000F8B500BFF8BC08BCA0
:407080009E4670474D000000B5370000F8B500BFF8BC08BC9E46704729000000B07000000881FF1F18010000E007000000000000000000000101000003020001020F000074
:4070C000100000000101C8002000000003020001010102010101011F1000000003000000FF012C01000100100000803F1B2FDD3D9A99993E01FF00000000000000000000EB
:407100000000000000000840000000000000F03F000000000000244000000000000024C000000000000000000000000000000840000000000000F03F0000000000002440B5
:4071400000000000000024C000000000000000000000000000000840000000000000F03F000000000000244000000000000024C00000000000000000000000000000084024
:40718000000000000000F03F000000000000244000000000000024C000C2010000000800C201000000080000A12000000000020000000000FF0000000000007D00FA000089
:4071C000400000000090D0030000000000000000000000000000000000000000000000000000000000000000000000000000000000000000000000000000000000000000EC
:40720000000000000000000000000000000000000000000000000000000000000000000000000000000000000000000000000000000000000000000000000000000000004E
