:400000000080002011000000C9890000C989000008B5044B1A6803F53F5302331A6008F0D5FC00BFFA46004010B5054C237833B9044B13B10448AFF300800123237010BDFA
:400040006882FF1F00000000BCCB0000084B10B51BB108480849AFF300800848036803B910BD074B002BFBD0BDE81040184700BF00000000BCCB00006C82FF1F0881FF1F71
:400080000000000038B50AF0ABFDC043C0B25A4B18705A4BD8775A4B1B7813F0020F26D0584D594829780122102308F0E7F9524C564821780122102308F0E0F92B7821788C
:4000C0008B4214D02970514805F072FD504C5148218805F06DFD5048A18805F069FD4F48218905F065FD4E48A18905F061FD424B1B7803F00602062A1BD0454A1268002A4C
:4001000002DD0021424A1160414A5268002A02DD00213F4A51603E4A9268002A02DD00213B4A91603A4AD268002A02DD0021384AD16003F06002602A1BD0354A1268002A6F
:4001400002DA0021324A1160314A5268002A02DA00212F4A51602E4A9268002A02DA00212B4A91602A4AD268002A02DA0021284AD16003F01802182A1BD0254A1268002A4B
:4001800002DA0021224A1160214A5268002A02DD00211F4A51601E4A9268002A02DD00211B4A91601A4AD268002A02DA0021184AD16013F0800F02D013F0010F1BD1144B00
:4001C0001B68002B02DD0022114B1A60104B5B68002B02DA00220E4B5A600D4B9B68002B02DA00220A4B9A60094BDB68002B02DD0022074BDA6038BDE283FF1FE883FF1FFD
:400200000A82FF1F0B87FF1FC0CB0000D0CB00008482FF1FDCCB0000ECCB0000FCCB00000CCC0000094B1B7C23B1094B1B68094A1A60704710B5054C012323741E2007F0FD
:40024000C9FE04F029F80023237410BD8482FF1F10D400001CCC000010B5044600F00F000AF0BCF8C4F301100AF046FBC4F381100AF0D0FB10BD00BF2DE9F0418AB04020F2
:40028000FFF7EAFF87490B785B00013B864A128803FB02F3ADF82030844A537C5B00013B8348008803FB00F3ADF822304B785B00013B8049098803FB01F3ADF82430937C06
:4002C0005B00013B7C4A128803FB02F3ADF826307A4B1B7813F0040F14D0734B1988784B1A880A441A80724A11885A880A445A80704A11889A880A449A806F4A1188DA882B
:400300000A44DA80002223E00AAB03EB420333F8083C13F4004F0DD01BB2002BB8BF5B426249898A0B415B420AA901EB420121F8083C0BE01BB2002BB8BF5B425B49898AC6
:400340000B410AA901EB420121F8083C0132D2B2032AD9D9534B1A790AA901EB420232F8088C584CA4F802805A7901EB420232F8082C554F7A80987901EB400030F808EC70
:40038000524EA6F802E0DB7901EB430333F808CC4F4DA5F802C02188414489B221803888104438803288724432802B8863442B80484B1B7813F0040F53D04C238DF800301D
:4003C00046238DF801303D238DF802300DF1030009B208F043F9002001E00130C0B202460AAB034413F8283C002BF6D10AAB1A442C2302F8283C0130C0B26844314BB3F957
:40040000021008F02BF9684605F07AFC52238DF8003046238DF801303D238DF802300DF10300294BB3F9001008F018F9002001E00130C0B202460AAB034413F8283C002B59
:40044000F6D10AAB1A442C2302F8283C0130C0B268441D4BB3F9021008F000F9684605F04FFC184D95F90200FFF7F6FE4020FFF7F3FE154C94F90200FFF7EEFE4020FFF753
:40048000EBFE95F90000FFF7E7FE4020FFF7E4FE94F90000FFF7E0FE4020FFF7DDFE0AB0BDE8F0810C81FF1F306800408482FF1F2C6A0040286A0040286800404C83FF1F44
:4004C0001484FF1FF885FF1FDC83FF1FC084FF1F5485FF1F4583FF1FF8B55020FFF7BCFE9C4B1B7AD3B99C4B1B7813F0100F03D09A48002105F05CFB994B9A4AB2F90020C9
:400500001A60994AB2F900205A60984AB2F900209A60974AB2F90020DA6035E0022B16D18D4B1B7813F0100F03D08C48012105F03FFB5220FFF790FE894B8E4A9169196089
:40054000D1695960116A9960526ADA601CE0824B1B7813F0100F03D08048022105F028FB5320FFF779FE7E4B7E4AB2F900201A607D4AB2F900205A607C4AB2F900209A603D
:400580007B4AB2F90020DA6091227B4B1A60714B5B7A082B71D15420FFF75EFE754B93F8292083F8282093F82A2083F829209D692D01DD62DC6924011C63186A0001586328
:4005C0005A6A12019A63D3F800E0C3F818E05968D9619F681F62DE685E622B46002D01DA05F10F03AEEB2313624DEB632346002C01DA04F10F03A1EB23135E490B6403465B
:40060000002801DA00F10F03A7EB2317594B5F641346002A01DA02F10F03A6EB2316554B9E64564B1B7813F0080F26D0544A1288B2F5617F03D923F00803504A1370454B08
:40064000DB689E450AD0434BC3F80CE04D48714605F0B0FB4A4A1388013313803D4B1B69444AD1698B4208D03A4B1961464805F0A1FB434A138801331380364B5A69002A6F
:4006800013DD3C4BD86AD96B0144D962186B196C01441963586B596C01445963986B996C01449963013A2B4B5A612A4B1B7E012B4BD1304BDB6A002B00DA0F331B112D4AB6
:4006C0009361136B002B00DA0F331B11294AD361536B002B00DA0F331B11264A1362936B002B00DA0F331B11224A53625520FFF7B3FD224B1B7813F0080F26D0204A128897
:40070000B2F5617F03D923F008031C4A1370114BDB68184A91698B4208D00E4BD9601B4805F048FB164A138801331380094B1B69104AD1698B4208D0064B1961144805F093
:4007400039FB0F4A1388013313805020FFF784FDF8BD00BF0C81FF1F0A82FF1F24CC00007485FF1F0887FF1F3C84FF1F5E87FF1F2485FF1F8482FF1F3C85FF1F4583FF1F95
:400780005A83FF1F30CC000040CC000050CC000060CC00002DE9F04F85B07020FFF75CFD9E4B18889E4A1388184480B210809D4B1A889D4C2388134423809C4B19889C4AD5
:4007C00013880B4413809B4B19889B4A13880B44138000B2FFF740FD7020FFF73DFDB4F90000FFF739FD7020FFF736FD934B9B69002B28D1914BDB692BBB884B1B8813BB0C
:40080000884B1B88FBB98D4B1B6AE3B98B4B5B6ACBB9864B1B88B3B9864B1B889BB9884B5B7E032B06D10222854B5A768548012107F006FE814B0022DA641A655A659A6506
:4008400003F0E4FE06E37E4B5B7E022B0AD103227B4B5A767C48012107F0F2FD7B48002105F0A6F9754B93F85C30002B00F004817120FFF7F1FC764B1B7813F0080F12D0D6
:40088000744A1288B2F5617F03D923F00803704A13707148694B93F85C1005F089F96D4A138801331380654B986980EAE073A3EBE073602B05DD00206849694BC3E9000140
:4008C00013E00BF0ADFE04465D4B987E0BF0A8FE014620460BF0ACFF0BF082FA00225F4B0BF0D2FA5E4BC3E90001544BD86980EAE073A3EBE073602B05DD00205749584BB5
:40090000C3E9040113E00BF08BFE04464C4B987E0BF086FE014620460BF08AFF0BF060FA00224E4B0BF0B0FA4D4BC3E90401434B186A80EAE073A3EBE073602B05DD0020AF
:400940004649474BC3E9080113E00BF069FE04463B4B987E0BF064FE014620460BF068FF0BF03EFA00223D4B0BF08EFA3C4BC3E90801324B586A80EAE073A3EBE073602BF6
:4009800005DD00203549364BC3E90C0113E00BF047FE04462A4B987E0BF042FE014620460BF046FF0BF01CFA00222C4B0BF06CFA2B4BC3E90C01264B1B7813F0080F00F005
:4009C0001581244A1288B2F5617F03D923F008031F4A137023481A4B997E05F0E9F8174D2148A96905F0E6F91D4CD4E900010BF00DFD01461D4805F083FF1D48E96905F081
:400A0000D9F9D4E904010BF001FD0146194805F077FF104A138805331380E7E0F885FF1F2685FF1FDC83FF1F0686FF1FC084FF1F8A84FF1F5485FF1F0486FF1F8482FF1FB3
:400A40000C81FF1F70CC000078CC000080CC00004583FF1F5A83FF1F90CC0000000038402889FF1FA0CC0000B0CC0000C0CC0000D0CC0000E0CC0000B64EB0690BF0D0FDDA
:400A80000446B54B9F8B38B20BF0CAFD0546204629460BF0CDFEB14C0BF0A2F9C4E90001F0690BF0BDFD29460BF0C2FE0BF098F9C4E90401306A0BF0B3FD29460BF0B8FE14
:400AC0000BF08EF9C4E90801706A0BF0A9FD29460BF0AEFE0BF084F9C4E90C01A04BB3F900000BF09DFD9F4B1D6829460BF0ECFD0BF076F9C4E902019B4BB3F900000BF066
:400B00008FFD014628460BF0DFFD0BF069F9C4E90601964BB3F900000BF082FD014628460BF0D2FD0BF05CF9C4E90A01904BB3F900000BF075FD014628460BF0C5FD0BF09D
:400B40004FF9C4E90E018B4B1B7813F0080F4BD0894A1288B2F5617F03D923F00803854A1370864839B205F0CFF97A4D8448A96905F020F9794CD4E900010BF047FC014662
:400B8000804805F0BDFE8048E96905F013F9D4E904010BF03BFC01467C4805F0B1FE7C48704B196805F028FA7A486D4BB3F9001005F0AAF9D4E902010BF028FC0146764836
:400BC00005F09EFE7548684BB3F9001005F09CF9D4E906010BF01AFC0146714805F090FE654A13880B331380FFF71CFB614B1B7813F0080F10D0604A1288B2F5617F03D94E
:400C000023F008035B4A13706648012104F0D0FF594A1388013313804FF00008504BA3F800807120FFF718FB5F4DD5E900674A4CA07E0BF0C3F800225C4B0AF071FF024689
:400C40000B46304639460BF01FF90022584B0BF045FA0BF0B3FB80B2564B188094F8203004AA02EB830300B243F8100C3E4BA3F800807220FFF7F0FAD5E9046794F81A908D
:400C800048460BF09BF80022484B0AF049FF82468B463046394652465B460BF0F5F80022434B0BF01BFA0BF089FB80B2424B188094F8213004AA02EB830300B243F8100CD5
:400CC0002A4BA3F8008050465946D5E908230BF0DBF80022364B0BF001FA0BF06FFB80B2364B188094F8223004AA02EB830300B243F8100C1E4BA3F8008050465946D5E9B0
:400D00000C230BF0C1F80022294B0BF0E7F90BF055FB80B22A4B188094F8233004AA02EB830300B243F8100C94F824305B00013B009A02FB03F3074AD36492F85D305B00CE
:400D4000013B019901FB03F3136594F825305B00013B37E08482FF1F0C81FF1F6889FF1FF885FF1FA484FF1FDC83FF1FC084FF1F5485FF1F4583FF1F5A83FF1FF0CC000072
:400D800000CD00000CCD000020CD00002CCD000040CD000050CD000064CD000070CD000084CD000090CD00002889FF1F0000F03F000038400887FF1F3C84FF1F5E87FF1F5D
:400DC0002485FF1F029901FB03F3536592F85E305B00013B039901FB03F39365204B1B7813F0080F36D01F4A1288B2F5617F03D923F008031A4A13701B48494604F0D8FE6D
:400E00001A4DD5E900010BF001FB0146184805F077FD1848184BB3F9001005F075F8174C1748E16C04F0C6FFD5E904010BF0EEFA0146144805F064FD1348144BB3F90010C7
:400E400005F062F81248216D04F0B4FF054A1388053313807620FFF7FFF905B0BDE8F08F4583FF1F5A83FF1FA0CC00002889FF1FC0CC00009CCD00000887FF1F8482FF1FA0
:400E8000ACCD0000E0CC0000B8CD00003C84FF1FC8CD0000F8B56020FFF7DEF9274B5B7A13F0010F49D06120FFF7D6F9234B5B7A581E234E7168234FC0EBC0003A183954A3
:400EC00030685070001100F0F000C1F30321014491701D480188D1701C4C2588157145F30B1505F0F005C1F3032129445171184991F829509571F268C3EBC3017B187A54E2
:400F0000B1685970091101F0F001C2F303220A449A70104E3288DA700F4F3988197141F30B1101F0F001C2F303220A445A719D710023238003803B803380F8BD0C81FF1F4C
:400F40007485FF1F5486FF1F0686FF1F2685FF1F8482FF1F0486FF1F8A84FF1F70B5A020FFF77AF9794B93F82B301E2B40F08D80764B5B7A0F2B40F08880A120FFF76CF955
:400F80000023734A1360734A9366704B5B7E072B09D19922704B5A7001216E4BD9666F4807F04EFA12E06B4BDB6E33B966226A4B5A700122674BDA6608E05522664B5A7065
:400FC000644B1B6F13B90122624B1A6700231D461DE05AB2022A04DC5F49885C6049885413E059B25A4A14686AB2C4EBC40010445C4E365C5A484654062A04D10134544A9E
:401000001460002501E00135EDB20133DBB25AB23A2ADEDDA220FFF71FF908224C4B1A6000244C4B9C66224616E050B2484B1B6861B2C3EBC3030B444A4DEE5C4A4D2E5467
:40104000062905D142490B6801330B60002401E00134E4B20132D2B253B2372BE5DD002307E05AB2D11C4148405C414988540133DBB25AB21D2AF4DDA320FFF7EDF80023EA
:40108000334A1360334A536793663A4B1B7813F0040F17D0384B1B883A2B04D8374A11882F4AD1540EE0722B05D83B3B334A11882D4AD15406E0902B04D8733B2F4A11880F
:4010C0002B4AD154234B5B6F8BB908F0C1F900283BD0A420FFF7C0F821483B2108F086F9052009F0BFFD01221A4B5A6770BD012B10D108F0ADF940B3A520FFF7ADF81A4897
:40110000382108F073F9052009F0ACFD0222114B5A6770BD022B10D108F09AF9A8B1A620FFF79AF812481E2108F060F9052009F099FD0322074B5A6770BD032B05D108F07E
:4011400087F910B10422034B5A6770BD0C81FF1F5487FF1F8482FF1F4C87FF1F34CE0000E884FF1F5486FF1F1C86FF1FE883FF1FC884FF1F4C83FF1F4883FF1F4A83FF1F1B
:401180002DE9F04F83B03020FFF766F8494B00221A605A609A60DA601022474B5A61474B1B7813F0080F15D0454A1288B2F5617F03D923F00803414A13703E4C4148A1696D
:4011C00004F0F8FD4048E16904F0F4FD3C4A138802331380374B1F68D3F818B0CBEB07075E68D3F81CA0CAEB06069D68D3F82090C9EB0505DC68D3F82480C8EB0404BB1978
:401200002B441B19009340D02B4B988D80000BF003FA0190009B002BB8BF5B4218460BF0FFF9014601980BF003FB00904FF07E510BF0E8FB48B338460BF0F2F900990BF051
:4012400043FA0BF007FC58441A4F386030460BF0E7F9009E31460BF037FA0BF0FBFB5044786028460BF0DCF931460BF02DFA0BF0F1FB4844B86020460BF0D2F931460BF0A7
:4012800023FA0BF0E7FB4044F86007F04DFF28B9084B00221A6701229A6707E0054B9B6F23B108F057F80022024B9A6703B0BDE8F08F00BF8482FF1F0C81FF1F4583FF1F03
:4012C0005A83FF1F40CE000050CE00002DE9F0413F208B4B187009F065FC09F055FC894B00251D805D80C0229A8040F22232DA8040F222521A8140F295125A814FF4107216
:401300009A81DEE04220FEF7A7FF1DB93E227C4B1A7014E0012D03D13D22794B1A700EE0022D03D13B22764B1A7008E0032D03D13722734B1A7002E03F22714B1A70724B41
:401340001B7813F0200F04D070486D4B197804F02FFC6B4B187809F025FC2846FEF77CFF0026AAE0062E04DD0A2009F07BFC062700E0374609F080FB642407E009F0A0FB16
:4013800009F07AFB002C00F0A580013C10F0200FF4D109F06BFB642407E009F09FFB09F065FB002C00F09980013C10F0100FF4D0012E31DD062E08D1524B33F8170000EB2A
:4013C000C72040F0100080B205E04E4B33F8170000EBC72080B209F055FB09F047FB642407E0052009F03EFC09F040FB002C77D0013C10F0010FF4D009F056FB642407E014
:40140000052009F02FFC09F04FFB002C6BD0013C0028F5D009F042FBF80280B280F4004009F030FB09F022FB642407E0052009F019FC09F01BFB002C58D0013C10F0010FED
:40144000F4D009F031FB642407E0052009F00AFC09F02AFB002C4CD0013C0028F5D009F01DFB8046642405E0052009F0FBFB002C42D0013C4FF6FF739845F5D0C8F30A036C
:4014800007EBC502224921F81230012E11DD062E08D11C4A32F8172042F0100293420CD101360AE0174A32F81720934205D1013603E00BB9013600E00136072E7FF752AF60
:4014C0000135144B93F82630AB423FF71BAF0020BDE8F0810120BDE8F0810120BDE8F0810120BDE8F0810120BDE8F0810120BDE8F0810120BDE8F0810120BDE8F08100BF13
:401500003685FF1F4485FF1F0A82FF1F68CF0000C886FF1F0C81FF1F2DE9F0413F20994B187009F03FFB09F02FFB974B00221A805A80964B1B7813F0200F04D09448914BE1
:40154000197804F035FB002613E1904B1B7813F0200F03D08F48B1B204F02AFB4220FEF77BFE1EB93E22874B1A7014E0012E03D13D22844B1A700EE0022E03D13B22814BA9
:401580001A7008E0032E03D137227E4B1A7002E03F227C4B1A707B4B187809F003FB3046FEF75AFE794B1B7813F0200F04D07A48744B197804F0FCFA0027D6E009F05CFADF
:4015C000054664240DE009F07BFA09F055FA054634B97248012106F033FF0120BDE8F081013C15F0200FEED1684B1B7813F0200F03D06B48A9B204F0DBFA09F037FA6424FE
:401600000CE009F06BFA09F031FA34B96548012106F016FF0120BDE8F081013C10F0100FEFD05A4B1B7813F0200F03D05E48A9B204F0BEFABDB24FEAC5281FFA88F888F48F
:401640000048404609F01EFA09F010FA64240AE009F00CFA34B95548012106F0F1FE0120BDE8F081013C10F0010FF1D0474B1B7813F0200F03D04E48414604F099FA09F07A
:4016800013FA64240AE009F00FFA34B94948012106F0D6FE0120BDE8F081013C0028F2D009F0FCF90446642308E033B94248012106F0C6FE0120BDE8F081013B4FF6FF72BF
:4016C0009442F2D0314B1B7813F0200F03D03B48214604F06DFA07EBC603C4F30A02384921F81320374B93F82630022B25D8274B1B7813F0200F03D03348294604F058FAE7
:401700003FB906F1110304F4707292102F49CA542AE006F1110204F0C00004F480639BB25B122A4903EB2013885C03448B5406F1130304F03F04CC5416E03FB906F111033C
:4017400004F4707292102149CA540DE006F1110204F0C00004F48064A3B25B121B4903EB2013885C03448B540137012F7FF726AF0136144B93F82630B3423FF7E6AE002084
:40178000BDE8F0813685FF1F4485FF1F0A82FF1F60CE000074CE000084CE000098CE0000A8CE0000BCCE0000CCCE0000E0CE0000F0CE000004CF000014CF000024CF0000D2
:4017C000C886FF1F0C81FF1F38CF0000E883FF1FF8B53F20994B187009F0E4F909F0D4F9974B1B7813F0400F03D09648002104F0DFF900260CE1924B1B7813F0400F03D021
:401800009148B1B204F0D4F94220FEF725FD1EB93E228A4B1A7014E0012E03D13D22874B1A700EE0022E03D13B22844B1A7008E0032E03D13722814B1A7002E03F227F4B99
:401840001A707F4B1B7813F0400F04D07F487B4B197804F0ADF9794B187809F0A3F93046FEF7FAFC0025CFE0754B1B7813F0400F03D07748A9B204F09BF909F0FDF86424F5
:4018800007E009F01DF909F0F7F8002C00F0C880013C10F0200FF4D109F0E8F8642407E009F01CF909F0E2F8002C00F0BB80013C10F0100FF4D0012D3BDD664B33F815409E
:4018C00004EBC524A4B25E4B1B7813F0400F03D06148214604F06CF9204609F0D3F809F0C5F8642408E0052009F0BCF909F0BEF8002C00F09980013C10F0010FF3D009F0E0
:40190000D3F8642408E0052009F0ACF909F0CCF8002C00F08B80013C0028F4D009F0BEF80146474B1B7813F0400F02D04B4804F03FF9EC02A4B284F40044204609F0A2F8A5
:401940003F4B1B7813F0400F03D04548214604F02FF909F08BF8642407E0052009F082F909F084F8002C63D0013C10F0010FF4D009F09AF8642407E0052009F073F909F02F
:4019800093F8002C56D0013C0028F5D009F086F807462B4B1B7813F0400F03D03148394604F006F9642405E0052009F05BF9002C42D0013C4FF6FF739F42F5D0C7F30A01C7
:4019C00005EBC603284A22F813101D4B1B7813F0400F02D0254804F0EBF8012D0BDD1D4B33F8152005EBC6031F4931F813309A420AD1013508E005EBC6031B4A32F8133051
:401A00000BB9013500E00135062D7FF72DAF0136174B93F82630B3423FF7EDAE0020F8BD0120F8BD0120F8BD0120F8BD0120F8BD0120F8BD0120F8BD0120F8BD3685FF1F49
:401A40000A82FF1F48CF000054CF000064CF000074CF00004485FF1F80CF000094CF0000A8CF0000BCCF0000C886FF1FD0CF00000C81FF1F000000002DE9F04F97B02020DF
:401A8000FEF7EAFB734B93F82B3093B9714B5B7A082B0ED12120FEF7DFFB6E4C206BFEF7DBFB236B022B04D92F20FEF7D5FBFFF767FB07F0C1FC002872D02220FEF7CCFB79
:401AC000654C0023E367654807F0CEFCE067644B1B78984208DD2320FEF7BEFB94F87C305F4A13705F4A13705C4B1B78022B2BD15A4A5278052A27D1584A92780E2A23D1C1
:401B0000564A527B032A1FD1574B1B7813F0100F03D05648002104F04BF82920FEF79CFB002305E04D49885C514988540133DBB25AB24A4989788A42F4DB474BDA6FC3F89C
:401B400080200022DA6628E0542B26D1434B5A789B789A4221D1414BDB78162B1DD1424B1B7813F0100F03D04248002104F020F82A20FEF771FB002306E05AB23749885CA6
:401B80003D4988540133DBB25AB23F2AF5DD324BDA6FC3F884200022DA6609F08DF80AE02C4B5B7E072B02D109F086F803E0294A136B013313632420FEF74EFB264BDB6E46
:401BC000002B40F0C1852520FEF746FB224BD3F88430402B09D0204BD3F880300D2B04DD264A137843F0020313701B4BD3F88020234882FB00011144D317C3EBE103C3EBAB
:401C0000C303A2EB430323B11C490B7843F004030B70292A04DD19490B7843F008030B70184B1B7813F0100F00F01181164A127812F0010F2ED023F00803124A1370134BD9
:401C40001B78012B32D10023104A1370104A13802CE000BF0C81FF1F8482FF1FB485FF1F0A87FF1F6E85FF1F0A82FF1FE4CF00004884FF1FFCCF00000C87FF1F0C84FF1F93
:401C8000932449924583FF1F4C83FF1F4683FF1F5A83FF1F8E4B1B78012B07D18D4804F02FF800238A4A13708B4A1380052008F0D9FF8A4B5B7E023BDBB2012B07D8884B50
:401CC0001A88884B1A605A6000229A60DA60864B1B7813F0080F20D07F4A1288B2F5617F03D923F00803804A1370804804F008F87C4C7F48216804F05DF87E48616804F0A6
:401D000059F87D48A16904F055F87C48E16904F051F8714A13880533138010226F4B5A61704B1E68D3F818B0CBEB06065D68D3F81CA0CAEB05059F68D3F82090C9EB07074A
:401D4000DC68D3F82480C8EB040473193B441B19009348D0614B988D93F8263000FB03F00AF05AFC0190009B002BB8BF5B4218460AF056FC014601980AF05AFD01904FF005
:401D80007E510AF03FFE70B330460AF049FC01990AF09AFC0AF05EFE5844DFF848B1CBF8000028460AF03CFC01990AF08DFC0AF051FE5044CBF8040038460AF031FC019FF0
:401DC00039460AF081FC0AF045FE4844CBF8080020460AF025FC39460AF076FC0AF03AFE4044CBF80C00404B1B7813F0080F25D0394A1288B2F5617F03D923F008033A4A19
:401E000013703F4803F07CFF3E48314603F0D2FF3D48294603F0CEFF304C3C4894F8261003F0C6FE3A48A18D03F0C2FE3948019904F0E2F8284A138806331380294A002381
:401E4000C2F880300121D166244A136367E10E2A40F06581304B1B7813F0100F03D02F48012103F0A5FE2620FEF7F6F9052008F0F9FE2B4B197B1B4B83F82A10264B1B788C
:401E800013F0080F02D0274803F092FE134B5B7E023BDBB2012B47D8214B93F90400114A597901EB0021116093F90600D97901EB0021516093F90800597A01EB002191604A
:401EC00093F90A10DB7A03EB0123D36032E000BF4683FF1F10D000005A83FF1F0C81FF1FD63500208482FF1F4583FF1F28D0000038D000004CD00000B0CC000060D0000067
:401F000070D0000080D0000094D00000ACD00000BCD00000CCD000000A82FF1FE4CF00004884FF1FDCD00000CB4B00221A605A609A60DA60C94B1B7813F0020F5ED0C64B7C
:401F4000D3F8882019688A4211D0C3F888104C238DF8383046238DF839303A238DF83A300DF13B0006F030FB0EA803F0C9FEBA4BD3F88C2059688A4211D0C3F88C105223EE
:401F80008DF8383046238DF839303A238DF83A300DF13B0006F018FB0EA803F0B1FEAE4BD3F8902099688A4211D0C3F890104C238DF8383052238DF839303A238DF83A306F
:401FC0000DF13B0006F000FB0EA803F099FEA24BD3F89420D9688A4210D0C3F8941052238DF838308DF839303A238DF83A300DF13B0006F0E9FA0EA803F082FE984B93F87A
:4020000034300BB1FEF73EF8954B5B7E023BDBB2012B01D9FFF7B4F81022914B5A618E4B19689A69C2EB01085F68DA69BF1A9E681A6AB61ADD685B6AED1A8A4B1B7813F095
:40204000100F03D08848022103F0B2FD08EB070333445C195BD0824B988D93F8263000FB03F00AF0D9FA814684EAE470A0EBE4700AF0D6FA014648460AF0DAFB04464FF0D8
:402080007E510AF0BFFC002841D02720FEF7E4F8744B1B7813F0100F03D07348032103F087FD40460AF0BCFA21460AF00DFB0AF0D1FCDFF8A481D8F818301844C8F8000018
:4020C00038460AF0ADFA21460AF0FEFA0AF0C2FCD8F81C301844C8F8040030460AF0A0FA21460AF0F1FA0AF0B5FCD8F820301844C8F8080028460AF093FA21460AF0E4FAFB
:402100000AF0A8FCD8F824301844C8F80C00524A0023C2F880300121D166514A13634E4BD3F88430402B40F00F832820FEF794F8072008F043FD4D4B1A79494C02F00301FF
:402140002172C2F38001444E86F85C10C2F3C00184F83410C2F300112176C2F3401184F83510C2F380120132520084F8262093F905109A7902EB0122A28393F907101A7A12
:4021800002EB0122A2855A7A02F0030184F82010C2F3810184F82110C2F3011184F82210920984F823209A7A02F003012171C2F381016171C2F30111A1719209E271DA7AFF
:4021C00002F0010184F82410C2F3800186F85D10C2F3001184F82510C2F3801186F85E10C2F340012170C2F3C0017174C2F340116170D209B2741A7BB28293F90D109A7B30
:4022000002EB0122E28693F90F001A7C02EB002080B2174A108093F911109A7C02EB012292B20092228793F913101A7D02EB012291B20191618793F915A09A7D02EB0A2AE7
:402240001FFA8AFA0B4AA2F800A093F917901A7E02EB092910E000BF8482FF1F4583FF1F0C81FF1F0A82FF1FE4CF00000C87FF1F6C85FF1FCE83FF1F1FFA89F9C44AA2F815
:40228000009093F919809A7E02EB08281FFA88F8C04AA2F8008093F91B701A7F02EB0727BFB2BD4A178093F91DB09A7F02EB0B2B1FFA8BFBB94AA2F800B093F91F1093F8D6
:4022C000202002EB012295B2B54A0295158093F822E0B44ACDF80CE0A2F800E093F9231093F8242002EB01221FFA82FEAE4ACDF810E0A2F800E093F9251093F8262002EB89
:4023000001221FFA82FEA94ACDF814E0A2F800E093F9271093F8282002EB01221FFA82FEA34ACDF818E0A2F800E093F9291093F82A2002EB01221FFA82FE9E4ACDF81CE06C
:40234000A2F800E093F92B1093F82C2002EB01221FFA82FE984ACDF820E0A2F800E093F92D1093F82E2002EB01221FFA82FE934ACDF824E0A2F800E093F92F1093F830206A
:4023800002EB01221FFA82FE8D4ACDF828E0A2F800E093F9311093F8322002EB01221FFA82FE884ACDF82CE0A2F800E093F9331093F8342002EB01221FFA82FE824ACDF8FE
:4023C00030E0A2F800E093F9355093F8362002EB0525ADB27D4A158093F8372093F838E0120102EB1E127A498A8002F0EF024FF0020C6CF346126FF3C7120A714FEA0E2EFB
:4024000093F839200EF4706E9644A1F806E093F83AE093F83B204FEA0E1E0EEB121EA1F808E0120293F83CE002F4706272444A8193F83D2093F83EE0130103EB1E138B8111
:402440000AF0EAF863490AF0F3F90D90E06350460AF0E2F860490AF0EBF98246206448460AF0DAF85C490AF0E3F9606440460AF0D3F858490AF0DCF9584B186038460AF0EA
:40248000CBF854490AF0D4F9554B186058460AF0C3F850490AF0CCF9524B186002980AF0BBF84D490AF0C4F94F4B186003980AF0B3F849490AF0BCF94C4B186004980AF051
:4024C000ABF845490AF0B4F9494B186005980AF0A3F840490AF0ACF9464B186006980AF09BF83C490AF0A4F98046434B186007980AF092F837490AF09BF9404B18600898AE
:402500000AF08AF833490AF093F983463C4B186009980AF081F82F490AF08AF9394B18600A980AF079F82B490AF082F9364B18600B980AF071F827490AF07AF9334B186088
:402540000C980AF069F823490AF072F90746304B186028460AF060F81E490AF069F92D4B1860404609F03CFC804689462A4DC5E90489584609F034FCC5E90201C5E90E891D
:40258000C5E90C01C5E91889C5E9200146E000BF8C84FF1FB484FF1F1C84FF1F3885FF1F2C85FF1FD083FF1F2684FF1FB085FF1FA284FF1F0A84FF1F4684FF1F4085FF1F2A
:4025C000D883FF1F0C86FF1F8884FF1FF485FF1F4485FF1F0000C84200007A444084FF1F3084FF1F9884FF1FC483FF1FC486FF1F1084FF1FAC84FF1F7085FF1F3085FF1FA1
:40260000B084FF1F3484FF1F2C84FF1F3884FF1FBC84FF1F1086FF1F6081FF1FC5E92289C5E91601384609F0DBFB80468946C5E9068907F1004009F0D3FBC5E90801C5E918
:402640001089C5E91201C5E91A89C5E91C01C5E92489C5E926010D9809F0C2FB02460B463DA1D1E9000109F039FD8046894694F8480009F0A3FB02460B464046494609F051
:4026800003FC80468946504609F0AAFB02460B464046494609F0F8FB31A3D3E9002309F0F3FB09F0B3FE304B1860009809F0B4FF09F096FB00222D4B09F0E6FB80468946AA
:4026C000019809F07BFB02460B464046494609F005FD09F09BFE264B1860002384F8283084F8273084F82A3084F829300122F2662363C6F88430FFF76BF878B196F89830EE
:4027000043F0040386F8983006226276072008F055FA1848012105F093FE02E0052008F04DFA4FF47A7008F09DFA134B5B7E042B0AD0062B08D0072B06D002220E4B5A7603
:402740000E48012105F07CFE2020FDF785FD17B0BDE8F08FAFF30080B81E85EB51B8AE3FCAE2FE23D3210940A884FF1F00004E40A484FF1FF0D000000C81FF1FF8D0000018
:4027800010B582B0894B1B78002007F0E5FE002008F04EFC08F04AF9044608F0B9F800EB840407F027FE00EB0410C4B2F020FDF753FD05F085FB7E4B1B7813F0010F10D015
:4027C0007C48002103F0F4F97B48B0F89C107B4B93F82B205B7A90F8A0000090784806F027F8764B93F82B301F2B4BD1724BD3F89C30B3F5007F37D16D4B1B7813F0040F0E
:4028000003D07048002103F0D3F9012007F0A4FE694B0022C3F89C2068494A7293F8A0300E2B0CD9644B83F8A020614B1B7813F0100F08D06448114603F0BAF903E001335D
:402840005D4A82F8A0305C4B93F8A03013F0030F02D1012008F0ECFB574B93F8A130022B05D108F029FA02E05B09544A5372524AD2F89C300133C2F89C3000224F4B83F895
:402880002B200BE001334D4A82F82B304A4AD2F89C300133C2F89C3072B662B6F120FDF7DBFC454BD3F89C30B3F5007F0BD1404B1B7813F0200F03D04448002103F078F9E4
:4028C000002007F013FE02223B4BC3F8A4203B4B93F82B3013F0070F1CD1354B1B7813F0080F03D03A48002103F062F9304B1B7813F0400F03D03748002103F059F9FDF718
:40290000BBFC2B4B1B7813F0400F03D03248002103F04EF9F220FDF79FFC0022274B1A63234B1B7813F0400F03D02C48114603F03FF9FFF7A1F81E4B1B7813F0400F03D05F
:402940002748002103F034F9F020FDF785FCF320FDF782FC164B1B7813F0400F03D02148002103F025F9FEF7F9FA114B1B7813F0400F03D01C48002103F01AF9F020FDF75E
:402980006BFC2046FDF768FC094B1B7813F0020F09D00A4B1548084AB2F89C105A7A93F82B3003F01FFA02B010BD00BF0F4F00405483FF1F00D100008482FF1F0C81FF1F8D
:4029C00008D1000014D1000028D1000038D1000054D1000068D100007CD100008CD10000A0D10000B0D10000C4D10000D4D100002DE970430024724B1C70724B1C70724EA4
:402A000003223263714DAC61EC612C626C62704B1C715C719C71DC711C725C729C72DC726C4B1C806C4B1C806C4B1C806C4B1C806C4B0221197099215970912199706A4B9F
:402A400083F820200122727685F8A84085F89840664A1470664A1470664A1470664A1470DC761C775C779C77DC77644B187800F03F00187008F096F885F85F4085F8614032
:402A800085F8634085F8654096F8270095F8623003EB400096F8283003EB400095F8603003EB400095F8673003EB4000C0B2544C207006F0FFF9B27E524B1A70B27E1033C7
:402AC0001A7095F85F2010331A7095F8612010331A7096F8290095F8663003EB400096F82A3003EB400095F8643003EB400095F8673003EB4000C0B2207008F06BF8B27E4C
:402B0000414B1A70B27E10331A7095F8632010331A7095F8652010331A70308FC0EB00108000738F90FBF3F009F07AFD374B1860374C384B1C60384A384B1A60384A394BEB
:402B40001A60F06B09F04CF902460B4618A1D1E9000109F0C3FA8046894696F8480009F02DF902460B464046494609F08DF980468946306C09F034F902460B4640464946C3
:402B800009F082F90CA3D3E9002309F07DF909F03DFC254B18604FF07E52244B1A60244B1C60244A244B1A6001F030FDBDE87083B81E85EB51B8AE3FCAE2FE23D321094054
:402BC0000A87FF1F5C87FF1F0C81FF1F8482FF1F4884FF1FF885FF1FDC83FF1FC084FF1F5485FF1F4C87FF1FE883FF1F2A85FF1F0C84FF1F2E85FF1F6E85FF1F3685FF1F4B
:402C00001586FF1F0A64004003640040A484FF1F000040407085FF1F0000A041B084FF1F00004041BC84FF1FA884FF1F3085FF1F3484FF1F000020411086FF1FAFF3008071
:402C400010B5C020FDF708FB07F010FE064C84F84900C120FDF700FB94F84900FDF7FCFAC620FDF7F9FA10BD0C81FF1F30B583B0C020FDF7F1FAC620FDF7EEFA002414E017
:402C80000DF1060007F008FE234D85F84900012007F0E8FFC120FDF7DFFA95F84900FDF7DBFA0134E4B2642C04D81B4B93F84930002BE5D1BDF80620184B1A80C220FDF761
:402CC000CBFA154B93F8493053B9144B1B8827339BB2B22B17D98F22104B1A80202213E0FF2B04D18F220D4B1A8010220CE0102B04D18F22094B1A80402205E08F22074B95
:402D00001A80802200E02022054B1A70C320FDF7A3FA03B030BD00BF0C81FF1F6085FF1F2A85FF1F10B50C4607F02AFD142007F099FF07F0E9FC002007F0F2FC78B107F014
:402D400001FD0146002801DA00F10F01C1F30711074B1970074B187803F068F902E0FE22034B1A702046FDF777FA014B187810BD5E85FF1FCD83FF1F2DE9F0410C461F4672
:402D80001AB11646042A02D802E0012600E0042607F008FF84F0800008F0C2F8002404E0002008F0BDF80134E4B2B442F8D308F0ABF80546642408E0052007F053FF08F010
:402DC000A3F80546DCB10134E4B215F0010FF3D0B84608F0B1F80B4BD855002407E008EB040708F0A9F8074BD8550134E4B2B442F5D3022007F036FF2846BDE8F0810120FE
:402E0000BDE8F081C883FF1FF8B5BD4B5B7A1BB90021BC4A82F8A91003F00302032A00F27F83DFE812F0040066020D033803D020FDF712FAB24B5B7E072B04D1B2480121D9
:402E400005F0FEFA6CE3AF4C94F8A930013384F8A930D120FDF700FAFFF708FFAB4B1A78B4F8AA3013449BB2A4F8AA30A44A527A0B2A31D9C3F38703A54A93750022A4F83B
:402E8000AA2094F8A930032B1CD9A24B1B78202B18D094F8A83043F0400384F8A83094F8AC300133DBB284F8AC30072B14D90722934B5A76022007F081FE9748012105F0DA
:402EC000BFFA2DE38F4B93F8A82022F0400283F8A820002283F8AC20D720FDF7BDF9FFF7AFFED220FDF7B8F905208C4B1870B1218B4B1970FFF716FF824AB2F8AE30184491
:402F000080B2A2F8AE007E4B5B7A0B2B31D9C0F387007F4B587513460022A3F8AE2093F8A930032B1BD91D2819D8764A92F8A83043F0010382F8A83092F8B0300133DBB2F2
:402F400082F8B030072B14D907226D4B5A76022007F034FE7348012105F072FAE0E2694B93F8A82022F0010283F8A820002283F8B020DF20FDF770F9614B5B7A0B2B2BD9F9
:402F8000604B93F8A930032B1CD908F049F8C8B15C4A92F8A83063F07F0382F8A83092F8B1300133DBB282F8B130072B14D90722534B5A76022007F001FE5B48012105F0EF
:402FC0003FFAADE24F4B93F8A82002F07F0283F8A820002283F8B120D320FDF73DF9484B5B7E062B04D15148012105F029FA97E2434B5B7A0B2B3AD907F0E6FD10F0040F84
:403000002BD1404A92F8A83043F0080382F8A83092F8B2300133DBB282F8B230072B0ED9374A527E042A0AD10622354B5A76022007F0C4FD3E48012105F002FA70E2032BB1
:4030400015D92F4B5B7E042B11D004222C4B5A763848012105F0F4F962E22A4B93F8A82022F0080283F8A820002283F8B220244B93F82630022B7BD1D420FDF7EDF8062078
:40308000264B1870B421264B1970FFF74BFE1D4AB2F8B430184480B2A2F8B400184B5B7A0B2B40F2D280C0F38700194BD87300221A74144BA3F8B42093F8A930032B4CD928
:4030C0001D284AD80F4A92F8A83043F0020382F8A83092F8B6300133DBB282F8B630072B2CD9074A527E042A28D10622044B5A76022007F063FD1048012105F0A1F90FE25A
:403100000C81FF1F8482FF1FE4D100006085FF1FE883FF1F2A85FF1FF0D10000CD83FF1FCC83FF1FFCD1000008D2000014D200001CD2000024D200002CD20000032B40F247
:403140008480B24B5B7E042B7FD00422AF4B5A76AF48012105F074F977E0AE4B93F8A82022F0020283F8A820002283F8B6206CE0D520FDF771F8A84E06203070A74DB421FA
:403180002970FFF7CFFDA34CB4F8B4301844A4F8B40007203070B5212970FFF7C3FDB4F8B830184480B2A4F8B800984B5B7A0B2B4BD9B4F8B420C2F387029949CA73C0F385
:4031C000870008740021A4F8B410A4F8B81094F8A930032B2FD91D2A01D91D282BD88D4A92F8A83043F0060382F8A83092F8B6300133DBB282F8B630072B0ED9834A527ED5
:40320000042A0AD10622814B5A76022007F0D6FC8448012105F014F982E1032B15D97B4B5B7E042B11D00422784B5A767E48012105F006F909E0774B93F8A82002F0F90238
:4032400083F8A820002283F8B620D620FDF704F86E4B5B7A0B2B40F2638107F0A9FC0446FEF75AF907F0C2FC10F0010F33D1694B93F8A930032B2ED9664A92F8983043F05F
:40328000040382F8983092F8BA300133DBB282F8BA30072B11D95D4A527E042A0DD106225A4B5A76022007F089FC6048012105F0C7F8204607F076FC32E1032B15D9534B38
:4032C0005B7E042B11D00422504B5A765848012105F0B6F809E04F4B93F8982022F0040283F89820002283F8BA20204607F05AFC16E1D820FCF7B0FF4E4F6F263E703046CD
:403300003B2104220023FFF737FD4B4D2A786B7803EB0223494C1BB2226813442360AA78EB7803EB02231BB26268134463603E7030463F2102220023FFF71EFD2A786B781E
:4033400003EB02231AB2A3681344A3602F4A527A0B2A13D9214620688412314AD47080101071486884125471801090719812D0719B10137200230B604B608B60D920FCF787
:403380006BFF2C4F6F263E703046432104220023FFF7F2FC284D2A786B7803EB0223274C1BB2E2681344E360AA78EB7803EB02231BB22269134423613E7030464721022232
:4033C0000023FFF7D9FC2A786B7803EB02231AB26369134463610D4A527A0B2A40F2A0802146E06884120E4A54728010907208698412D47280101073981250739B10937377
:403400000023CB600B614B618AE000BF0C81FF1F34D200008482FF1FCD83FF1FCC83FF1FE883FF1F3CD2000044D200004CD2000054D200003685FF1FC883FF1F8485FF1FF3
:403440000B2B11D9DA20FCF707FF01203E4B187097213E4B1970FFF765FC3D4A138818443C4B1876002313803B4B5B7A0B2B57D9DB20FCF7F1FE0320334B18709921334B9E
:403480001970FFF74FFC354A13881844314B98760023138044E00B2B11D9DC20FCF7DCFE0024294B1C709821284B19702046FFF739FC2B4A13881844264BD8751480264BE6
:4034C0005B7A0B2B11D9DD20FCF7C6FE02201E4B187098211D4B1970FFF724FC214A138818441C4B587600231380DE20FCF7B4FE0420154B18709A21144B1970FFF712FCAD
:40350000194A1388184480B21080134B5B7A0B2B06D9C0F387000F4BD8760022124B1A800D4B5B7A0B2B0AD90A4B0B4A527E1A770E4A92F89810597792F8A8209A77D0202E
:40354000FCF78AFEF8BD00BFCD83FF1FCC83FF1F5087FF1FE883FF1F0C81FF1FA084FF1FF685FF1F4484FF1FB285FF1F8482FF1F38B507F0CFFC642406E007F0E3FC07F034
:40358000C9FCB4B10134E4B200F0200000F0FF050028F2D107F0B8FC642406E007F0E0FC07F0B2FC3CB10134E4B210F0100FF5D002E0012500E00225284638BD70B5064617
:4035C0000D4614461D4B93F90030002B0BDA1C48314602F0EDFA1B48294602F0E9FA1A48214602F0E5FA304607F0DCFA284607F097FC204607F094FC07F086FC0546642481
:4036000013E0052007F02EFB07F07EFC054654B90A4B93F90030002B0EDA0C48A9B202F0C7FA012070BD0134E4B215F0010FE8D0FFF79EFF284670BD012070BD0A82FF1FF7
:403640005CD2000070D2000084D2000098D2000038B5274C6F252570284607F0A3FA07F0C3FCFFF785FF2078752101220023FFF783FB20781A2100223F23FFF79FFF142058
:4036800007F0F0FA20781C2100221F23FFF796FF142007F0E7FA20786B2100222B46FFF78DFF142007F0DEFA207837210222FF23FFF784FF142007F0D5FA20781B21182266
:4036C0001346FFF77BFF142007F0CCFAFFF750FF2078752101220023FFF74EFB054B5B78054A11680B441360FFF742FF38BD00BF3685FF1FC883FF1F8485FF1F38B56B4877
:40370000002103F0D9FEFFF79BFA6948002103F0D3FEFFF76DF962B606F010FF07F06CF906F0B6FE0320002107F0A6FA0020014605F0C2FC5F48002103F0BEFE002006E08C
:4037400005F07AFE642007F08DFA05F0EDFC0028F6D05948002103F0AFFE05F0FBFD0222564B83F8A120564806F02AFE5548002103F0A2FE07F068F84FF47A7007F072FACA
:403780005148002103F098FE504D00242C7006F0E7FF287806F0F4FF06F0A8FF06F022FF4B48214603F088FEFFF760FA494B1A78494B9A752DE0052C15D9404A92F8A830AC
:4037C00043F0400382F8A8300721444A5176424A11779377022007F0F1F94148012104F02FFE012038BDFFF72BFA47F2305007F039FA47F2305007F035FA47F2305007F0F4
:4038000031FAFFF733FA334B1A78334B9A750134E4B2314B9B7D782BCDD8324B1B78202BC9D10520294B187093212F4B1970FFF779FA294B587500242FE0052C15D91F4AC4
:4038400092F8A83043F0010382F8A8300721234A5176214A11779377022007F0AFF92348012104F0EDFD012038BD47F2305007F0F9F947F2305007F0F5F947F2305007F0D2
:40388000F1F90520114B18709321174B1970FFF749FA114B58750134E4B20F4B5B7D1D2BCBD9FFF7D5FE002038BD00BFA8D20000B8D20000C8D20000D8D200008482FF1F22
:4038C00081270000E8D20000F8D20000CD83FF1F08D300006085FF1FE883FF1F0C81FF1F18D300002A85FF1FCC83FF1F24D300002DE9F041B448002103F0DEFD022007F0B5
:403900005DF9FFF7FBFE044618B10A30C0B2BDE8F081AE48002103F0CFFD062007F04EF947F2305007F09EF947F2305007F09AF947F2305007F096F9A54B93F82630022B6C
:403940003FD1A448002103F0B7FD0620A24B18709921A24B1970FFF7E5F900252EE0022D16D99F4A92F8A83043F0020382F8A8300421974A51769B4A11779377072007F05C
:403980001DF99948012104F05BFD1420BDE8F08147F2305007F066F947F2305007F062F947F2305007F05EF906208B4B187099218A4B1970FFF7B6F90135EDB21D28CED935
:4039C0005FE08A48002103F077FD834F06203870824D99212970FFF7A5F90646072038709A212970FFF79EF9002546E0022D24D91D2E06D87A4A92F8A83043F0020382F864
:403A0000A8301D2806D8764A92F8A83043F0040382F8A83004226E4B5A76724B1A77704A92F8A8209A77072007F0C8F87048012104F006FD1420BDE8F08147F2305007F01A
:403A400011F947F2305007F00DF947F2305007F009F9DFF88481062088F800005F4F99213970FFF75FF90646072088F800009A213970FFF757F90135EDB21D2EB6D91D2862
:403A8000B4D9072007F09AF84FF47A7007F0EAF800252DE0022D1DD9514A92F8A83043F0010382F8A8300422494B5A76FDF734FD30B14B4A92F8983043F0040382F89830F3
:403AC000072007F07BF84B48012104F0B9FC2820BDE8F08147F2305007F0C4F847F2305007F0C0F847F2305007F0BCF80135EDB207F07CF810F0010FCCD0002533E0022DEE
:403B000023D9374B93F8A82042F0010283F8A82093F8982042F0040283F8982004222C4B5A76FDF7F9FC30B12D4A92F8983043F0040382F89830072007F040F82E48012124
:403B400004F07EFC3220BDE8F08147F2305007F089F847F2305007F085F847F2305007F081F80135EDB2FDF7B1FB0028C7D1052007F024F807F03AF810F0010F1DD1FDF760
:403B8000CBFC30B1164A92F8983043F0040382F89830134A92F8A83043F0010382F8A83004220B4B5A76022007F008F81348012104F046FC3C20BDE8F081072006F0FEFF43
:403BC0002046BDE8F08100BF30D3000040D300000C81FF1F50D30000CD83FF1FCC83FF1F8482FF1FE883FF1F60D3000068D3000078D3000080D3000088D3000090D3000054
:403C000010B50020FCF728FB6548002103F054FC04F02AFC04F078F96248002103F04CFC00F082FDC0B210B19920FCF715FBFFF75FFE5D48002103F03FFC5C4B5B7E072B9C
:403C400005D0FEF7FDFF0022594B83F8A120594B564A527E1A77564A92F89810597792F8A8209A7700F03EFE00F048FE04F07CF807F022F800F00EFE08B904F06BF900F0F2
:403C800013FE08B904F076F900F018FE08B904F081F900F01DFE08B904F08CF91020FCF7DBFA434BD3F8A430022B72D14248002103F002FC1120FCF7CFFA3D4B1868FCF73C
:403CC000CBFA1120FCF7C8FA384B93F82B300A3B152B59D8DFE803F00B58585858582A5858583758585844585858585858491220FCF7B2FAFCF7F0FB1320FCF7ADFA2D4B7B
:403D00002A4A527E1A772A4C94F898205A7794F8A8209A77FCF73EFD1420FCF79DFA1520FCF79AFA0023C4F8A43035E01720FCF793FAFDF7AFF81020FCF78EFA00221C4BC8
:403D4000C3F8A42028E02020FCF786FAFFF75CF81020FCF781FA0022154BC3F8A4201BE00022134BC3F8A42016E0104B5B7A0C2B02D11E20FCF770FA1020FCF76DFA0022AF
:403D80000B4BC3F8A42007E00022094BC3F8A42002E00A2006F066FF1020FCF75DFA63E798D30000A4D30000B0D300000C81FF1F8482FF1FE883FF1FBCD30000F0B587B0FF
:403DC000624BD3E9004520462946614BD3E9062308F0E0FA38B15F4BD3F8F43000200021C3E9000117E020462946594BD3E9082308F0C6FA38B1574BD3F8F43000200021A3
:403E0000C3E9000107E0534BD3F8F430524AD2E90001C3E900014D4BD3E90445204629464B4BD3E9102308F0B5FA38B1494BD3F8F43000200021C3E9020117E02046294696
:403E4000434BD3E9122308F09BFA38B1414BD3F8F43000200021C3E9020107E03D4BD3F8F4303D4AD2E90201C3E90201394BD3F8F410D1E90067384BD3E90045CDE900459D
:403E8000D1E90201CDE90201D3E90223CDE90423022032463B4604F0D7F92C4BD3E90845204629462A4BD3E91A2308F073FA38B1284BD3F8F43000200021C3E9040117E093
:403EC00020462946224BD3E91C2308F059FA38B1204BD3F8F43000200021C3E9040107E01C4BD3F8F4301C4AD2E90401C3E90401164BD3E90C4520462946154BD3E924234B
:403F000008F048FA38B1134BD3F8F43000200021C3E9060117E0204629460D4BD3E9262308F02EFA38B10B4BD3F8F43000200021C3E9060107E0074BD3F8F430064AD2E97F
:403F40000601C3E9060107B0F0BD00BF2889FF1F6081FF1F6087FF1FA889FF1F2DE9F04F9FB08146C36F1B68D3E90023CDE91223D0E90623CDE91623036AD3E90023CDE985
:403F80000A23D0F88430D3F800B08368D3F800805A68144606929A681492DB6815930A2004F018F8D9F8043000271F70DBF80000DBF80410DBF80820DBF80C30C8F80000F3
:403FC000C8F80410C8F80820C8F80C30DBF81000DBF81410DBF81820DBF81C30C8F81000C8F81410C8F81820C8F81C30D9F878301C60FFF7E3FEDDE90A010022A34B07F0A9
:4040000043FF02460B46CDE90823CDE91823CDF83090D94628E0FC0009EB040608EB0405D5E900AB069B1C44DDE90801D4E9002307F02AFF02460B465046594607F072FDC4
:4040400002460B46C6E90023D5E90001CDE90001D4E90001CDE90201DDE90801CDE90401052004F0F1F80137032FD4DDCB46DDF83090D9F87C301C68DDE91201DDE90823D0
:4040800007F050FDC4E90001D9F87830149A1A600B2003F09FFF00F0FFF8FFF78FFE00240EE07B4B03EBC403D3E90601DDE90A2307F0EAFE1EAB03EBC40343E9060101343F
:4040C000012CEEDDDDE9182314461D46CDE90E45DDE91A2310461946CDE9100100220023CDE9002302460B46CDE902230022694BCDE90423072022462B4604F0A5F8002686
:40410000CA463AE0F4000BEB040908EB0407D7E90023CDE90823069B1D19DDE90E01D5E9002307F0B1FECDE90C01149B1C44DDE91001D4E9002307F0A7FE02460B46DDE9E5
:404140000C0107F0EFFC02460B46DDE9080107F0E9FC02460B46C9E90023D7E90001CDE90001D5E90001CDE90201D4E90001CDE90401062004F068F80136032EC2DDD1469D
:40418000DAF87C301C68DDE90A010022414B07F07BFEDDE9122307F0C5FCC4E90001DAF87830159A1A600C2003F014FF00F074F8FFF704FE00240EE0354B03EBC403D3E981
:4041C0000C01DDE90A2307F05FFE1EAB03EBC40343E906010134022CEEDD4FF0000A069E149FCDF82890DDF8549038E04FEACA040BEB040508EB0403D3E90023CDE90623E0
:404200003319D3E90001DDE9182307F03DFECDE908013B19D3E90001DDE91A2307F034FE02460B46DDE9080107F07CFCCDE908014C44D4E90001DDE91C2307F025FE0246FB
:404240000B46DDE9080107F06DFC02460B46DDE9060107F067FCC5E900010AF1010ABAF1030FC3DDDDF82890D9F87C301B68DDE91601C3E90001D9F8043001221A700C20F7
:4042800003F0A8FE1FB0BDE8F08F00BF0000E03FC8D300000000E83F2DE9F04F8DB0012003F098FEAD4B93F8AC31012B12D1022003F090FEA94CD4F8980104F5D073D3E932
:4042C0000067013007F06AFD32463B4607F0DCFDC4E90801A14B93F8AC3163B99F4BD3F8B021D3F884301B68D3E90001C2E90001032003F06FFE9A4CD4E90289994B1868D3
:4043000007F06EFD02460B464046494607F0BCFD02460B46CDE9082330CCCDE90A452046294607F0FDFB06460F468F4BC3E90067DFF840A2DAE902018C4BD3E9002307F0C4
:40434000A3FD04460D4630463946DAE9042307F09BFD02460B462046294607F0E3FB02460B46CDE90623DAE906452046294608F007F850B9DAE9084520462946DDE9062320
:4043800008F008F808B9DDE90645DFF8E4B1CBE90045CDE90089CDE90267DDE90A23CDE904230120DDE9084522462B4603F04CFFDFF8B8A1DAE90023CDE90023DBE900237F
:4043C000CDE9022300220023CDE904230320DDE9062303F039FF22462B46CBE90223DFF880B1DBE906455F4B186807F0F9FC02460B46CDE906232046294607F045FD0646D2
:404400000F46DBE9040132463B4607F089FB04460D46554BC3E90245DFF85881D8E90C01DAE9022307F030FD82468B4620462946D8E90E2307F028FD02460B4650465946E6
:4044400007F070FB82468B46D8E910452046294652465B4607F094FF50B9D8E912452046294652465B4607F095FF08B954465D463F4BC3E90445C3E90667394CDDE90601F1
:40448000D4E90A2307F000FD06460F46D4E9080132463B4607F044FB04460D46324BC3E90445DFF8D080D8E91601304BD3E9042307F0EAFC82468B4620462946D8E91823D5
:4044C00007F0E2FC02460B465046594607F02AFB82468B46D8E91A452046294652465B4607F04EFF50B9D8E91C452046294652465B4607F04FFF08B954465D461C4BC3E963
:404500000845C3E90A67164EDDE90601D6E90E2307F0BAFC04460D46D6E90C0122462B4607F0FEFA06460F460F4BC3E90667DFF844A0DAE920010D4BD3E9062307F0A4FC8B
:404540008046894630463946DAE9222307F09CFC02460B46404649460EE000BF6087FF1F6889FF1FA884FF1FA889FF1FC889FF1F2889FF1F6081FF1F07F0D4FA804689467B
:40458000DAE924673046394642464B4607F0F8FE50B9DAE926673046394642464B4607F0F9FE08B946464F46154BC3E90C67C3E90E45042003F00EFD124B93F8AC31012BEA
:4045C0001AD1052003F006FD0F4C2046FFF7C6FCA4F10800D4F890310133C4F89031D4F8A83104F11805D5E90045C3E90045D0F8A8310133C0F8A8310DB0BDE8F08F00BFB0
:404600002889FF1F6087FF1F6887FF1F70B53E4C204600214FF4E47208F08CFA04F5D673E36004F5D873C4F8843004F5D073A36204F1F402C4F8802004F1F002C4F88C203C
:4046400004F5C872C4F88820C4F8C840A460012284F8AC2104F58072C4F8802104F59072C4F8842104F5A072C4F8882104F5B072C4F88C21254DC4F8F05004F5C0722261BB
:40468000234A626104F5DC72C4F8B02100202149C3E90001204A0024134643F8044B5460043343F8044B43F8044B43F8044B43F8044B43F8044B1C6005F10C0343F8044BA6
:4046C00043F8044B43F8044B43F8044B1C60402612482146324608F02DFA11482146324608F028FA0F4BD3E90001C5E90001D3E90A01C5E90201D3E91401C5E90401D3E912
:404700001E23C5E9062370BD6087FF1FC889FF1F18D400000000B03FA889FF1F6889FF1F2889FF1F6081FF1F08B500F001F808BD72B62DE9FE5F4FF0AA30B0F1AA3F40F0E0
:404740009F804FF05530B0F1553F40F099804FF0AA31B1F1AA3F40F093804FF05531B1F1553F40F08D804FF0AA32B2F1AA3F40F087804FF05532B2F1553F40F081804FF06D
:40478000AA33B3F1AA3F7BD14FF05533B3F1553F76D14FF0AA34B4F1AA3F71D14FF05534B4F1553F6CD14FF0AA35B5F1AA3F67D14FF05535B5F1553F62D14FF0AA36B6F1F1
:4047C000AA3F5DD14FF05536B6F1553F58D14FF0AA37B7F1AA3F53D14FF05537B7F1553F4ED14FF0AA38B8F1AA3F49D14FF05538B8F1553F44D14FF0AA39B9F1AA3F3FD1C9
:404800004FF05539B9F1553F3AD14FF0AA3ABAF1AA3F35D14FF0553ABAF1553F30D14FF0AA3BBBF1AA3F2BD14FF0553BBBF1553F26D14FF0AA3CBCF1AA3F21D14FF0553C5F
:40484000BCF1553F1CD14FF0AA3EBEF1AA3F17D14FF0553EBEF1553F12D168460B498D468D4518BF85460BD109498D468D4518BF854605D185464FF00000BDE8FE5F704714
:404880004FF00100BDE8FE5F704762B6A8AAAAAA54555555034B187810B901221A707047012070470082FF1F034B587810B901225A707047012070470082FF1F034B98780A
:4048C00010B901229A707047012070470082FF1F034BD87810B90122DA707047012070470082FF1F08B507F0ABF8062007F0C2F8014807F0D7F808BD5DBA000008B505F0C5
:4049000037FE034B1B78834201D0014B187008BDD835002010B502221E4B1A703138042818D8DFE800F003070B0F1300A2221A4B1A8012E0FA22184B1A800EE0C822164BAF
:404940001A800AE06422144B1A8006E03222124B1A8002E0A222104B1A800E4B5B7813F0100F08D023F010030A4A53700B48012103F066FD0CE0074C43F010036370084892
:40498000054B198801220A2303F078FD0123A370002010BD4483FF1FD6350020B4E40000BCE40000392804DC302807DA0D280FD015E0522810D072280ED010E0094A93882F
:4049C00003EB83035B009BB218443038908006E00522044B1A7002E00022024B1A700020704700BF4483FF1F522831D004DCA0F13003092B06D903E0722829D077280BD069
:404A000000207047154AD38803EB83035B009BB218443038D080F3E710B5104B1B7A13F0040F08D023F004030C4A13720C48012103F006FD10E0094C43F004032372094872
:404A400061780122102303F019FD0023638103E00022024B1A70D3E7002010BD4483FF1FC8E40000D4E4000038B5002450E03A2C02D8384B1D5D0AE0722C04D8A4F13B0376
:404A8000354AD55C03E0A4F17303344AD55C3448214600220A2303F0F1FC3248294600220A2303F0EBFC304829460022102303F0E5FCA4F18703082B24D8DFE803F0050A5E
:404AC0000F14192323231E002848012103F0B8FC1CE02748012103F0B3FC17E02548012103F0AEFC12E02448012103F0A9FC0DE02248012103F0A4FC08E02148012103F0DE
:404B00009FFC03E01F48012103F09AFC0134E4B2902CACD9002419E01B4B1D5D1B48214600220A2303F0AAFC0E48294600220A2303F0A4FC0C4829460022102303F09EFCDE
:404B40001048012103F07CFC0134E4B2202CE3D938BD00BFE884FF1F1C86FF1FC884FF1FE0E400005CCD0000ECE40000F4E4000008E500001CE5000030E5000044E5000054
:404B800054E5000060E50000E883FF1F64E5000010B5B54C2046012103F052FCB348012103F04EFCB248B34B1988012203F090FCB148B24B1988012203F08AFCB048B14B5A
:404BC0001988012203F084FCAF48B04B1988012203F07EFCAE48AF4B1988012203F078FCAD48AE4B1988012203F072FCAC48AD4B1988012203F06CFCAB48AC4B1988012274
:404C000003F066FCAA48AB4BB3F90010012203F05FFCA948A94B1988012203F059FCA848A84B1988012203F053FCA748A74B1988012203F04DFCA648A64B1988012203F0B9
:404C400047FCA548A54B1988012203F041FCA448A44B1988012203F03BFCA348A34B1988012203F035FCA248A24B1988012203F02FFCA148A14B1988012203F029FCA04844
:404C8000A04B1988012203F023FC9F489F4BB3F90010012203F01CFC9D489E4BB3F90010012203F015FC9C489C4BB3F90010012203F00EFC9A489B4BB3F90010012203F086
:404CC00007FC9948994BB3F90010012203F000FC9748984BB3F90010012203F0F9FB9648964BB3F90010012203F0F2FB9448954BB3F90010012203F0EBFB9348934BB3F93F
:404D00000010012203F0E4FB9148924BB3F90010012203F0DDFB9048904BB3F90010012203F0D6FB8E488F4BB3F90010012203F0CFFB2046012103F083FB8B48012103F08B
:404D40007FFB8A488A4B1978012203F0C1FB8948894B1978012203F0BBFB8848884B1978012203F0B5FB8748874B1978012203F0AFFB8648864B1978012203F0A9FB85480A
:404D8000854B1978012203F0A3FB8448844B1978012203F09DFB8348834B1978012203F097FB8248824B93F90010012203F090FB8048814B93F90010012203F089FB7F48CD
:404DC0007F4B93F90010012203F082FB7D487E4B93F90010012203F07BFB7C487C4B1978012203F075FB7B487B4B1978012203F06FFB7A487A4B1978012203F069FB794875
:404E0000794B1978012203F063FB7848784B1978012203F05DFB7748774B1978012203F057FB7648764B1978012203F051FB7548754B93F90010012203F04AFB7348744B4D
:404E400093F90010012203F043FB7248724B93F90010012203F03CFB7048714B93F90010012203F035FBDDE0F0F0000074E5000088E500005087FF1F98E50000A084FF1F75
:404E8000A8E50000F685FF1FB4E500004484FF1FC0E50000B285FF1FCCE500003283FF1FD8E500003883FF1FE4E500003C83FF1FBCD000003881FF1FF0E500004281FF1F7A
:404EC000FCE500009084FF1F0CE600004481FF1F1CE600004681FF1F2CE600009882FF1F3CE60000CE83FF1F50E600008C84FF1F64E60000B484FF1F7CE600001C84FF1FE4
:404F000090E600003885FF1FA8E600002C85FF1FBCE60000D083FF1FD0E600002684FF1FE4E60000B085FF1FF8E60000A284FF1F04E700000A84FF1F10E700004684FF1F7D
:404F40001CE700004085FF1F28E70000D883FF1F34E700000C86FF1F40E700008884FF1F4CE70000F485FF1F58E700006CE70000CD83FF1F74E700003481FF1F7CE700004C
:404F80003381FF1F84E700003681FF1F8CE700003581FF1FD0CB0000E283FF1F94E700005481FF1FA4E700000C84FF1FB4E700003081FF1FBCE70000E182FF1FC4E700009A
:404FC0003181FF1FCCE70000E282FF1FD4E70000AD82FF1FDCD00000AE82FF1FE4E70000AC82FF1FF8E700002D83FF1F08E800002A85FF1F18E80000EB82FF1FACD0000022
:405000003281FF1F24E800000C81FF1F30E800009582FF1F3CE800000D81FF1F48E800009682FF1FAF48B04B1978012203F050FAAE48AF4B1978012203F04AFAAD4CAE48B8
:405040002178012203F044FAAC486178012203F03FFAAB48A178012203F03AFAA94CAA482178012203F034FAA8486178012203F02FFAA748A178012203F02AFAA548E1787D
:40508000012203F025FAA448A44B1978012203F01FFAA348A34B1978012203F019FAA24CA2482178012203F013FAA1486178012203F00EFA9F48A178012203F009FA9E481A
:4050C000E178012203F004FA9C489D4B1978012203F0FEF99B4C9C482178012203F0F8F99A486178012203F0F3F99948A178012203F0EEF99748E178012203F0E9F99648AC
:40510000964B1978012203F0E3F9954C95482178012203F0DDF994486178012203F0D8F99248A178012203F0D3F99148E178012203F0CEF98F4C90482178012203F0C8F925
:405140008E486178012203F0C3F98D48A178012203F0BEF98B48E178012203F0B9F98A4C8A482178012203F0B3F989486178012203F0AEF98748A178012203F0A9F9864827
:40518000E178012203F0A4F9844C85482178012203F09EF983486178012203F099F9824C82482178012203F093F981486178012203F08EF97F4C80482178012203F088F9DF
:4051C0007E486178012203F083F97D4C7D482178012203F07DF97C486178012203F078F97A48A178012203F073F97948E178012203F06EF9774C78482178012203F068F920
:4052000076486178012203F063F97548A178012203F05EF97348E178012203F059F97248724B1978012203F053F97148714B1978012203F04DF9704C70482178012203F0B7
:4052400047F96F486178012203F042F96D48A178012203F03DF96C48E178012203F038F96A486B4B1978012203F032F9694C6A482178012203F02CF968486178012203F08B
:4052800027F96748A178012203F022F96548E178012203F01DF96448644B1978012203F017F96348634B93F90010012203F010F96148624B1978012203F00AF96048614B29
:4052C0001978012203F004F95F48604B1978012203F0FEF85E485F4B1978012203F0F8F8BAE000BF54E80000DA83FF1F68E800000886FF1F1886FF1F80E8000098E8000084
:40530000B0E800000086FF1FC8E80000DCE80000F0E8000004E9000018E900008F84FF1F2CE900000E86FF1F5887FF1F40E9000058E9000070E9000088E90000A0E9000045
:405340003485FF1F6885FF1FB8E90000CCE90000E0E90000F4E9000008EA00001E84FF1FAC85FF1F20EA000034EA000048EA00005CEA00002084FF1F70EA000084EA000024
:4053800098EA0000ACEA0000E483FF1FC0EA0000D8EA0000F0EA000008EB00002484FF1F20EB000038EB00005C85FF1F50EB000068EB00009484FF1F80EB000098EB000072
:4053C000D483FF1FB0EB0000C8EB0000E0EB0000F8EB0000B884FF1F10EC000028EC000040EC000058EC000070EC00001B86FF1F84EC00003585FF1F9C84FF1F98EC00003D
:40540000ACEC0000C0EC0000D4EC0000E8EC00002885FF1F6485FF1FFCEC000014ED00002CED000044ED00005CED00000A87FF1F68ED00004181FF1F7CED00005E85FF1FF8
:405440008CED00001586FF1FA0CC00002681FF1F9CED0000E382FF1F3148324B1978012203F036F83048314B1978012203F030F82F48304B1978012203F02AF82E482F4B84
:405480001978012203F024F82D482E4B1978012203F01EF82C482D4B1978012203F018F82B482C4B1978012203F012F82A482B4B1978012203F00CF8294C2A48217801220A
:4054C00003F006F828486178012203F001F82748A178012202F0FCFF2548E178012202F0F7FF2448244B1978012202F0F1FF2348234B1978012202F0EBFF2248224B93F9BD
:405500000010012202F0E4FF2048012102F098FF1F48204B9989012202F0DAFF10BD00BFACED0000E582FF1FBCED0000E782FF1FCCED0000E982FF1FDCED0000E482FF1F05
:40554000E8ED0000E682FF1FF4ED0000E882FF1F00EE0000EA82FF1F68CF00003685FF1FC883FF1F0CEE000018EE000024EE000030EE00003CEE00002E85FF1F50EE00000D
:405580006E85FF1F64EE00002481FF1F78EE000090EE00004483FF1F2DE9F047DFF868844046012102F04CFFB148012102F048FFB048B14BB3F9001003F016F9AF48B04B0F
:4055C000B3F9001003F010F9DFF840A4DFF840945046B9F9001003F007F9AA48AA4BB3F9001003F001F9A948A94BB3F9001003F0FBF8A848A84BB3F9001003F0F5F8A748BD
:40560000A74BB3F9001003F0EFF8A64FA648B7F9001003F0E9F8A54EA548B6F9001003F0E3F8A44DA448B5F9001003F0DDF8A34CA348B4F9001003F0D7F8A248B7F9021096
:4056400003F0D2F8A048B6F9021003F0CDF89F48B5F9021003F0C8F89D48B4F9021003F0C3F89C48B7F9041003F0BEF89A48B6F9041003F0B9F89948B5F9041003F0B4F884
:405680009748B4F9041003F0AFF89648964BB3F9001003F0A9F89548954BB3F9001003F0A3F89448944BB3F9001003F09DF89348934BB3F9001003F097F85046B9F900104C
:4056C00003F092F88F48904BB3F9001003F08CF88E488F4BB3F9001003F086F88D488E4BB3F9001003F080F88C488D4BB3F9001003F07AF88B488C4BB3F9001003F074F804
:405700008A488B4BB3F9001003F06EF889488A4BB3F9001003F068F88848894BB3F9001003F062F88748884BB3F9001003F05CF88648874BB3F9001003F056F88548864B6A
:40574000B3F9001003F050F88448854BB3F9001003F04AF88348844BB3F9001003F044F84046012102F06CFE8048012102F068FE7F48804B93F9001003F048F87E487F4BE9
:4057800093F9001003F042F87D487E4B93F9001003F03CF87C487D4B93F9001003F036F87B487C4B93F9001003F030F87A487B4B93F9001003F02AF8794C7A4894F90010E8
:4057C00003F024F8784894F9011003F01FF8774894F9021003F01AF8754894F9031003F015F8744C744894F9001003F00FF8734894F9011003F00AF8714894F9021003F0C6
:4058000005F8704894F9031003F000F86E486F4B93F9001002F0FAFF6D486E4B93F9001002F0F4FF6C486D4B93F9001002F0EEFF6B486C4B93F9001002F0E8FF6A486B4B14
:4058400093F9001002F0E2FF69486A4B93F9001002F0DCFF6848694B93F9001002F0D6FF6748684B93F9001002F0D0FFBDE8F087ACEE0000C0EE00006085FF1FCCEE000043
:405880002E83FF1FDCEE00002685FF1FE8EE00000686FF1FF4EE00008A84FF1F00EF00000486FF1FF885FF1F50CD0000DC83FF1F70CD0000C084FF1F0CEF00005485FF1F9B
:4058C00020EF000034EF000048EF00005CEF000070EF000084EF000098EF0000ACEF0000C0EF00009CCD00000887FF1FB8CD00003C84FF1FD4EF00005E87FF1FE4EF00003F
:405900002485FF1FBCD000003881FF1FA8E600002C85FF1FBCE60000D083FF1FD0E600002684FF1FE4E60000B085FF1FF8E60000A284FF1F04E700000A84FF1F10E7000082
:405940004684FF1F1CE700004085FF1F28E70000D883FF1F34E700000C86FF1F40E700008884FF1F4CE70000F485FF1FF4EF000008F000005C87FF1F1CF000001481FF1F50
:4059800090CC0000E082FF1F28F000004081FF1F64EE00002481FF1F68ED00004181FF1F2C81FF1F38F000004CF0000060F0000074F000001081FF1F88F0000098F0000038
:4059C000A8F00000B8F00000B4E700003081FF1FBCE70000E182FF1FC4E700003181FF1FCCE70000E282FF1F24E800000C81FF1F30E800009582FF1F3CE800000D81FF1F55
:405A000048E800009682FF1FF0F00000F0CC00002881FF1F70B50024254637E01D48294600220A2302F02AFD1B4E1C48715D00220A2302F023FD1A48715D0022102302F023
:405A40001DFDC4EB4413174AD35CAB4206D1C4EB4413501C1844012102F0F2FC0134E4B20CE01148002102F0EBFCC4EB44100F4B1844012102F0E4FC0134E4B2C4EB44135A
:405A8000084AD35CAB42ECD00135EDB23F2DC5D970BD00BFC8F000000C87FF1F5CCD0000D8F0000020D40000E0F0000021D4000038B5002414E01C48214600220A2302F0CD
:405AC000DDFC1A4D1A48295D00220A2302F0D6FC1848295D0122102302F0D0FC0134E4B20D2CE8D9114C21796379134843EA0121012202F017FDA179E379104843EA0121E9
:405B0000012202F00FFD217A637A0D4843EA0121012202F007FDA17AE37A0A4843EA0121012202F0FFFC38BDF4F000004884FF1F5CCD0000D8F0000000F100000CF1000044
:405B400018F1000024F1000038B505F02BFC04464189134889B200220A2302F08FFC217A104D284600220A2302F088FC2179284600220A2302F082FCA1780B4800220A23DB
:405B800002F07CFC6178094D284600220A2302F075FC2178284601220A2302F06FFC38BD30F100003CF100006CD0000040F1000070B505460C4605F0F5FB2C4A1188468943
:405BC0008B000B44DB0013445E81027A1A720279DA7182789A7142785A7102781A71244AD2899A81002220E02878A0B98B000B44DB001E4803449818202585730132D2B258
:405C00009818302585730132D2B21344782098730132D2B20BE001EB8103DB00134E33441344987301350132D2B21D2ADCD901EB8101C90011440D4D294420460E3110227C
:405C400006F06BFF2B8801339BB22B80B3F57A7F0BD900222A806B883BB901339BB26B80B3F57A7F01D900226A8070BDEC89FF1F4483FF1F10B51E4B1B781E4B93F910301F
:405C8000002B03DA1C480021FFF792FF194CE3890133E3811948838801339BB28380C288013292B2C2800189013189B20181608A013080B26082132804D900200F4C2070A9
:405CC0000C4C6082C72903D90C49002048700881B2F5FA6F03D3094A00219170D18044F61F62934203D9054B0022DA709A8010BD034F00404483FF1F44F100000082FF1FE1
:405D000070B5044605F04EFB274A168835464189B3003344DB0013445981027A1A720279DA7182789A7142785A7102781A711F4AD2899A81002215E0217849B906EB8603C4
:405D4000DB0019490B441A440023937301230CE005EB8503DB00144803441344997301340132D2B21D2AE7D9002333B906EB8602D2000F4B134400229A710136B6B20A4B88
:405D80001E80B6F57A7F0DD900221A805B884BB901339BB2044A5380B3F57A7F02D90022014B5A8070BD00BFEC89FF1F4483FF1F118AFF1F10B588B0002306E008AC1C447B
:405DC00004F8202C01300133DBB20278002AF5D10DEB030002F0F8FB6846FFF791FF08B010BD00BF70B58AB0002406E00AAE264406F8285C01300134E4B20578002DF5D12E
:405E0000080B404D2E5C0AA8204400F8286C601CC0B2C1F303242E5D0AAC044404F8286C0130C0B2C1F303142E5D0AAC044404F8286C0130C0B201F00F016C5C0AA90144C9
:405E400001F8284C411CC9B20AA844182C2004F8280C0131C9B2140B2E5D0AAC0C4404F8286C0131C9B2C2F303242E5D0AAC0C4404F8286C0131C9B2C2F303142E5D0AAC02
:405E80000C4404F8286C0131C9B202F00F02AC5C0AAA0A4402F8284C4A1CD2B20AA9114401F8280C0132D2B2190B685C0AA9114401F8280C0132D2B2C3F30321685C0AA9DF
:405EC000114401F8280C0132D2B2C3F30311685C0AA9114401F8280C0132D2B203F00F03E95C0AAB134403F8281C0132D2B20AAB1A44002302F8283C6846FFF701FF0AB0B1
:405F000070BD00BF0C82FF1F10B588B0002306E008AC1C4404F8202C01300133DBB20278002AF5D10DEB030002F098FB6846FFF7E7FE08B010BD00BF2DE9F84306460F46CC
:405F400091469846002106F05DFD20B12D2307F8013B06F10046304606F07CFD002508E03046244906F064FC064606F073FD0135EDB20028F4DCA94506D8002409E030238C
:405F80003B550134E4B200E00024C5EB09039C42F5DB2544EDB22E237B553046154906F093FB814606F056FD064606F039FB0146484606F07FFA14E0AC4201D10134E4B24E
:405FC00030363E550B4906F07FFB814606F042FD064606F025FB0146484606F06BFA0134E4B205EB08039C42E6DD00233B55BDE8F88300BF0000204130B589B0002306E0D5
:4060000008AAD51805F8204C01300133DBB20478002CF5D108460DEB030103220523FFF78BFF6846FFF76CFE09B030BD30B59FB004460D46894A13AB07CA83E80700884AB6
:4060400010AB07CA83E80700864A0DAB07CA83E80700854A0AAB07CA83E80700834A08AB92E8030083E80300814A06AB92E8030083E803007F4A04AB92E8030083E803005B
:406080007D4A02AB92E8030083E803007B4B93E8030000908DF80410284606F0BDFA072C13D8DFE804F0041406080A0C0E1013AB0EE00DAB0CE00AAB0AE008AB08E006AB8B
:4060C00006E004AB04E002AB02E06B4600E010AB072C00F2C180DFE804F004294E7398A2ACB6674A127D12F0010F07D1B4E01EA9214401F8202C0133013400E000241A7873
:40610000002AF4D11EAB234403F8202C5D4906F0DBFA5D4906F08CFB16AB191903221346FFF70AFF16A8FFF7EBFD95E0544A127D12F0020F07D18FE01EA9214401F8202CEC
:406140000133013400E000241A78002AF4D11EAB234403F8202C4B4906F0B6FA4A4906F067FB16AB191903221346FFF7E5FE16A8FFF7C6FD70E0424A127D12F0040F07D17C
:406180006AE01EA9214401F8202C0133013400E000241A78002AF4D11EAB234403F8202C384906F091FA384906F042FB16AB191903221346FFF7C0FE16A8FFF7A1FD4BE067
:4061C0002F4A127D12F0080F07D145E01EA9214401F8202C0133013400E000241A78002AF4D11EAB234403F8202C264906F06CFA254906F01DFB16AB191903221346FFF7FD
:406200009BFE16A8FFF77CFD26E01D4A127D12F0100F21D018462946FFF7CAFC1CE0184A127D12F0200F17D018462946FFF7C0FC12E0134A127D12F0400F0DD018462946A4
:40624000FFF7B6FC08E00E4A92F91420002A03DA18462946FFF7ACFC1FB030BD58F1000064F1000070F100007CF1000088F1000090F1000098F10000A0F10000A8F1000030
:406280004483FF1F000096430000284310B586B00C4605F039FB204601A903221346FFF74BFE01A805F030FB012005F03FFB06B010BD00BF10B5A34C2046012102F0C0F831
:4062C000A148012102F0BCF8A048A14B1968FFF7DDFFA048A04B1968FFF7D8FF9F48A04B1968FFF7D3FF9F489F4B1968FFF7CEFF9E489F4B1968FFF7C9FF9E489E4B196816
:40630000FFF7C4FF9D489E4B1968FFF7BFFF9D489D4B1968FFF7BAFF9C489D4B1968FFF7B5FF9C489C4B1968FFF7B0FF9B489C4B1968FFF7ABFF9B489B4B1968FFF7A6FFEC
:406340009A489B4B1968FFF7A1FF9A489A4B1968FFF79CFF99489A4B1968FFF797FF9948994B1968FFF792FF9848994B1968FFF78DFF9848984B1968FFF788FF9748984B7B
:406380001968FFF783FF9748974B1968FFF77EFF2046012102F054F89448012102F050F8934C9448216802F00DFA9348616802F009FA9248A16802F005FA9148E16802F073
:4063C00001FA9048216902F0FDF98F48616902F0F9F98E48A16902F0F5F98D48E16902F0F1F98C48216A02F0EDF98B48616A02F0E9F98A488A4B196802F0E4F989488A4BD2
:40640000196802F0DFF98948894B196802F0DAF98848894B196802F0D5F98848884B196802F0D0F98748884B196802F0CBF98748874B196802F0C6F98648874B196802F0A3
:40644000C1F98648864B196802F0BCF98548864B196802F0B7F98548854B196802F0B2F98448854B196802F0ADF98448844B196802F0A8F9834C8448216802F0A3F983483E
:40648000616802F09FF98248A16802F09BF98148E16802F097F98048804B196802F092F97F48804B196802F08DF97F487F4B196802F088F97E487F4B196802F083F97E48B6
:4064C0007E4B196802F07EF97D487E4B196802F079F97D487D4B196802F074F97C487D4B196802F06FF97C487C4B196802F06AF97B487C4B196802F065F97B487B4B1968DC
:4065000002F060F97A487B4B196802F05BF97A487A4B196802F056F979487A4B196802F051F97948794B196802F04CF97848794B196802F047F97848784B196802F042F990
:40654000EEE000BFF0F00000B0F10000C4F100004881FF1FD4F100004C81FF1FE4F100005081FF1FF4F100004084FF1F08F200003084FF1F18F200009884FF1F2CF2000008
:40658000C483FF1F3CF20000C486FF1F4CF200001084FF1F5CF20000AC84FF1F6CF200007085FF1F74F200003085FF1F7CF20000B084FF1F84F200003484FF1F8CF2000020
:4065C0002C84FF1F94F200003884FF1F9CF20000BC84FF1FA4F200001086FF1F40CD0000A484FF1FB0F20000A884FF1FC4F200008485FF1FD8F20000E8F20000F8F200008D
:4066000008F3000018F3000028F3000038F3000048F3000058F3000068F3000078F300000483FF1F8CF300000083FF1FA4F300000883FF1FBCF30000F082FF1FCCF30000BF
:406640002081FF1FE0F30000D082FF1FECF30000D482FF1FF8F30000D882FF1F04F40000DC82FF1F10F40000EC82FF1F24F40000F882FF1F34F400003C85FF1F40F4000073
:406680005487FF1F7485FF1F4CF4000060F4000074F4000088F400009CF40000F482FF1FB0CC00009C82FF1F38D000008482FF1FB0F40000C082FF1FC4F40000B082FF1F3E
:4066C000D8F40000A482FF1FE8F400008C82FF1FFCF40000C882FF1F10F50000B882FF1FD0CC0000A082FF1F24F500008882FF1F38F50000C482FF1F4CF50000B482FF1F8A
:4067000060F50000A882FF1F70F500009082FF1F84F50000CC82FF1F98F50000BC82FF1F10BD00BF2DE9F04707460E46914698469DF820A0384631460022002305F016FE92
:4067400020B12D2309F8013B06F100463846314605F034FE00250DE03846314600222C4B05F0BCFC07460E463846314605F026FE0135EDB20028EFDCA84507D800240AE0C4
:40678000302309F804300134E4B200E00024C5EB08039C42F4DB2544EDB22E2309F805303846314600221A4B05F06EFB06460F4605F004FE804605F001FB02460B46304653
:4067C000394605F0ADF91AE0AC4201D10134E4B208F1300809F8048000220D4B05F054FB06460F4605F0EAFD804605F0E7FA02460B463046394605F093F90134E4B205EBA3
:406800000A039C42E0DD002309F80430BDE8F08700002440000000003138032806D8DFE800F002070B1201222F4B1A700020704702222D4B1A70F9E72B4B04221A7000223D
:406840009A80DA80F2E710B58AB0062400940020264902AA0323FFF765FF02A8012101F0EFFD00941CA1D1E9000102AA0323FFF759FF02A8012101F0E3FD009418A1D1E9DA
:40688000000102AA0323FFF74DFF02A8012101F0D7FD174802A903222346FFF74DFB02A8012101F0CDFD134802A903222346FFF743FB02A8012101F0C3FD0F4802A9032269
:4068C0002346FFF739FB02A8012101F0B9FD00200AB010BDAFF30080FA7E6ABC7493483FD95F764F1E16F0BF4483FF1F00C0324075C84D3B75C84DBB7EB30338AFF300800E
:40690000F0B58BB016461F46002306E00AAAD51805F8204C01300133DBB20478002CF5D1052200923046394602AA1A440323FFF7F9FE02A8FFF7E4F90BB0F0BDF0B58BB0B3
:4069400016461F46002306E00AAAD51805F8204C01300133DBB20478002CF5D1052200923046394602AA1A440123FFF7DBFE02A89DF8401001F064FD0BB0F0BD2DE9F04F9A
:4069800083B0A248012101F05BFDA14D01240094A048D5E90023FFF7D1FF00949E48D5E90223FFF7CBFF00949C48D5E90423FFF7C5FF00949A48D5E90623FFF7BFFF009440
:4069C0009848D5E90823FFF7B9FF00949648D5E90A23FFF7B3FF00949448D5E90C23FFF7ADFF00949248D5E90E23FFF7A7FF00949048D5E91023FFF7A1FF00948E48D5E908
:406A00001223FFF79BFF00948C48D5E91423FFF795FF00948A48D5E91623FFF78FFF00948848D5E91823FFF789FF00948648D5E91A23FFF783FF00948448D5E91C23FFF7C6
:406A40007DFF00948248D5E91E23FFF777FF00948048D5E92023FFF771FF00947E48D5E92223FFF76BFF00947C48D5E92423FFF765FFD5E9262300947948FFF75FFF794E23
:406A80003046214601F0DCFC7748214601F0D8FCDFF838B2754D00945846D5E90023FFF74DFFDFF82CA200945046D5E90223FFF745FFDFF8209200944846D5E90423FFF7FB
:406AC0003DFFDFF8148200944046D5E90623FFF735FF3046214601F0B3FC6548214601F0AFFC644F00946448D7E90023FFF726FF00946248D7E90223FFF720FF0094604830
:406B0000D7E90423FFF71AFFD7E9062300945D48FFF714FF3046214601F092FC5A48214601F08EFC00945846D5E90023FFF706FF00945046D5E90223FFF700FF0094484622
:406B4000D5E90423FFF7FAFED5E9062300944046FFF7F4FE3046214601F072FC4B48214601F06EFC4A4D00944A48D5E90023FFF7E5FE00944848D5E90423FFF7DFFE0094E1
:406B80004648D5E90C23FFF7D9FE00944448D5E90823FFF7D3FE00944248D5E90223FFF7CDFE00944048D5E90623FFF7C7FE00943E48D5E90A23FFF7C1FED5E90E23009400
:406BC0003B48FFF7BBFE3046214601F039FC3948214601F035FC384D00943848D5E90023FFF7ACFE00943648D5E90423FFF7A6FE00943448D5E90823FFF7A0FE0094324810
:406C0000D5E90C23FFF79AFE009467E0ACF500006081FF1FC0F50000D4F50000E4F50000F4F5000008F600001CF6000034F6000048F600005CF6000074F600008CF6000068
:406C4000A4F60000B8F60000CCF60000E4F60000FCF6000014F7000028F700003CF7000054F70000F0F000006CF70000C889FF1FD0F70000A889FF1FE4F70000F0F700000C
:406C8000FCF7000008F8000014F8000028F800006889FF1F3CF8000050F8000064F8000078F800008CF8000098F80000A4F80000B0F80000BCF800002889FF1FD0F80000BB
:406CC000E0F80000F0F8000000F9000080F7000094F70000A8F70000BCF700000E48D5E90223FFF72BFE00940C48D5E90623FFF725FE00940A48D5E90A23FFF71FFED5E9A5
:406D00000E2300940748FFF719FE3046214601F097FB03B0BDE8F08F10F900001CF9000028F9000034F9000070B582B06C4C6D48217E0122102301F0A1FB6B48617E012294
:406D4000102301F09BFBA37E13B1012B05D009E06648012101F074FB08E06548012101F06FFB03E06348012101F06AFB5C4C012500956148D4E90823FFF7E0FD00955F483F
:406D8000D4E90C23FFF7DAFD00955D48D4E90E23FFF7D4FD00955B48D4E91023FFF7CEFD5948A16C2A46102301F068FB5748E16C2A46102301F062FB5548216D2A461023F2
:406DC00001F05CFB5348616D2A46102301F056FB5148216E2A46102301F050FB4F48616E2A46102301F04AFB4D48A16E2A46102301F044FB4B48E16E2A46102301F03EFB91
:406E000000954948D4E91C23FFF798FD00954748D4E91E23FFF792FD4548D4F89C102A46102301F02BFB434894F8A4102A46102301F024FB404894F8A5102A46102301F064
:406E40001DFB3E4894F8A6102A46102301F016FB3B4894F8A7102A46102301F00FFB394894F8A8102A46102301F008FB3648D4F8AC102A46102301F001FB344894F8B0106F
:406E80002A46102301F0FAFA314894F8B1102A46102301F0F3FA2F4894F8B2102A46102301F0ECFA2C4894F8B3102A46102301F0E5FA94F8B430AB4208D013B1022B0AD08E
:406EC00052E02648012101F0BBFA51E02448012101F0B6FA4CE02348012101F0B1FA47E06087FF1F40F9000058F900006CF9000080F900009CF90000B8F90000CCF90000D6
:406F0000DCF90000ECF9000000FA000020FA00003CFA000050FA000060FA000078FA000094FA0000B4FA0000C8FA0000D8FA0000ECFA000004FB00001CFB00003CFB000034
:406F40005CFB000078FB000090FB0000A0FB0000B4FB0000CCFB0000E8FB000000FC000018FC000034FC00009448012101F068FA934D9448D5F8B8100122102301F07EFA27
:406F8000012400949048D5E93423FFF7D7FC8F48D5F8D8102246FFF7D1FC8D48D5F8DC102246102301F06AFA8A4E304695F8E0102246102301F062FA874895F8E1102246C5
:406FC000102301F05BFA8548D5F8E4102246102301F054FA8248D5F8E8102246102301F04DFA8048D5F8EC102246102301F046FA7D48214601F024FA7C4895F8FC102246F1
:40700000102301F03BFA7A4895F8FD102246102301F034FA304695F8FE102246102301F02DFA05F58073D3E9002300947148FFF785FC05F58473D3E9002300946E48FFF77D
:407040007DFC05F58873D3E9002300946B48FFF775FC05F58C73D3E9002300946848FFF76DFC2E46F6E9682300946648FFF766FC00946548D6E90023FFF760FC009463486E
:40708000D6E90023FFF75AFC00946148D6E90023FFF754FC00945F48D6E90023FFF74EFC00945D48D6E90023FFF748FC00945B48D6E90023FFF742FC00945948D6E9002327
:4070C000FFF73CFC00945748D6E90023FFF736FC00945548D6E90023FFF730FC00945348D6E90023FFF72AFC00945148D6E90023FFF724FC4F48D5F880112246FFF71EFC31
:407100004D48D5F884112246FFF718FC4B48D5F888112246FFF712FC4948D5F88C112246FFF70CFC4748214601F08AF94648D5F890112246102301F0A1F94448D5F8941196
:407140002246102301F09AF94148214601F078F94048D5F8981101F01BFBD6E9002300943D48FFF7EBFB3D48D5F8A81101F010FB95F8AC311BB93A48214601F061F93948C8
:40718000012101F05DF90E4C374894F8AD110122102301F073F904F5DC73D3E90023012500953248FFF7CAFB04F5E074D4E9002300952F48FFF7C2FB02B070BD50FC000062
:4071C0006087FF1F6CFC000080FC000090FC0000A8FC0000C0FC0000D4FC0000ECFC000008FD000020FD000038FD000050FD000068FD000080FD00008CFD000098FD00005E
:40720000A4FD0000B0FD0000C0FD0000D0FD0000E0FD0000F0FD000000FE000010FE000020FE000030FE000040FE000050FE000060FE000070FE000080FE000094FE0000EC
