:400000000080002011000000C1330000C133000008B5044B1A6803F53F5302331A6003F0D1F900BFFA46004010B5054C237833B9044B13B10448AFF300800123237010BDC2
:400040001882FF1F00000000FC640000084B10B51BB108480849AFF300800848036803B910BD074B002BFBD0BDE81040184700BF00000000FC6400001C82FF1F0881FF1F5F
:400080000000000008B505F029F8C0433A4BC0B218703A4BD87700F00603062B17D0384B1A68002AC4BF00221A605A68002AC2BF334A002151609A68DB68002AC2BF304A92
:4000C00000219160002BC2BF2D4B0022DA6000F06003602B17D02A4B1A68002ABCBF00221A605A68002ABEBF254A002151609A68DB68002ABEBF224A00219160002BBEBFB5
:400100001F4B0022DA6000F01803182B17D01C4B1A68002ABCBF00221A605A68002AC2BF174A002151609A68DB68002AC2BF144A00219160002BBEBF114B0022DA60020632
:4001400001D5C30717D40E4B1A68002AC4BF00221A605A68002ABEBF094A002151609A68DB68002ABEBF064A00219160002BC2BF034B0022DA6008BD1883FF1F1D83FF1F62
:400180003482FF1F38B5074C257C25B1064B074A1B681A6038BD0123237402F059FD257438BD00BF3482FF1F086500000065000010B5044600F00F0004F00AFCC4F301105A
:4001C00004F02EFEC4F38110BDE8104004F0A0BE2DE9F3414020FFF7EBFF404B0DF1060419883F4B1A785200013A4A433D49ADF800203D4A10884A7C5200013A4243ADF875
:4002000002203A4A10885A785200013A4243ADF80420374A10888A7C5200013A4243888A1946ADF80620ADF1020232F9023F002BBDBF5B4203415B420341A2421380F4D1B3
:400240008B7802AA02EB430333F8080CCB7802AE02EB430333F8082C0B79264C06EB430333F808CC4B7902A901EB4303224D33F8088C224E224B2788B5F800E03188628029
:4002800017441A88864461444244688040B2A6F802C0A3F80280A5F800E031801A802780FFF786FF4020FFF783FF94F90200FFF77FFF4020FFF77CFF95F90000FFF778FF64
:4002C0004020FFF775FF94F90000FFF771FF402002B0BDE8F041FFF76BBF00BF306800400C81FF1F3482FF1F28680040346A00402C6A00401283FF1F1485FF1FE483FF1FB0
:400300007284FF1F2DE9F0414C4D5020FFF750FFAB794B4C83B1022B0BD15220FFF748FF484B9A692260DA6962601A6A5B6AA26011E05320FFF73CFF434BB3F90030236083
:40034000424BB3F900306360414BB3F90030A360404BB3F90030E3603F4B91221A60EB79082B37D15420FFF723FF364B4FF0100E93F829209C6983F8282093F82A20D869CA
:40038000196A83F829205A6A2401000109011201DC62186359639A6394FBFEF490FBFEF091FBFEF192FBFEF2D3F800805E68D3F808C0DF68DE61C4EB0804361AC1EB0C019D
:4003C000BA1AC3F81880C3F820C05F62DC631E6459649A64AA68002A13DD1A4BD86AD96B0144D962186B196C01441963586B596C01445963986B996C01449963531E0F4A02
:4004000093602B7B012B14D10E4B1022D96A552091FBF2F19961196B91FBF2F1D961596B91FBF2F11962996B91FBF2F25A62FFF7BFFEBDE8F0415020FFF7BABE0C81FF1F49
:400440009084FF1F3482FF1F2486FF1F6483FF1F7686FF1F4484FF1F5C84FF1F2DE9F04F702087B0FFF7A4FEDFF8D8B16B4ABBF8000013886A4C1844DFF8CC8180B210809C
:400480002388B8F80020674F1344674A238039881388664E0B441380654A3188138800B20B441380FFF784FE7020FFF781FEB4F90000604CFFF77CFE7020FFF779FEA36988
:4004C000DA46C1465C4DF3B9E269E2B9BBF90020CAB9B8F90020B2B9226AA2B9626A92B9B7F900207AB9B6F9002062B96B7B032B04BF02236B730023E36423656365A36580
:4005000002F02EFE95E16A7BDFF828B1022A02BF494A0321517394F85C20484E002A00F095807120FFF744FEDBF8180080EAE073A3EBE073602B04DD414B0022C6E900231F
:4005400011E005F06DFD0746A87B05F069FD0146384605F06DFE05F043F90022384B05F093F9C6E90001E06980EAE073A3EBE073602B04DD324B0022C6E9042311E005F086
:400580004FFD0746A87B05F04BFD0146384605F04FFE05F025F90022294B05F075F9C6E90401206A80EAE073A3EBE073602B04DD234B0022C6E9082311E005F031FD07461C
:4005C000A87B05F02DFD0146384605F031FE05F007F900221A4B05F057F9C6E90801606A80EAE073A3EBE073602B04DD144B0022C6E90C2390E005F013FD0746A87B05F04A
:400600000FFD0146384605F013FE05F0E9F800220B4B05F039F9C6E90C017DE04684FF1F2085FF1FE483FF1FB283FF1F7284FF1F1E85FF1F3482FF1F0C81FF1F4088FF1F98
:40064000000038401485FF1F1283FF1FB5F91000019305F0E5FC8046019B794F184605F0DFFC414605F0E4FD05F0BAF8C7E90001DBF81C0005F0D4FC414605F0D9FD05F068
:40068000AFF8C7E90401DBF8200005F0C9FC414605F0CEFD05F0A4F8C7E90801DBF8240005F0BEFC414605F0C3FD05F099F8654BC7E90C01D3F80080BAF9000005F0B0FC2C
:4006C000414605F001FD05F08BF8C7E90201B9F9000005F0A5FC414605F0F6FC05F080F8594BC7E90601B3F9000005F099FC414605F0EAFC05F074F8544BC7E90A01B3F9D8
:40070000000005F08DFC414605F0DEFC05F068F8C7E90E01FFF736FD00277120AAF80070FFF746FDA87B05F049F80022484B04F0F7FED6E9002305F0A7F80022454B05F091
:40074000CDF905F03BFB444B80B21880AB7C06AA02EB830300B243F8100C7220A9F80070FFF726FDA87B05F029F80022384B04F0D7FED6E904238046894605F085F800226A
:40078000344B05F0ABF905F019FB344B80B21880EB7C06AA02EB830300B243F8100C2A4B40461F804946D6E9082305F06DF80022284B05F093F905F001FB294B80B218808A
:4007C0002B7D06AA02EB830300B243F8100C1F4B40461F804946D6E90C2305F055F800221C4B05F07BF905F0E9FA1E4B80B218806B7D06AA02EB830300B243F8100CAB7D9E
:40080000029A5B00013B5343E36494F85D30039A5B00013B53432365EB7D049A5B00013B5343636594F85E30059A5B00013B5343A365762007B0BDE8F04FFFF7B9BC00BFF9
:400840008088FF1FC883FF1FE483FF1F7284FF1F0000F03F000038402486FF1F6483FF1F7686FF1F4484FF1F70B5484C8020FFF79FFCE36C464D83EAE372A2EBE372002B41
:4008800084F85F20226DB4BF0123002382EAE271002A84F860303D4BA1EBE271B4BF0122002283F862202B7E84F86110022B09D1002384F8633084F8643084F8653084F877
:4008C00066301BE0626D314B82EAE271002AA1EBE271B4BF0122002283F86420A26D84F86310002A82EAE271284BA1EBE271B4BF0122002284F8651083F8662094F862309C
:40090000687E244E03EB4000AB7E03EB400094F8603003EB400094F8673003EB4000C0B2307002F07BFF94F8610000F00F00FFF73FFC8020FFF73CFCAA7B174B1A7094F839
:400940005F201A7494F8612083F8202094F86630E87E03EB40002B7F03EB400094F8643003EB400094F8673003EB4000C0B2307004F0AEFBAA7B094B1A7094F863201A7426
:4009800094F8652083F8202070BD00BF3482FF1F0C81FF1F3185FF1F1E6400401C640040F8B5294C6020FFF703FCE379DB074AD56120FFF7FDFBE079244D254F421E2B6816
:4009C0006968C2EBC202BC18B95463701B11C1F3032123F00F030B441E491F4AA3700B881688237143F30B13E67023F00F03C6F3032633446371194BD5F80CE093F82960B4
:400A0000C0EBC000AB68A6713C1807F800E063701B11134FCEF3032E23F00F037344114DA3703B882888237143F30B13E07023F00F03C0F30320034463710023A6710B80C8
:400A400013803B802B80F8BD0C81FF1F9084FF1F6E85FF1F4684FF1F2085FF1F3482FF1FB283FF1F1E85FF1FF8B5574EA020FFF79FFB737F554C1E2B69D1F3790F2B66D1B2
:400A8000A120534DFFF794FB00232B60A366737B5048072B07D1992343700123E366002329681A460BE0E36E0BB96623F4E755234370236F002BF2D101232367EFE7022B59
:400AC000DFF824E103D8C65C0EF8036010E056B2C1EBC107DFF800C13744062E1CF8077018BF01320EF8037006BF01310022D2B201333B2BE3D1A2202960FFF759FB002350
:400B00001A46A366082150B2C1EBC106324F0644BF5D324E062818BF01329F5503F1010306BF01310022D2B2382BECD1296000232B4A1A44D1782B4A995401331E2BF7D1F7
:400B4000A320FFF735FB00232B606367A366636F1E4D73B903F0ECF8A0B3A420FFF728FB21483B2103F0BCF8052004F0F5FA012327E0012B0ED103F0DBF818B3A520FFF7A5
:400B800017FB1648382103F0ABF8052004F0E4FA022316E0022B0ED103F0CAF890B1A620FFF706FB0F481E2103F09AF8052004F0D3FA032305E0032B04D103F0B9F808B199
:400BC00004236B67F8BD00BF0C81FF1F3482FF1F6C86FF1F6786FF1F6E85FF1F3685FF1F1D83FF1FEA83FF1F0884FF1F2DE9F84F3020FFF7DDFA334B0022D3F81890324909
:400C0000D3F81C801A605A609A60DA60C9F1000A10221F6A8A605D6AC8EB0A02D21B561B1C463DD0C88B800005F0F6F9834686EAE670A0EBE67005F0F3F90146584605F047
:400C4000F7FA4FF07E51064605F0DCFB40B3504605F0E6F9314605F037FA05F0FBFB48442060C8F1000005F0DBF9314605F02CFA05F0F0FB40446060784205F0D1F9314644
:400C800005F022FA05F0E6FB3844A060684205F0C7F9314605F018FA05F0DCFB2844E06002F0EAFE20B901232067A367BDE8F88FA36F23B102F0DCFF024B00229A67BDE820
:400CC000F88F00BF3482FF1F0C81FF1F2DE9F0476E4F6F4D3F20387004F0E2F904F0D2F9C023AB8040F22233EB8040F222532B8140F2951300246B814FF410732C806C8039
:400D0000AB81644B1B7E9C4280F2BC804220FFF74FFA0CB93E230BE0012C01D13D2307E0022C01D13B2303E0032C0CBF37233F233B70387804F0B4F92046FFF739FA002613
:400D4000B04604F019F94FF06509800609D504F033F904F011F9B9F10109F6D10120BDE8F08704F003F94FF06509C10607D404F02FF904F0FBF8B9F10109F6D1EEE7012ECF
:400D80004FEAC82928DD35F81800062E484408BF40F0100080B204F0F5F804F0E7F84FF0650AC20708D4052004F0D6F904F0DEF8BAF1010AF5D1D1E704F0F6F84FF0650A49
:400DC00040B9052004F0C8F904F0EEF8BAF1010AF6D1C3E704F0E2F8A9F5004000F4784004F0D0F804F0C2F84FF06509C30708D4052004F0B1F904F0B9F8B9F10109F5D128
:400E0000ACE704F0D1F84FF0650940B9052004F0A3F904F0C9F8B9F10109F6D19EE704F0BDF84FF6FF73984206D16524052004F093F9013CFAD191E7174AC0F30A0008EB82
:400E4000C403012E22F8130014DD062E35F818300CD143F010039BB283427FF471AF07260A2004F079F94FF006086AE7834205D1013603E00136072EF2D061E7072EFADD5B
:400E800001343EE70020BDE8F08700BF5684FF1F6284FF1F0C81FF1FE485FF1F2DE9F047504E3F20307004F0FBF804F0EBF84E4B00244E4D1C805C804D4B1A7E9846944253
:400EC00080F28C804220FFF773F90CB93E230BE0012C01D13D2307E0022C01D13B2303E0032C0CBF37233F233370307804F0D8F82046FFF75DF93F4B002703EB041904F0F1
:400F00003BF84FF0650A810609D504F055F804F033F8BAF1010AF6D10120BDE8F08704F025F84FF0650AC20607D404F051F804F01DF8BAF1010AF6D1EEE7F802A0F5004088
:400F400000F4784004F01EF804F010F84FF0650AC30705D404F00AF8BAF1010AF8D1DBE704F022F84FF0650A28B904F01DF8BAF1010AF9D1D0E704F011F84FF6FF739842CC
:400F8000CAD0C0F30A0329F8023F98F81830022B0ED877B100F4806300F0C0025B0A03EB12132A7800F03F0013442B70A87010E02FB900F470708010287001279FE700F014
:400FC000C00300F48060400A00EB13102B7818442870002FF1D0013401356DE70020BDE8F08700BF5684FF1F6284FF1F2E83FF1F0C81FF1FE285FF1F2DE9F041584E3F207A
:40100000307004F04DF804F03DF80025554B1B7E9D4280F2A1804220FFF7CAF80DB93E230BE0012D01D13D2307E0022D01D13B2303E0032D0CBF37233F233370307804F033
:401040002FF82846FFF7B4F8002403F095FF6527800608D503F0B0FF03F08EFF013FF7D10120BDE8F08103F081FF6527C10606D403F0AEFF03F07AFF013FF7D1F0E7012C86
:401080004FEAC42725DD384B4FF0650833F81400384480B203F076FF03F068FFC20708D4052004F059F803F061FFB8F10108F5D1D6E703F079FF4FF0650840B9052004F06C
:4010C0004BF803F071FFB8F10108F6D1C8E703F065FFA7F5004000F4784003F053FF03F045FF6527C30707D4052004F035F803F03DFF013FF6D1B3E703F056FF652738B9BB
:40110000052004F029F803F04FFF013FF7D1A7E703F044FF4FF6FF73984206D16524052004F01AF8013CFAD19AE7104AC0F30A0004EBC503012C22F8130006DD0A4B33F838
:401140001430834203D1013401E001347DE7062C7FF77BAF013559E70020BDE8F08100BF5684FF1F0C81FF1F6284FF1FE485FF1F2DE9F04F644C8FB02020FFF719F8637F0B
:4011800083B9E379082B0DD12120FFF711F8206AFFF70EF8236A022B04D92F20FFF708F8FFF724FD02F0BAFD584E00284ED02220FEF7FEFF00235648F36702F0C3FD554D95
:4011C000F0672B78984207DD2320FEF7F1FF96F87C30514A2B7013704D4D2B78022B1AD16B78052B2FD1AB780E2B2CD16B7B032B29D12920FEF7DCFFA978002253B28B421F
:4012000002F1010203DAEF5C4448C754F6E7F36FC6F8803015E0542B15D16A78AB789A4211D1EB78162B0ED12A20FEF7C1FF0023E95C3B4A99540133402BF9D1F36FC6F83A
:4012400084300023F36603F0AFFF06E0637B2E4A072BF8D0136A013313622420FEF7A8FFF36E2A4D002B40F0DD832520FEF7A0FFD5F88430402B08D0D5F880300D2BC1BFFC
:40128000284A137843F002031370D6F880300E2193FBF1F201FB123222B122490A7842F004020A70292B05DD1E4A137843F008031370AEE00E2B40F0AC802620FEF778FFE7
:4012C000052003F049FF1549104A0B7B86F82A30637B023B012B27D891F904004B7903EB0023136091F90600CB7903EB0023536091F908004B7A03EB0023936091F90A00D5
:40130000CB7A03EB002313E00C81FF1F3482FF1FD084FF1F2686FF1F8A84FF1F7083FF1F2786FF1F4083FF1F0023136053609360D36094F824300BB1FEF7A4FE637B023B03
:40134000012B01D9FFF752FC10233168A360B369F768C3EB010A7168F369C84AC3EB0109336AB1680AEB0900C3EB0108736A4044FF1A10EB070BC24D45D0D38B107E584384
:4013800004F04AFE00908BEAEB70A0EBEB7004F047FE009B0146184604F04AFF4FF07E51834605F02FF870B32720FEF701FF504604F036FE594604F087FE05F04BF8AB6981
:4013C00018442860484604F02BFE594604F07CFE05F040F8EB6918446860404604F020FE594604F071FE05F035F82B6A1844A860384604F015FE594604F066FE05F02AF864
:401400006B6A1844E86000230122C6F88030F2662362D6F884309A4D402B40F003832820FEF7C6FE072003F047FE964BDFF894E21A794FF0020C02F00301A171C2F380016C
:4014400085F85C10C2F3C00184F82410C2F300112173C2F34011C2F380120132520084F82510227693F905109A7902EB0122228293F907101A7A02EB0122E2835A7A02F00E
:401480000301A174C2F38101E174C2F30111920962759A7A217502F00301A170C2F38101E170C2F3011192096271DA7A217102F00101A175C2F340012170C2F3800185F8B6
:4014C0005D10C2F3C0016974C2F30011E175C2F340116170C2F38011D209AA741A7B85F85E10AA8293F90D109A7B93F90F0002EB0122E2841A7C93F9111002EB0020624A83
:4015000080B210809A7C93F915B002EB012292B20092BDF8002093F9131022851A7D93F917A002EB012292B20192BDF8042093F9199062859A7D93F91B8002EB0B2B534ABD
:401540001FFA8BFBA2F800B01A7E93F91D1002EB0A2A4F4A1FFA8AFAA2F800A09A7E02EB09294C4A1FFA89F9A2F800901A7F02EB0828494A1FFA88F8A2F800809A7F02EB0C
:40158000012292B20292BDF80810444A118093F91F1093F8202002EB012292B20392BDF80C103F4A118093F822200492BDF810103C4A118093F9231093F8242002EB0122FD
:4015C00092B20592BDF81410374A118093F9251093F8262002EB012292B20692BDF81810324A118093F9271093F8282002EB012292B20792BDF81C102D4A118093F929108C
:4016000093F82A2002EB012292B20892BDF82010284A118093F92B1093F82C2002EB012292B20992BDF82410234A118093F92D1093F82E2093F9337002EB012292B20A92CA
:40164000BDF828101D4A93F93560118093F92F1093F8302002EB012292B20B92BDF82C10174A118093F9311093F8322002EB012292B20C92BDF8301026E000BF0C81FF1FE9
:401680003482FF1F2786FF1F8884FF1F0683FF1FB483FF1FD883FF1F4883FF1F5884FF1F4A84FF1F0883FF1F5283FF1FCC84FF1FC683FF1F3E83FF1F6E83FF1F6084FF1FBC
:4016C0000E83FF1F6284FF1FB54A118093F8342093F8381002EB0727B24ABFB2178093F8362002EB0626B04AB6B2168093F83720120102EB1112AEF8042002F0EF026CF3D3
:4017000046126FF3C7128EF80420090293F8392001F470611144AEF8061093F83A1093F83B20090101EB1211AEF80810120293F83C1002F470620A44AEF80A2093F83E205A
:4017400093F83D301B0103EB1212AEF80C2004F063FC964904F06CFDE0620D90584604F05BFC934904F064FD83462063504604F053FC8F4904F05CFD6063484604F04CFC12
:401780008A4904F055FD8B4A1060404604F044FC864904F04DFD884A1060029804F03CFC824904F045FD854A1060039804F034FC7F4904F03DFD824A1060049804F02CFC13
:4017C0007B4904F035FD7F4A1060059804F024FC774904F02DFD7C4A1060069804F01CFC724904F025FD794A1060079804F014FC6E4904F01DFD764A82461060089804F05F
:401800000BFC6A4904F014FD724A1060099804F003FC664904F00CFD6F4A804610600A9804F0FAFB614904F003FD6C4A10600B9804F0F2FB5D4904F0FBFC694A10600C9863
:4018400004F0EAFB594904F0F3FC664A1060384604F0E2FB554904F0EBFC634A81461060304604F0D9FB514904F0E2FC5F4A1060504603F0B5FF06460F46DFF884A140461B
:40188000CAE9046703F0ACFFCAE90E67CAE91867CAE92267CAE90201CAE90C01CAE92001CAE91601484603F09BFF06460F4609F10040CAE9066703F093FF0D9BCAE9106755
:4018C000CAE91A67CAE92467CAE90801CAE91201CAE91C01CAE92601184603F081FF02460B462BA1D1E9000104F0F8F8064694F838000F4603F062FF02460B46304639462E
:4019000003F0C2FF064658460F4603F069FF02460B463046394603F0B7FF1FA3D3E9002303F0B2FF04F072FA314B1860009804F073FB03F055FF00222E4B03F0A5FF0646CA
:4019400001980F4603F03AFF02460B463046394604F0C4F804F05AFA274B012218600023A37663762377E376EA662362C5F88430FFF742FB002845D095F88830062243F05C
:40198000040385F888301D4B07205A733BE000BFB81E85EB51B8AE3FCAE2FE23D32109402685FF1FB083FF1F1085FF1F0000C84200007A446883FF1F5883FF1FBC83FF1F7B
:4019C000FC82FF1FE085FF1F4483FF1FD083FF1F8C84FF1F5084FF1FD483FF1F5C83FF1F5483FF1F6083FF1FE083FF1F2C85FF1FCC83FF1F00004E40C883FF1F0C81FF1F8B
:401A00004881FF1F052003F057FB4FF47A7003F0A3FB074A537B042B04D0063B012B84BF0223537320200FB0BDE8F04FFEF7C0BB0C81FF1FAFF3008070B53E4B00201B7859
:401A400003F05AF8002003F035FD03F06DFA064603F0F2F9044602F0C7FF04EB860400EB0410354DC6B2F020FEF7A2FB6B7F334C1F2B2CD1D4F88C30B3F5007F1DD10120D4
:401A800003F03AF894F8903000220E2B96BF013384F8902084F8903094F89030C4F88C20EA719A0702D1012003F004FD94F89130022B04D103F078FB01E05B09EB71D4F8AF
:401AC0008C300133C4F88C3000236B7708E001336B77D4F88C300133C4F88C3072B662B6F120FEF765FBD4F88C30B3F5007F02D1002002F0C5FF0223C4F894306B7F5B0758
:401B000001D1FEF765FBF220FEF752FB00232B62FFF72EFBF020FEF74BFBF320FEF748FBFEF7A2FFF020FEF743FB3046BDE87040FEF73EBB034F00400C81FF1F3482FF1F22
:401B4000714B2DE9704300241C70704B02211C706F4B704E1C715C719C71DC711C725C729C72DC726C4B03221C806C4B32621C806B4B6C4D1C806C4BAC611C806B4BEC6115
:401B800019709921597091219970694B2C6283F8202001227273674A6C621470664A85F898401470654A85F888401470644ADC7614701C775C779C77DC77624B187800F0D8
:401BC0003F00187003F06CFA95F86230707E85F85F4003EB4000B37E85F8614003EB400095F8603085F8634003EB400095F8673085F8654003EB4000534CC0B2207001F080
:401C00000DFEB27B514B1A70B27B1A7495F85F2083F8202095F8612083F8302095F86630F07E03EB4000337F03EB400095F8643003EB400095F8673003EB4000C0B22070A9
:401C400003F046FAB27B424B424C1A70B27B1A7495F8632083F8202095F8652083F83020308D3C234343708D93FBF0F004F0D8F9394B3A4A18603A4BF06A1C60394B1A6051
:401C8000394A3A4B1A6003F0ABFD02460B461AA1D1E9000103F022FF804696F83800894603F08CFD02460B464046494603F0ECFD8046306B894603F093FD02460B464046B1
:401CC000494603F0E1FD0EA3D3E9002303F0DCFD04F09CF8264B4FF07E521860254B1A60254B264A1C60264BBDE870431A6001F037BA00BFAFF30080B81E85EB51B8AE3F20
:401D0000CAE2FE23D32109402686FF1F7486FF1F7083FF1F0C81FF1F1485FF1F1283FF1FE483FF1F3482FF1F7284FF1F6786FF1F1D83FF1F4984FF1F4083FF1F4C84FF1FA1
:401D40008A84FF1F5684FF1F3185FF1F0E6400400C64004000004040C883FF1F0000A0418C84FF1FD483FF1F00004041E083FF1FCC83FF1F5084FF1F5C83FF1F00002041DD
:401D80002C85FF1FAFF3008010B5C020FEF710FA03F00CF8074C84F83900C120FEF708FA94F83900FEF704FABDE81040C620FEF7FFB900BF0C81FF1F73B5C020FEF7F8F91F
:401DC000C620FEF7F5F965241E4D95F839302E469BB10DF1060002F0FDFF85F83900012003F0BAF9C120FEF7E3F9013C95F83900FEF7DEF914F0FF04E6D1BDF80630124C79
:401E0000C2202380FEF7D4F996F839203AB9238827339BB2B22B0DD98F2323800AE08F23FF2A238001D1102305E0102A0CBF4023802300E02023054AC3201370FEF7B8F93C
:401E400002B070BD0C81FF1F7C84FF1F4984FF1F38B50D4602F03EFF142003F07DF902F0FFFE002002F008FF074C30B102F016FF102390FBF3F0207001E0FE23237028464C
:401E8000FEF796F9207838BD7A84FF1F2DE9F0410C46984622B1042A28BF0422154600E0012503F0FDF884F0800003F07BFA00240020013403F076FAE3B2AB42F8D303F0AF
:401EC00065FA04469D26E3070CD4052003F044F903F05CFA013E16F0FF060446F3D10120BDE8F08103F06AFA094B00261F4603F8080003F063FA07EB080398550136F3B230
:401F0000AB42F6D3022003F027F92046BDE8F0810083FF1F2DE9F843C04DEB7913B9C04A82F8993003F00302022A00F05D82032A00F08282012A00F0CB81D020FEF738F92D
:401F40006B7B072B00F0B582B54CD12094F89930013384F89930FEF72BF9FFF72DFFB14B1A78B4F89A301344AC4A9BB2D279A4F89A300B2A27D9AC4A43F38D0393750023BC
:401F8000A4F89A3094F89930032B13D9A74B1B78202B0FD094F8983043F0400384F8983094F89C300133DBB2072B84F89C300AD907238FE094F8983023F0400384F8983092
:401FC000002384F89C30D720FEF7F2F8984EFFF7DBFE984FD220FEF7EBF80520B12130703970FFF735FFB4F89E308D4A1844EB7980B20B2BA4F89E00B04624D98A4BC0F3A2
:40200000870058750023A2F89E3092F89930032B10D91D280ED892F8983043F0010382F8983092F8A0300133DBB2072B82F8A03009D9BDE794F8983023F0010384F8983095
:40204000002384F8A030DF20FEF7B2F8EB790B2B1FD994F89930724E032B11D903F022FA70B196F8983063F07F0386F8983096F8A1300133DBB2072B86F8A13009D997E7F2
:4020800094F8983003F07F0384F89830002384F8A130D320FEF78CF86B7B604E062B00F00882F3790B2B2AD903F00CF8420794F898301DD443F0080384F8983094F8A230EE
:4020C0000133DBB2072B84F8A23008D9737B042B07D1062302206B7302F0EEFFE9E1032B0DD96B7B042B0AD04C4B04225A73E0E123F0080384F89830002384F8A2302B7E2D
:40210000464E022B4FF006093FD1D420FEF750F8B421484688F800903970FFF799FEB4F8A4303F4A1844F37980B20B2BA4F8A40040F28B803C4900230B74A2F8A43092F8D1
:402140009930C0F38700032BC87319D91D2817D892F8983043F0020382F8983092F8A6300133DBB2072B82F8A63001D9737B52E0032B6AD96B7B042B67D004236B7364E05E
:4021800094F8983023F002035AE0D520FEF710F8B421484688F800903970FFF759FEB4F8A430B5211844A4F8A400072088F800003970FFF74DFEB4F8A830DFF864901844F0
:4021C000F37980B20B2BA4F8A8003ED9B9F8A430154AC3F38703C0F38700D37310740022A9F8A420A9F8A82099F89920032A23D91D2B01D91D281FD894F8983043F0060337
:4022000084F8983094F8A6300133DBB2072B84F8A630ADD96B7B042BACD15AE70C81FF1F3482FF1F7C84FF1F1D83FF1F4984FF1F0583FF1F0483FF1F94F8983023F0060359
:4022400084F89830002384F8A630D620FDF7B0FFEB79A14F0B2B40F22C8102F027FF0646FEF71CFE02F040FFC30724D494F899309A4A032B1FD992F8883043F0040382F8E8
:40228000883092F8AA300133DBB2072B82F8AA3008D97B7B042B07D1062302207B7302F00BFF11E0032B0FD96B7B042B0CD08A4B04225A7308E094F8883023F0040384F826
:4022C0008830002384F8AA30304602F0E9FEF0E0834E4FF06F08834FD820FDF769FF40463B2104220023804C87F80080FFF7CEFD32787378404603EB022322681BB213444E
:402300002360B278F3783F2103EB022362681BB2134463600222002387F80080FFF7B6FD32787378B84603EB0223A2681BB21344EA79A3600B2A12D921686C4A88128910A6
:4023400011716168D07088128910917199129B10137200235071D17123606360A3604FF06F09D920FDF724FF432104220023484688F80090FFF78AFD32787378484603EBB3
:402380000223E2681BB21344E360B278F378472103EB022322691BB2134423610222002388F80090FFF772FD327873784E4F03EB02231AB263691344EA7963610B2A78D967
:4023C000F9684A4A8812891091723969507288128910117399129B1093730023D0725173FB603B617B6164E00B2B11D9DA20FDF7DFFE3F4B012018703E4B97211970FFF71D
:4024000027FD3D4A13881844384B187600231380EB790B2B4DD9DB20FDF7CAFE344B03201870344B99211970FFF712FD334A138818442E4B98763AE00B2B2D4E2D4C0FD9A4
:402440000027DC20FDF7B4FE9821384637702170FFF7FEFC2A4A138817801844234BD875EB790B2B0FD9DD20FDF7A2FE0220982130702170FFF7ECFC224A138818441B4BB1
:40248000587600231380DE20FDF792FE04209A2130702170FFF7DCFC1B4A13881844EB7980B20B2B108004D9104B8008D87600231380EB790B2B0AD9074A0C4B527B1A7739
:4024C000064A92F8881092F8982059779A77D020BDE8F843FDF76CBE0C81FF1F3482FF1F0083FF1F5684FF1FA084FF1F1D83FF1F0583FF1F0483FF1F6A86FF1FC483FF1F83
:402500001285FF1F6C83FF1FCE84FF1F38B502F043FF9D2400F0200000F0FF0548B1013C02F052FF02F038FF14F0FF04F2D101250DE002F02BFF9D24C30608D4013C02F053
:402540004FFF02F023FF14F0FF04F5D10225284638BD38B50D46144602F0A2FD284602F021FF204602F01EFF02F010FF04469D25E3070BD4052002F0EFFD02F007FF013D73
:4025800015F0FF050446F3D1012038BDFFF7BEFF204638BD38B5274C6F252846257002F07FFD02F065FFFFF7B1FF2078752101220023FFF76BFC1A2100223F232078FFF761
:4025C000C8FF142002F0C8FD1C2100221F232078FFF7BFFF142002F0BFFD2B466B2100222078FFF7B6FF142002F0B6FD37210222FF232078FFF7ADFF142002F0ADFD18223D
:4026000013461B212078FFF7A4FF142002F0A4FDFFF77CFF2078752101220023FFF736FC054A064B11685B780B441360BDE83840FFF76CBF5684FF1FA084FF1F0083FF1F39
:402640002DE9F843FFF7A0FBFFF77AFA62B602F045FA02F04FFC02F0FDF90320002102F083FD0020014601F0CFF901F057FB642002F072FD01F000FA0028F6D0484D01F043
:40268000F7FA0223474885F89130474E02F08AF902F07AFB4FF47A7002F05EFD0023337002F00AFB307802F015FB02F0CBFA02F02FFAFFF781FB3D4B3D4C98461A880727E2
:4026C000A275A37D782B23D9013F17F0FF070BD195F89830374943F04003072285F898304A732277A3774FE0FFF74EFB47F2305002F032FD47F2305002F02EFD47F23050DB
:4027000002F02AFDFFF758FBB8F80030A375D8E7294B1B78202BD7D1DFF8A08005209321307088F80010FFF793FB214B0727587514E047F2305002F00FFD47F2305002F045
:402740000BFD47F2305002F007FD05209321307088F80010FFF77CFB89F81500637DDFF850901D2B16D8013F17F0FF07E1D195F89830104943F00103072285F898304A73BA
:4027800089F81C2089F81E30022002F095FC0120BDE8F883FFF7FEFE0020BDE8F88300BF3482FF1F391A00000583FF1F7C84FF1F1D83FF1F0C81FF1F4984FF1F0483FF1FD2
:4027C0002DE9F041022002F077FCFFF739FF10B10A30C4B217E1062002F06EFC47F2305002F0BAFC894D47F2305002F0B5FC47F2305002F0B1FC2B7E854C864E06209921D9
:40280000022B2070317027D1FFF722FB04271D2831D8013F17F0FF070BD17F4A042192F89830697343F0020382F898307B4A117749E047F2305002F08FFC47F2305002F0A0
:402840008BFC47F2305002F087FC9921062020703170FFF7FDFADAE7FFF7FAFA9A218046072020703170FFF7F3FA0427B8F11D0F0AD91D2808D9072002F01EFC4FF47A70D5
:4028800002F06AFC04244EE0013F17F0FF0720D1614BB8F11D0F98BF93F898204FF004019CBF42F0020283F898201D2898BF93F8982069739CBF42F0040283F89820574AE7
:4028C00093F89830117707209377142402F0F4FB99E047F2305002F03FFC47F2305002F03BFC47F2305002F037FC9921062031702070FFF7ADFA9A2180460720207031700D
:40290000FFF7A6FAB2E7013C14F0FF0410D047F2305002F021FC47F2305002F01DFC47F2305002F019FC02F0DFFBC207EBD516E0394C94F8983043F0010384F89830042332
:402940006B73FEF7ABFA28B194F8883043F0040384F88830072002F0AFFB282453E00426FEF7B4F9044668B3013E16F0FF061CD1294C94F8983043F0010384F8983094F8DA
:40298000883043F0040384F8883004236B73FEF785FA28B194F8883043F0040384F88830072002F089FB32242DE047F2305002F0D3FB47F2305002F0CFFB47F2305002F054
:4029C000CBFBCDE7052002F077FB02F08DFBC30716D4FEF763FA104B28B193F8882042F0040283F8882093F89820022042F0010283F8982004236B733C2402F05DFB02E034
:402A0000072002F059FB2046BDE8F0810C81FF1F0583FF1F0483FF1F3482FF1F1D83FF1F2DE9F8430020FDF7C3FB00F015FC10F0FF0F02D09920FDF7BBFBFFF7C1FE3B4B83
:402A40003B4F5A7B9846072A04D0FFF79DF9002387F89130374B98F80D201E461A7797F888205A7797F898209A771020FDF7A0FBD7F894302E4C022B51D11120FDF798FBBE
:402A80002068FDF795FB1120FDF792FB98F81D50DFF89890102D21D01BD80A2D3BD11220FDF786FBFDF72EFC1320FDF781FB99F80D30337794F88830737794F89830B3776C
:402AC000FDF7CCFC1420FDF773FBFDF7CDFE15200AE0142D0ED01F2D13D01CE01720FDF767FBFDF75DFF2846FDF762FB0023C4F8943017E02020FDF75BFBFFF70BFA102071
:402B0000F2E799F807300C2B02D11E20FDF750FB1020FDF74DFB0023C7F8943002E00A2002F01AFB1020FDF743FB9EE70C81FF1F3482FF1F1D83FF1F2DE9F843404E414DB7
:402B4000D6E90089D5E906234046494603F022F93D4C30B9D5E908234046494603F010F930B1D4F8F43000200021C3E9000106E0D4F8F410354BD3E90023C1E90023D6E937
:402B80000489D5E910234046494603F003F938B92C4B4046D3E91223494603F0F1F830B1D4F8F43000200021C3E9020106E0D4F8F410264BD3E90223C1E90223D6E9088961
:402BC000D5E91A234046494603F0E4F838B91D4B4046D3E91C23494603F0D2F830B1D4F8F43000200021C3E9040106E0D4F8F410164BD3E90423C1E9042306F13007D7E954
:402C00000067D5E924233046394603F0C3F810B1D4F8F43009E00B4B3046D3E92623394603F0AEF8D4F8F43010B10020002102E0064AD2E90601C3E90601BDE8F88300BF8A
:402C40004088FF1F4881FF1F7886FF1FC088FF1F2DE9F04F0A4C91B094F8ACB1BBF1010F10D1D4F89801013002F098FD04F5D073D3E9002302F008FEC4E908010EE000BF00
:402C80007886FF1FBBF1000F08D1D4F884301B68D3E90001D4F8B031C3E900019D4B9E4C186802F09DFDD4E90223CDE9000102F0EBFDCDE90201DDE90223D4E9000102F0A5
:402CC0002FFC80468946954B954DC3E90089D5E90201944BD3E9002302F0D6FDD5E9042306460F464046494602F0CEFD02460B463046394602F016FCD5E9066732463B46CB
:402D0000CDE9040103F046F8A04650B9D5E90867DDE9040132463B4603F032F808B9DDE90467DDE90223DDE900017F4C7C4DC4E90067C4E90223D8E9062302F0A5FDCDE958
:402D40000201DDE90223D8E9040102F0E9FB80468946D5E90C01714BC3E90289714BD3E9022302F091FDD5E90E2306460F464046494602F089FD02460B463046394602F0BC
:402D8000D1FBD5E9106732463B468046894603F001F850B9D5E912674046494632463B4602F0EEFF08B946464F46DDE90223DDE90001594DC4E90467C4E90623D5E90A2358
:402DC00002F062FDCDE90201DDE90223D5E9080102F0A6FB80468946504BDFF844A1C3E90489DAE916014F4BD3E9042302F04CFDDAE9182306460F464046494602F044FDE6
:402E000002460B463046394602F08CFBDAE91A6732463B468046894602F0BCFF50B9DAE91C674046494632463B4602F0A9FF08B946464F46DDE90223DDE90001C4E9086765
:402E4000C4E90A23D5E90E2302F01EFD06460F46D5E90C0132463B4602F062FB04460D462E4BDFF8BCA0C3E90645DAE920012D4BD3E9062302F008FDDAE9222380468946B3
:402E80002046294602F000FD02460B464046494602F048FBDAE9244522462B468046894602F078FF50B9DAE926454046494622462B4602F065FF08B944464D461A4BBBF1FE
:402EC000010FC3E90C45C3E90E6740F03181174BD3F884201268D2E900019A6ACDE90401D3E90801CDE90A01D2E90001D3F88C20CDE9000114681A69002117685568966832
:402F0000D26804F120000892DA681170224639460EE000BFCC83FF1F8088FF1FC088FF1F4881FF1FE088FF1F4088FF1F7886FF1F52F804EB824241F804EBF9D1D3F880307F
:402F4000083C1D60FFF7F8FDDDE90001804B002202F09AFC083D82468B46A046A946A7F10803029307F11803029F0993F9E902235046594602F088FC0B460246F7E9020100
:402F800002F0D0FA099BE8E902019F42EED1DDE90401DFF8C4815246D8F88430A2461F685B4602F0BFFAD8F88030C7E900011E60FFF74EFEFFF7C0FDDDE9000100220023CF
:402FC00002F062FC0022CDE90C01DDE90001614B02F05AFC083EB346AC46CDE90601029FFCE90223DDE90C01CDF838C0CDF83CC002F04AFCFBE9022380468946DDE9060154
:4030000002F042FC02460B464046494602F08AFA0B460246F7E9020102F084FA099BEAE902019F42DDF838C0DAD1DDE90401DFF828814FF0000AD8F884301F68DDE90623EF
:4030400002F070FAD8F88030089AC7E900011A60FFF7FEFDFFF770FDDDE9000136A3D3E9002302F011FC36A3D3E90023CDE90401DDE9000102F008FC33A3D3E90023CDE93A
:403080000601DDE9000102F0FFFB089BCDE90001A3F10807F5E90223DDE9040102F0F4FBF6E9022380468946DDE9060102F0ECFB02460B464046494602F034FAF7E9022398
:4030C00080468946DDE9000102F0DEFB02460B464046494602F026FA80468946029B4246F3E9020102934B4602F01CFA0AF1010ABAF1040FE4E90201CCD1DDE90A01164BBF
:40310000D3F884201268C2E90001DA6801211170D3F898210A44C3F89821D3F8B021D3E90801C2E90001D3F8A8210132C3F8A82111B0BDE8F08F00BF1CC7711CC771CC3F20
:40314000555555555555D53F1CC7711CC771DC3F0000E03F0000E83F7886FF1FAFF3008038B5354C002120464FF4E47203F0BEF904F1F402C4F8802004F1F002C4F88C2028
:4031800004F5C872C4F88820012284F8AC2104F58072C4F8802104F59072C4F8842104F5A072C4F8882104F5B072C4F88C2104F5C07204F5D6732261204A214DE36004F570
:4031C000D873C4F88430626104F5D07304F5DC721C49A362C4F8B021C4F8C840A460C4F8F05000202024C3E9000122460021164803F07CF9224600214024284603F076F9F6
:4032000000212246114803F071F900212246104803F06CF90F4BD3E90001C5E90001D3E90A01C5E90201D3E91401D3E91E23C5E90401C5E9062338BD7886FF1F0C650000FE
:40324000E088FF1F0000B03FC088FF1F8088FF1F4088FF1F4881FF1F00F000B872B62DE9FE5F4FF0AA30B0F1AA3F40F09F804FF05530B0F1553F40F099804FF0AA31B1F14D
:40328000AA3F40F093804FF05531B1F1553F40F08D804FF0AA32B2F1AA3F40F087804FF05532B2F1553F40F081804FF0AA33B3F1AA3F7BD14FF05533B3F1553F76D14FF024
:4032C000AA34B4F1AA3F71D14FF05534B4F1553F6CD14FF0AA35B5F1AA3F67D14FF05535B5F1553F62D14FF0AA36B6F1AA3F5DD14FF05536B6F1553F58D14FF0AA37B7F1F4
:40330000AA3F53D14FF05537B7F1553F4ED14FF0AA38B8F1AA3F49D14FF05538B8F1553F44D14FF0AA39B9F1AA3F3FD14FF05539B9F1553F3AD14FF0AA3ABAF1AA3F35D1D7
:403340004FF0553ABAF1553F30D14FF0AA3BBBF1AA3F2BD14FF0553BBBF1553F26D14FF0AA3CBCF1AA3F21D14FF0553CBCF1553F1CD14FF0AA3EBEF1AA3F17D14FF0553E60
:40338000BEF1553F12D168460B498D468D4518BF85460BD109498D468D4518BF854605D185464FF00000BDE8FE5F70474FF00100BDE8FE5F704762B6A8AAAAAA5455555586
:4033C000FEE7000008B51148114AC8B1A2F1100132C9234604391E1BAE4204D051F8046F43F8046BF7E71D4652F8041C5C1B8C4203D0002443F8044BF8E701381032E4E7C0
:4034000003F04EF8FFF70CFBFEE700BF010000006C67000008B5114A114B1A60114A136843F4007313600023032B98BF0E4A4FEA830094BF52F823100C490D4A0133302B36
:403440001150F1D10B4B19780B4B19700B4B1A6000F052F80A4B00221A6008BD0004FA050CED00E014ED00E000000000C13300000080FF1FBC7600400481FF1F08ED00E06A
:403480000081FF1F072810B514D80B4A4000C0B252F8201013180C7893F8403023430B70431CD8B252F82010104490F840300A7813430B7010BD00BF14650000072810B586
:4034C00016D80C4A4000C0B252F82010131893F840400B7823EA04030B70431CD8B252F8201010440B7890F8402023EA02030B7010BD00BF146500002DE9F04172B6A14A06
:403500000024137843F0040313709F4A062303FB04230021186DB3F85420013402F0E6FF062CF2D1994C9A4B0FCB84E80F009948002450F8041F04F1105303F1580221F0DC
:40354000FF055933C9B20B4452005B0002329A4205D012F8026C12F8017CAF55F6E78E4B0C449842E5D18D4A8D4C13788D4D43F002031370137CDFF89C8243F002031374B3
:403580002378A2F5863243F040032370413A137843F010031370844B03CBC2F8400DC2F8441D93E8070003C52A80804A804B1068253343F8250C127903F8212C7D4A07CA5A
:4035C00003C31A807C4AE83B07CA03C31A807B4A083307CA03C31A80794A083307CA03C31A80784A083307CA03C31A80764A083307CA03C31A80754A754BA2F5646203CBED
:40360000C2F8400EC2F8441E1378002143F008031370704B01221A706F4AA3F5B4731F78118019219170072191806C4918221F200A70488027200A71C8800A72684A0621AE
:403640001170F321917203221A70664A84211170052102F8011C013A1D461646FFB233789A0606D44FF4F07001F066FDB8F10108F5D143F213325C4B2F701A80052203F835
:40368000022C13F8022C023B43F2C8261D462B781B0606D54FF4F07001F04EFD013EF6D1FEE74FF0402340221A70702283F8002240F61802A3F8222241F251221926A3F80B
:4036C00020220025494B4FF4F0701B7803F0010343EA450501F030FD013E05F003054FD0032DEFD1424A4FF480731380414907231370482000230B708870137053713E4B68
:4037000002221A703D4A3E4F1378DFF80C8143F00F0313703B4B02F5A6521B783D78DBB298F8006003F00701EDB20C321B091170F6B2537045F003033B7046F0030388F84C
:403740000030314B60221A70B02283F8F721102283F81F22202283F82222122283F84F220A2001F0F9FC294B88F8006044223D70274D1A7094E80F0007C52B80BDE8F08190
:40378000FEE700BFE8460040146500000050014044110048FCFFFF47AC00004803500140A0430040C05100405411004868110048CB510040701100487C11004888110048CA
:4037C00094110048A0110048AC11004862510040B811004800480040804000408640004000430040094300401242004025420040044000400640004001400040A243004052
:40380000F8460040CF0100490959004076580040B0430040A0860100F9460040014B1870704700BF7E640040F8B501F08DFC404A02251378012743F001031370137C3D4C9F
:4038400043F0010313743C4B02F5E3521F700B3203F8945C1378064603F07F031370002001F07AFC2378354A03F0F90323701378384603F0DF03137023783B43237001F030
:403880006BFC282001F068FC2D4B28461A7802F07F021A701A7802F0BF021A7023782B43237001F059FC2378264A43F004032370002313703046537001F04AFC1720072191
:4038C00001F086FC2049172001F074FC1820072101F07EFC1D49182001F06CFC1520072101F076FC1A49152001F064FC2846072101F06EFC2846174901F05CFC0320072196
:4039000001F066FC1449032001F054FC0420072101F05EFC1149042001F04CFC0C20072101F056FCBDE8F8400C200D4901F042BCA5430040944300409D6000401260004012
:40394000F851004084600040774200008940000075420000C9410000FD410000354200007B42000008B51C4B1C4A1870002313701B4A13701B4A13701B4A13701B4A13708D
:403980001B4A13701B4A13701B4B4FF400021A604FF080721A604FF400121A6004221A6008221A6010221A60144B19B91A7802F0FE0202E01A7842F001021A70104B032240
:4039C0001A70802203F8202C012001F0B5FB0D4B04221A7008BD00BFA189FF1FA089FF1F1489FF1F1589FF1F1689FF1FA489FF1F1789FF1F1389FF1F00E100E00960004016
:403A0000286000401260004070B5074C064623780D461BB9FFF708FF0123237030462946BDE87040FFF79EBFE482FF1F0A4A002313700A4A13700A4A13700A4A13700A4AEE
:403A400013700A4A13700A4A13700A4B03221A70802203F8202C7047A089FF1F1489FF1F1589FF1F1689FF1FA489FF1F1789FF1F1389FF1F28600040014B1878704700BF19
:403A80001589FF1F024A0C2303FB0020407870473289FF1F431E072B9FBF084B074A00011B189FBF805C5B7800F00F0043EA00209ABF023880B20020704700BFFC5F004051
:403AC000431E072BF0B531D8194B0C2505FB0035EC88184EA4B2C4F50074A2424FF00C0404FB003488BFEA88E57884BFC2F5007292B2104C45EA12250701BD553C44D5B24F
:403B0000657041B90C2202FB0030002343704379DBB2A370F0BD0E46751AADB29542F1D216F801EB044D05F807E0F5E7F0BD00BF3289FF1FFC5F004078600040431E072B0A
:403B40000AD8064A0C2303FB002300225A705A79034BD2B200011A54704700BF3289FF1FFE5F004070B5064614460D46C9B1431E072B18D8FFF78EFF844203D93046FFF72B
:403B800089FF04462A46531B9BB2A34205D2074B31015B5C02F8013BF5E73046FFF7CEFF02E00C4600E00024204670BD7860004030B500210446FF20074B0C255A5C074BE9
:403BC00005FB023308339B78A34201D1084630BD09B90121F0E730BD0489FF1F3289FF1F10B51E4C2079FFF7E3FF237813F0800F63780DD0212B2ED1BDE81040184B0722D3
:403C00001A80184AC0EBC0001044586000F092BADBB2202B0ED0222B1DD1A378124A22F81030124A135C43F002031354BDE8104000F060B90A4A07230A491380C0EBC003D9
:403C40000B445360094A135C43F001031354BDE8104000F095BA002010BD00BF006000402489FF1FE881FF1F0C89FF1F0A89FF1F10B5164A00231370154A164C13705370DA
:403C80002078C0B2431E072B01D8FFF757FF6078C0B2431E072B01D8FFF750FF0E4A13788BB123787BB10D4B197861B11278082A09D8084A1278082A05D81878082894BFCB
:403CC0000020012010BD012010BD00BFE582FF1F0A89FF1F0289FF1F0089FF1F0489FF1F0A4610B504460A4B0A491B78C85C0A49C0B20C2303FB0013198989B28A4288BF25
:403D00001A892146BDE8104088BF92B2FFF7D8BEE582FF1F0089FF1F3289FF1F024B034A1B78D05CFFF7AEBEE582FF1F0289FF1F024B034A1B78D05CFFF7A4BEE582FF1F49
:403D40000089FF1F064B074A1B780146D05C064AC0B20C2303FB00231A8992B2FFF702BFE582FF1F0289FF1F3289FF1FC37890F9020003F0030300280FDA032B15BF0C4817
:403D80000C4802F00103C2F3800319BFC15442F00102C15442F0040207E0032B1FBF0648C2F34003C15442F002021046704700BF0089FF1F0489FF1F0289FF1F30B51A4A7E
:403DC0001A490878138803449BB213800023184AD8B21488A4B284B1082B0DD05068154C0078C0B2E05450680133013050601088013880B21080EAE718460B780E4C082B02
:403E00000E4A00D040B10E4D2B7883F080032B700F232370022301E0022323701370094B1870087030BD00BF9E89FF1F1389FF1F2489FF1F006000401289FF1FA089FF1F6A
:403E40001889FF1F3089FF1F074B02221A70074B80221A70064B0F221A70064A00231370054A012013707047A089FF1F1889FF1F1289FF1F1389FF1F3089FF1F10B5164B0C
:403E800016491B780A8803F00F03023BDBB21A4492B20A800020124A118889B281B17BB110495468095C013BC9B221705168DBB20131516011880130013989B21180EAE749
:403EC000094A1370094A137883F080031370084B0B221A7010BD00BF296000409E89FF1F2489FF1F006000403089FF1F1889FF1F1289FF1F064A06231370064A0120137047
:403F0000054B80221A70054B00221A70704700BFA089FF1F1289FF1F1889FF1F3089FF1F054B9A683AB19A68044910709A680988518000229A6070472489FF1F9E89FF1FAA
:403F400008B5124B1A78D2B21A701B78DBB21A0602D50F4A137008BD0220FFF7E1FF0D4B1B7803F06003202B05D0402B06D043B900F0C8FB04E001F0A9FA01E000F0FCFC45
:403F800010B9034B03221A7008BD00BF286000401289FF1F0060004008B5084A084B0120197813880B449BB21380064B00221A70FFF7B6FF044B03221A7008BD9E89FF1F08
:403FC0001389FF1FA089FF1F1289FF1F08B50C4B1B78DBB2042B07D0062B09D0022B0DD1BDE80840FFF7D8BFBDE80840FFF746BF0320FFF795FF034B03221A7008BD00BF28
:40400000A089FF1F1289FF1F08B5054B002201201A70FFF785FF034B03221A7008BD00BFA089FF1F1289FF1F08B50A4B1A7832B11A78094942F080020A7000221A70074B14
:40404000002201201A70FFF76BFF054B03221A7008BD00BFA489FF1F08600040A089FF1F1289FF1F074B1B78DBB2042B05D0062B05D0022B05D1FFF7A1BEFFF7C5BFFFF759
:40408000D3BF7047A089FF1F10B51D4C2378DBB2DA0634D518060AD503F00F03012B2ED1FFF74EFF174B1B78190609D510BD5A0602D5FFF7D7FF03E09B0620D5FFF786FF0B
:4040C00023781B061BD4104B104A1B78127813430F4A13701278934211D10A4A084913782078DBB200065FBF1378DBB20B700B78127858BF03F00F039342EED110BD10BD6D
:40410000286000401289FF1F1889FF1F3089FF1F29600040054A00231380054A916819B191680B7092685380704700BF9E89FF1F2489FF1F10B50E4C23889BB213B9FFF7E8
:4041400083FE13E00B4B02221A700B4B00221A70FFF7E0FF094AD1799379228843EA012392B29A4288BF2380FFF728FE012010BD2489FF1FA089FF1F1889FF1F00600040C7
:4041800008B50C4B04221A700B4B80221A70FFF7C1FF0A4A0120D179937943EA012308490A8892B29A4288BF0B80064B0B221A7008BD00BFA089FF1F1889FF1F00600040E0
:4041C0002489FF1F1289FF1F094A137803F0FE031370084B9B7C084B1A7B02F00302012A1EBFDA7B82F08002DA7301225A7370470B600040FC5F00403289FF1F0A4A13785A
:4042000003F0FD031370094B93F82230084B1A7E02F00302012A1EBFDA7E82F08002DA7601225A76704700BF0B600040FC5F00403289FF1F0C4A137803F0FB0313700B4B1E
:4042400093F832300A4B93F8242002F00302012A1EBF93F8272082F0800283F82720012283F82520704700BF0B600040FC5F00403289FF1F7047FFF7D9BB00F03DBF000001
:4042800070B50446194B88B003AA03F11006154618685968083303C5B3422A46F7D11B782B7004B32223237001AD03232846637000F098FF20460022AB5C08A901EB1311C7
:4042C00008AC03F00F0311F8141C234413F8143C01328170082A4FF00001C1700371417100F10400E8D108B070BD00BF88650000F0B5012216490C25164B05FB02161401F8
:4043000023441D7014487779204437B13479240601D5857003E0082400E0802484700C2000FB0211C8880132C0B29871C888092AC0F30720D871C888C0B21871C988C1F39A
:4043400007215971D6D1054BFF221A70F0BD00BF3289FF1F70600040FC5F00400A600040064B074A1B7802EBC30253681A7C824286BF03EBC003586900207047A189FF1F3D
:40438000E0650000F8B5334B1A78002A61D018780138C0B2FFF7E4FF2F4AC3681478067AE4B203EBC606B34253D01A78A2424ED12A4A5978125D914249D19A780C2502F009
:4043C0007F077D43264A4FF0000E5119D87881F803E093F802C000F0030081F804C093F803C002F805C09D880D8193F90250754507DA01280CBF07200D2048710120487014
:4044000006E001280CBF05200920487181F801E014493D012944012088700C2000FB07221089C0F3072008701089C0B24870D0880D49C0B229448871D088C0F30720C87131
:40444000D088C0B20871D288C2F307224A710833A9E7F8BD1589FF1F1689FF1F2089FF1F3289FF1FFC5F00407060004008B5064B18780138C0B2FFF773FF20B143681B7901
:4044800000EBC300406908BD1589FF1F2DE9F04700210C244C43524D013100232A1909292B559370D3701381937253705371F0D128B14C494C4A0B7013704B7053704B4BD1
:4044C0001A78002A00F08980187801270138C0B2FFF746FF80464368067ADB79F60013F0400F434B1A7814BF42F0010202F0FE021A700022D8F80C405FFA87FA04EB060922
:404500004C453CD0A07800F07F039F4235D10C2303FB07531989B4F804E089B2714538BFA3F808E02F492378CB5C6178994224D10C2179436B181871E078685494F90200CE
:40454000E178002801F0030106DA01290CBF07210D215971012105E001290CBF05210921597100215970A37903F0F703022B04D120465146FFF7FAFB02460834C0E701377A
:40458000092FB7D1D8F80C300A369A1C1E440832B2420AD012F8083C0C2003F07F0300FB035312F80A1C9972F1E7FFF75FFF114B0121186000230C2202FB0152D3801289A3
:4045C000013113449BB203F00102134409299BB2F1D1BDE8F047FFF78BBEBDE8F08700BF3289FF1F2089FF1F1089FF1F1589FF1F1789FF1F1C89FF1F114B1B7903F07F0368
:404600005A1E072A19D80F490C2202FB031291781B0141F0010191700021D170517841F002015170127912F0800F074A1A4414BF8D2389239370FFF75DBC0020704700BF2D
:40464000006000403289FF1FFC5F004030B5184B1A7902F07F02531E072B26D8154B0C2000FB02339978144C01F0FE0199700021D970120110497F25155511445A7802F014
:40468000FD025A701A795B78120605D5012B01D1887006E00D2303E0012B0CBF082309238B70BDE83040FFF725BC002030BD00BF006000403289FF1FFC5F004038B50D4B90
:4046C0000D4D2C791878E4B20138C0B2FFF748FE43681B79A34201D2022C09D8074A0849135D0120DBB20B55AB78DBB2135538BD002038BD1589FF1F006000402089FF1F43
:404700001089FF1F38B58A4A8A4C13780021DBB221801806517840F18D800A2900F20681DFE811F05D00040104010401040104010B0004017E0004018200D2787C4B012AF1
:4047400009D17D4B1A787D4B03EBC2035B685B686360122310E0DA78022A12D19878FFF7FFFD002800F0E280436863606368DA7863689B7843EA02232380BDE83840FFF7CE
:40478000D9BCDB78032B26D16D4B0021684AC8B29578854208D891786A4AEE2908BF1346634A917881B106E0187801310028F2D01A781344EAE764499278097C914203D128
:4047C0006248FFF75DFD614B1A78002A00F0AE801A78228018E0BDE8384000F077BE13F0030313D0022B40F0A1802380504B0C211B7903F07F02564B01FB02339A78554B6A
:40480000D2B21A7000225A706360B6E702222280514A11784F4AC9B2117053706260ACE7012323804D4BEFE70123238013794C4A1344E9E701390A2978D8DFE801F037771F
:404840004F77067777770A7720009378454ADBB25AE0937803F0FF0453B9404B1A78944260D01C70404B01201870FFF70FFE59E0601EC0B2FFF774FD0028EED156E0FFF76F
:404880001DFF002852D02A4A384913791279DBB2D2B20A70364A3249D25CCB5C9A4241D0314B01221A70FFF76DFD3BE003F00303012B2BD009D3022B38D11D4B9B78002B42
:4048C00034D1BDE83840FFF7C1BE194B9B78012B2CD1214A137803F0FD0315E003F00303012B13D008D3022B20D1114B9B78EBB9BDE83840FFF780BE0D4B9B78012B15D1C1
:40490000154A137843F0020313700BE0084B1A79012A0BD898781B791649DBB2CA5C22EA0002CA54BDE83840FFF7E4BA002038BD006000402489FF1FA189FF1FE065000053
:4049400044660000CC65000026670000B289FF1F3289FF1FE682FF1F1789FF1F1589FF1F2089FF1FA489FF1F1489FF1F1689FF1F1089FF1FA289FF1F074B1A78120609D539
:404980005B78012B06D1054B054A5A6012781A80FFF7D0BB00207047006000402489FF1FA4650000084A4FF40033136002F688321268E021C2F88400044A11706FF444714B
:4049C0000A441360704700BF80E100E011E400E0044A137803F00F0343EA0010C0B21070704700BF20510040014B18780009704721510040024A137843F080031370704721
:404A000078650040034B1B781B0702D5024B1B78F8E7704763640040436400400A4A08B50223137002F8203C00F08EFB074A137843F01003137000F08BFBFFF7E3FF044B51
:404A400000221A7008BD00BF23640040936400408364004010B5054C23781BB9FFF7DEFF01232370BDE81040FFF7C4BFE882FF1F024A137843F080031370704777640040FA
:404A8000014B1870704700BF06640040034B1B781B0702D5024B1B78F8E7704766640040466400400A4A08B50723137002F8203C00F04AFB074A137843F01003137000F0E0
:404AC00047FBFFF7E3FF044B00221A7008BD00BF26640040966400408664004010B5054C23781BB9FFF7DEFF01232370BDE81040FFF7BEBFE982FF1F044A0001137800F025
:404B0000100003F0EF030343137070470051004038B500F019FB204A04461378022543F002031370137C0A2043F00203137412F8093C43F0080302F8093CD37943F008038F
:404B4000D37102F5AB52137843F003031370134B18221A7013F8012C42F0400203F8012C13F8012C02F0FC0203F8012CCE2203F8062CA3F597530A4A183B1D70137843F0DF
:404B80000803137000F0E8FA064B20461D60BDE8384000F0DDBA00BFAB4300400E5900402F5B004080E200E0082804D00A280CBF8223C22300E0422308380E4AC0B2042817
:404BC000137098BF0C4B4FF0000298BF33F910100A4B88BF11461A8042F210734B4341F2883103F6C41393FBF1F305490B60054B1A8070470A5900409A650000A889FF1F55
:404C0000AC89FF1FAA89FF1F08B5102000F07CFA0120072100F0DCFA0749012000F0CAFA064A0C20137843F006031370FFF7BCFF034B00221A8008BDB54C00000959004060
:404C4000B089FF1F10B5054C23781BB9FFF7DCFF01232370BDE81040FFF75ABFEA82FF1F044B1A7802F0FB021A701A7842F001021A7070470859004038B5074D2C7814F056
:404C8000010403D10028F8D0002403E0204600F063FA2B78204638BD09590040034A044B1B881088181A00B2704700BFAA89FF1FA25B00407047000010B50024E0B20134AB
:404CC000FEF7FCFB082CF9D1014BFF221A7010BD0082FF1F38B5064B054618781C46FF2801D0FEF7EBFB2846FEF7CCFB257038BD0082FF1F044A137843F002031370137CA1
:404D000043F0020313747047A8430040054B00F002001A7802F0FD021A701A7810431870704700BF24580040064B074A1B78C3F3810303F19243063393F83031DBB2137077
:404D4000704700BF2458004009460040054B00F00C001A7802F0F3021A701A7810431870FFF7E2BF2458004010B5064B00241C7004205C70FFF7EAFF2046BDE81040FFF77D
:404D8000C5BF00BF2458004010B5064C23781BB9FFF7EAFF01232370FFF7ACFF024B9C221A7010BDEB82FF1F815B004010B500F051FA00F095FA50B9012000F077FA0728F5
:404DC00014BF4FF0FF34072400F0AAFA00E00424204610BD37B5114B05461A78920713D41C78A4080ED101A8022100F045FA02280CD19DF80430012B9DF8053018BF5B427B
:404E00002B8005E0072405E0102401E04FF0FF3400F086FA204603B030BD00BF22470040044A0001137800F0300003F0CF0303431370704760510040024B1878C0F301109C
:404E4000704700BF615100401D4A137803F0010313701C4B1A7802F0FC021A701A7802F0F3021A701A7842F00C021A701A7802F07F021A701A7842F080021A701A78D2B217
:404E80001A705A7A02F0CF025A725A7A42F030025A725A7A02F0F0025A725A7A42F00F025A72094A137843F00103137040F67133A2F80330A2F80530044B08221A707047D2
:404EC000004F0040024F0040014F0040034F0040074A137843F001031370137C43F00103137492F85D3B43F0010382F85D3B7047A343004010B5054C23781BB9FFF7A4FF27
:404F000001232370BDE81040FFF7E2BFEC82FF1F044A137803F03F0343EA8010C0B21070704700BF60510040014B1878800970476151004008B500F007F90B4A137843F0B0
:404F400020031370137943F0100313716FF480731A44137843F01003137000F0F9F8BDE8084000F0DBB800BF95650040014B1878704700BF69650040014B1878704700BF31
:404F800064640040034B1B785B07FBD5024B1880704700BF6965004048650040014B188880B2704758650040024B1878C0F34010704700BF64640040034B1B789B0602D5F7
:404FC000024B1B88F8E77047646400405865004008B500F0B9F80A4B1A7842F001021A701A7802F0FE021A705A7842F001025A705A7802F0FE025A70BDE8084000F0A8B878
:405000009865004008B50F4B1B789B0602D50E4B1B88F8E700F098F80C4B1A7842F001021A701A7802F0FE021A705A7842F001025A705A7802F0FE025A70BDE8084000F0C4
:4050400087B800BF64640040586500409865004008B5084B1F221A70FFF7D4FF064B074A1B78074B6FF482711B78002313700A44137008BD8565004069650040896500403A
:405080006464004010B5054C23781BB9FFF7E0FF01232370BDE81040FFF74CBFED82FF1F014B1870704700BF76640040014B1878704700BF76640040014B1870704700BF3A
:4050C00072640040014B1878704700BF72640040014B1870704700BF73640040014B1878704700BF60640040024B187800F00100704700BF21510040024B1878C0F3801065
:40510000704700BF8F450040034A00F0F800137803431370704700BF8E400040044A137843F002031370137C43F0020313747047A2430040000000000230800803D000BFCE
:4051400001380046FCD17047EFF3108072B6704780F31088704700BF024B1B7A5843FFF7EBBF00BF0482FF1F0E4B00F003001A78490102F0FC0202431A701A7801F060010F
:4051800042F080021A701A7802F07F021A701A7802F09F020A431A701A7842F010021A70704700BF83430040014B01221A70704784430040054A00F01F00126800F11003B7
:4051C00052F8230042F82310704700BF08ED00E000F01F0000F16040490100F56440C9B201707047134B144A1B78DBB20360127843EA0223114A0360127843EA0243104A35
:405200000360127843EA026303600E4B0E4A1B78DBB24360127843EA02230C4A4360127843EA02430A4A4360127843EA02634360704700BF0301004904010049EC4600400E
:40524000020100490101004900010049050100490601004908B5FFF777FF064A137843F008031370137C43F008031374BDE80840FFF76EBFA043004070B50E464B1E451E1D
:40528000C418A5420CD0074B1B78DB0703D40120FFF762FFF7E7044B1B7805F8013FF0E7304670BD22470040204700400A4A137899070CD5094BB6211970E12119700E21A4
:4052C00019701278920704D4187007207047042070470920704700BF224700402047004038B5FFF731FF0C4A147874B901250B4915700B682B400AD00B6823F001030B602C
:4053000000BF00BF00BF556002E0042400E01C46FFF71EFF204638BDF082FF1F0400084010B5FFF711FF094B00215A681970012A08D1074C226842F00102226000BF00BF44
:4053400000BF5960BDE81040FFF702BFF082FF1F0400084008B5FFF7F7FE0B4A137843F02003137012F8013C43F0100302F8013C12F8033C43F0100302F8033CFFF7E8FE64
:40538000BDE8084000F082B89D640040014B1878704700BF6C640040014B1878704700BF6A640040034B1B785B07FBD5024B1870704700BF6C6400404A640040014B18789B
:4053C000704700BF5A640040034B1B789B0602D5024B1B78F8E770476A6400405A64004008B5FFF7B1FE064B1A7842F001021A701A7802F0FE021A70BDE80840FFF7A8BE03
:405400009A64004008B50B4B1B789B0602D50A4B1B78F8E7FFF798FE084B1A7842F001021A701A7802F0FE021A70BDE80840FFF78FBE00BF6A6400405A6400409A640040D2
:4054400008B5074B0F221A70FFF7DCFF054B064A1B78064B1B780023137002F8023C08BD8D6400406C6400408C6400406A64004010B5054C23781BB9FFF7E2FF0123237045
:40548000BDE81040FFF766BFF882FF1F044A137843F004031370137C43F0040313747047A2430040024B1878C0F38000704700BF41510040044A0001137800F0100003F05D
:4054C000EF03034313707047C05100400F4A137803F00303012B0BD0022B0CD113790C2103F07F020A4B01FB023308339B7800E01379DBB200E00023064A1268D35C022BD8
:4055000001D1FEF76DBB0020704700BF006000403289FF1F1C89FF1F81F0004102E000BF83F0004330B54FEA41044FEA430594EA050F08BF90EA020F1FBF54EA000C55EA72
:40554000020C7FEA645C7FEA655C00F0E2804FEA5454D4EB5555B8BF6D420CDD2C4480EA020281EA030382EA000083EA010180EA020281EA0303362D88BF30BD11F0004F2F
:405580004FEA01314FF4801C4CEA113102D0404261EB410113F0004F4FEA03334CEA133302D0524263EB430394EA050F00F0A780A4F10104D5F1200E0DDB02FA0EFC22FACF
:4055C00005F2801841F1000103FA0EF2801843FA05F359410EE0A5F120050EF1200E012A03FA0EFC28BF4CF0020C43FA05F3C01851EBE37101F0004507D54FF0000EDCF183
:40560000000C7EEB00006EEB0101B1F5801F1BD3B1F5001F0CD349085FEA30004FEA3C0C04F101044FEA445212F5800F80F09A80BCF1004F08BF5FEA500C50F1000041EBBA
:40564000045141EA050130BD5FEA4C0C404141EB010111F4801FA4F10104E9D191F0000F04BF01460020B1FA81F308BF2033A3F10B03B3F120020CDA0C3208DD02F1140CF8
:40568000C2F10C0201FA0CF021FA02F10CE002F11402D8BFC2F1200C01FA02F120FA0CFCDCBF41EA0C019040E41AA2BF01EB0451294330BD6FEA04041F3C1CDA0C340EDC31
:4056C00004F11404C4F1200220FA04F001FA02F340EA030021FA04F345EA030130BDC4F10C04C4F1200220FA02F001FA04F340EA0300294630BD21FA04F0294630BD94F057
:40570000000F83F4801306BF81F480110134013D4EE77FEA645C18BF7FEA655C29D094EA050F08BF90EA020F05D054EA000C04BF1946104630BD91EA030F1EBF00210020A7
:4057400030BD5FEA545C05D14000494128BF41F0004130BD14F580043CBF01F5801130BD01F0004545F0FE4141F470014FF0000030BD7FEA645C1ABF194610467FEA655C04
:405780001CBF0B46024650EA013406BF52EA033591EA030F41F4002130BD00BF90F0000F04BF0021704730B54FF4806404F132044FF000054FF0000150E700BF90F0000FD4
:4057C00004BF0021704730B54FF4806404F1320410F0004548BF40424FF000013EE700BF42004FEAE2014FEA31014FEA02701FBF12F07F4393F07F4F81F06051704792F023
:40580000000F14BF93F07F4F704730B54FF4607401F0004521F0004120E700BF50EA010208BF704730B54FF000050AE050EA010208BF704730B511F0004502D5404261EBDB
:4058400041014FF4806404F132045FEA915C3FF4DCAE4FF003025FEADC0C18BF03325FEADC0C18BF033202EBDC02C2F1200300FA03FC20FA02F001FA03FE40EA0E0021FAEE
:4058800002F11444C1E600BF70B54FF0FF0C4CF4E06C1CEA11541DBF1CEA135594EA0C0F95EA0C0F00F0DEF82C4481EA030621EA4C5123EA4C5350EA013518BF52EA03359B
:4058C00041F4801143F4801338D0A0FB02CE4FF00005E1FB02E506F00042E0FB03E54FF00006E1FB03569CF0000F18BF4EF0010EA4F1FF04B6F5007F64F5407404D25FEA7C
:405900004E0E6D4146EB060642EAC62141EA55514FEAC52040EA5E504FEACE2EB4F1FD0C88BFBCF5E06F1ED8BEF1004F08BF5FEA500E50F1000041EB045170BD06F000468F
:4059400046EA010140EA020081EA0301B4EB5C04C2BFD4EB0C0541EA045170BD41F480114FF0000E013C00F3AB8014F1360FDEBF002001F0004170BDC4F10004203C35DA65
:405980000C341BDC04F11404C4F1200500FA05F320FA04F001FA05F240EA020001F0004221F0004110EBD37021FA04F642EB06015EEA430E08BF20EAD37070BDC4F10C0400
:4059C000C4F1200500FA04F320FA05F001FA04F240EA020001F0004110EBD37041F100015EEA430E08BF20EAD37070BDC4F1200500FA05F24EEA020E20FA04F301FA05F21D
:405A000043EA020321FA04F001F0004121FA04F220EA020000EBD3705EEA430E08BF20EAD37070BD94F0000F0FD101F00046400041EB010111F4801F08BF013CF7D041EA1C
:405A4000060195F0000F18BF704703F00046520043EB030313F4801F08BF013DF7D043EA0603704794EA0C0F0CEA135518BF95EA0C0F0CD050EA410618BF52EA4306D1D11C
:405A800081EA030101F000414FF0000070BD50EA410606BF1046194652EA430619D094EA0C0F02D150EA013613D195EA0C0F05D152EA03361CBF104619460AD181EA0301F0
:405AC00001F0004141F0FE4141F470014FF0000070BD41F0FE4141F4780170BD70B54FF0FF0C4CF4E06C1CEA11541DBF1CEA135594EA0C0F95EA0C0F00F0A7F8A4EB05049D
:405B000081EA030E52EA03354FEA013100F088804FEA03334FF0805545EA131343EA12634FEA022245EA111545EA10654FEA00260EF000419D4208BF964244F1FD0404F5F7
:405B4000407402D25B084FEA3202B61A65EB03055B084FEA32024FF480104FF4002CB6EB020E75EB030E22BFB61A754640EA0C005B084FEA3202B6EB020E75EB030E22BFFC
:405B8000B61A754640EA5C005B084FEA3202B6EB020E75EB030E22BFB61A754640EA9C005B084FEA3202B6EB020E75EB030E22BFB61A754640EADC0055EA060E18D04FEAD8
:405BC000051545EA16754FEA06164FEAC30343EA52734FEAC2025FEA1C1CC0D111F4801F0BD141EA00014FF000004FF0004CB6E711F4801F04BF01430020B4F1FD0C88BFA9
:405C0000BCF5E06F3FF6AFAEB5EB030C04BFB6EB020C5FEA500C50F1000041EB045170BD0EF0004E4EEA113114EB5C04C2BFD4EB0C0541EA045170BD41F480114FF0000EE7
:405C4000013C90E645EA060E8DE60CEA135594EA0C0F08BF95EA0C0F3FF43BAF94EA0C0F0AD150EA01347FF434AF95EA0C0F7FF425AF104619462CE795EA0C0F06D152EAB7
:405C800003353FF4FDAE1046194622E750EA410618BF52EA43067FF4C5AE50EA41047FF40DAF52EA43057FF4EBAE12E74FF0FF3C06E000BF4FF0010C02E000BF4FF0010CBE
:405CC0004DF804CD4FEA410C7FEA6C5C4FEA430C18BF7FEA6C5C1BD001B050EA410C0CBF52EA430C91EA030F02BF90EA020F0020704710F1000F91EA030F58BF994208BFC8
:405D000090422CBFD8176FEAE37040F0010070474FEA410C7FEA6C5C02D150EA013C07D14FEA430C7FEA6C5CD6D152EA033CD3D05DF8040B704700BF8446104662468C4658
:405D40001946634600E000BF01B5FFF7B7FF002848BF10F1000F01BD4DF808EDFFF7F4FF0CBF012000205DF808FB00BF4DF808EDFFF7EAFF34BF012000205DF808FB00BF73
:405D80004DF808EDFFF7E0FF94BF012000205DF808FB00BF4DF808EDFFF7CEFF94BF012000205DF808FB00BF4DF808EDFFF7C4FF34BF012000205DF808FB00BF4FEA4102C7
:405DC00012F5001215D211D56FF47873B3EB625212D94FEAC12343F0004343EA505311F0004F23FA02F018BF404270474FF00000704750EA013005D111F0004008BF6FF0C2
:405E0000004070474FF00000704700BF4FEA4102B2F1E04324BFB3F5001CDCF1FE5C0DD901F0004C4FEAC0024CEA5070B2F1004F40EB830008BF20F00100704711F0804F93
:405E400021D113F13872BCBF01F00040704741F480114FEA5252C2F11802C2F1200C10FA0CF320FA02F018BF40F001004FEAC1234FEAD32303FA0CFC40EA0C0023FA02F31A
:405E80004FEA4303CCE77FEA625307D150EA01331EBF4FF0FE4040F44000704701F0004040F0FE4040F40000704700BF80F0004002E000BF81F0004142001FBF5FEA4103CE
:405EC00092EA030F7FEA226C7FEA236C6AD04FEA1262D2EB1363C1BFD218414048404140B8BF5B42192B88BF704710F0004F40F4000020F07F4018BF404211F0004F41F491
:405F0000000121F07F4118BF494292EA030F3FD0A2F1010241FA03FC10EB0C00C3F1200301FA03F100F0004302D5494260EB4000B0F5000F13D3B0F1807F06D340084FEA3F
:405F4000310102F10102FE2A51D2B1F1004F40EBC25008BF20F0010040EA03007047490040EB000010F4000FA2F10102EDD1B0FA80FCACF1080CB2EB0C0200FA0CF0AABF08
:405F800000EBC25052421843BCBFD0401843704792F0000F81F4000106BF80F400000132013BB5E74FEA41037FEA226C18BF7FEA236C21D092EA030F04D092F0000F08BF1F
:405FC0000846704790EA010F1CBF0020704712F07F4F04D1400028BF40F00040704712F100723CBF00F50000704700F0004343F0FE4040F4000070477FEA226216BF0846B2
:406000007FEA23630146420206BF5FEA412390EA010F40F4800070474FF0000304E000BF10F0004348BF40425FEA000C08BF704743F0964301464FF000001CE050EA010230
:4060400008BF70474FF000030AE000BF50EA010208BF704711F0004302D5404261EB41015FEA010C02BF84460146002043F0B64308BFA3F18053A3F50003BCFA8CF2083A1E
:40608000A3EBC25310DB01FA02FC634400FA02FCC2F12002BCF1004F20FA02F243EB020008BF20F00100704702F1200201FA02FCC2F1200250EA4C0021FA02F243EB020074
:4060C00008BF20EADC7070474FF0FF0C1CEAD0521EBF1CEAD15392EA0C0F93EA0C0F6FD01A4480EA010C400218BF5FEA41211ED04FF0006343EA501043EA5111A0FB0131D3
:406100000CF00040B1F5000F3EBF490041EAD3715B0040EA010062F17F02FD2A1DD8B3F1004F40EBC25008BF20F00100704790F0000F0CF0004C08BF49024CEA502040EACB
:4061400051207F3AC2BFD2F1FF0340EAC250704740F400004FF00003013A5DDC12F1190FDCBF00F000407047C2F10002410021FA02F1C2F1200200FA02FC5FEA310040F1A9
:40618000000053EA4C0308BF20EADC70704792F0000F00F0004C02BF400010F4000F013AF9D040EA0C0093F0000F01F0004C02BF490011F4000F013BF9D041EA0C018FE7C4
:4061C0000CEAD15392EA0C0F18BF93EA0C0F0AD030F0004C18BF31F0004CD8D180EA010000F00040704790F0000F17BF90F0004F084691F0000F91F0004F14D092EA0C0F9D
:4062000001D142020FD193EA0C0F03D14B0218BF084608D180EA010000F0004040F0FE4040F40000704740F0FE4040F4400070474FF0FF0C1CEAD0521EBF1CEAD15392EA2F
:406240000C0F93EA0C0F69D0A2EB030280EA010C49024FEA402037D04FF0805343EA111143EA10130CF000408B4238BF5B0042F17D024FF4000C8B4224BF5B1A40EA0C00D6
:40628000B3EB510F24BFA3EB510340EA5C00B3EB910F24BFA3EB910340EA9C00B3EBD10F24BFA3EBD10340EADC001B0118BF5FEA1C1CE0D1FD2A3FF650AF8B4240EBC25039
:4062C00008BF20F0010070470CF0004C4CEA50207F32C2BFD2F1FF0340EAC250704740F400004FF00003013A37E792F0000F00F0004C02BF400010F4000F013AF9D040EA59
:406300000C0093F0000F01F0004C02BF490011F4000F013BF9D041EA0C0195E70CEAD15392EA0C0F08D142027FF47DAF93EA0C0F7FF470AF084676E793EA0C0F04D14B02AF
:406340003FF44CAF08466EE730F0004C18BF31F0004CCAD130F000427FF45CAF31F000437FF43CAF5FE700BF4FF0FF3C06E000BF4FF0010C02E000BF4FF0010C4DF804CDEC
:406380004FEA40024FEA41037FEA226C18BF7FEA236C11D001B052EA530C18BF90EA010F58BFB2EB030088BFC81738BF6FEAE17018BF40F0010070477FEA226C02D15FEA41
:4063C000402C05D17FEA236CE4D15FEA412CE1D05DF8040B704700BF844608466146FFE70FB5FFF7C9FF002848BF10F1000F0FBD4DF808EDFFF7F4FF0CBF012000205DF8B7
:4064000008FB00BF4DF808EDFFF7EAFF34BF012000205DF808FB00BF4DF808EDFFF7E0FF94BF012000205DF808FB00BF4DF808EDFFF7D2FF94BF012000205DF808FB00BFD0
:406440004DF808EDFFF7C8FF34BF012000205DF808FB00BF4FEA4002B2F1FE4F0FD34FF09E03B3EB12620DD94FEA002343F0004310F0004F23FA02F018BF404270474FF036
:406480000000704712F1610F01D1420205D110F0004008BF6FF0004070474FF0000070470E4B70B51E460E4C0025E41AA410A54204D056F8253098470135F8E700F03CF9E9
:4064C000084B094C1E46E41AA4100025A54204D056F8253098470135F8E770BD4467000044670000446700004C67000003460244934202D003F8011BFAE7704700000000A1
:406500004F76657272756E007886FF1F6F646533000000002D510040285B00404D510040244300404D510040244300404D510040244300400D510040244300400D510040F0
:40654000244300404D510040244300403D510040285B004002022000100008000200080001004040004F00400C0000000140001000140140000800400140000A004C014036
:40658000000210500140100030313233343536373839414243444546000000010000000400000010280000000001040001000000000000000001435955534200000030305C
:4065C00030303100000000000000000012034D005300460054003100300030000100000001000000E8650000010000002667000000000000000000000100000000660000E6
:4066000001000000E3660000030000002A660000000000000000000000000000000000000000000028660000020A00008103080002000100820240000A0001000302400040
:406640000A000203040309042C0343007900700072006500730073002000530065006D00690063006F006E0064007500630074006F007200100355005300420055004100CD
:40668000520054003803430044004300200043006F006D006D0075006E00690063006100740069006F006E00200049006E007400650072006600610063006500260343009C
:4066C0004400430020004400610074006100200049006E0074006500720066006100630065000009024300020101C0320904000001020201030524001001042402020524DF
:4067000006000105240100010705810308000A09040100020A00000407058202400000070503024000001201000202000008B40432F2010001028001F8B500BFF8BC08BCE2
:406740009E4670474D00000015340000F8B500BFF8BC08BC9E46704729000000706700000881FF1F10010000C00700000000000000000000010103020001020F10000000C1
:406780000101C800200003020001010102010101011F100003000000FF012C01000100100000803F1B2FDD3D9A99993E01FF000000000000000000000000000000000840FC
:4067C000000000000000F03F000000000000244000000000000024C000000000000000000000000000000840000000000000F03F000000000000244000000000000024C063
:4068000000000000000000000000000000000840000000000000F03F000000000000244000000000000024C000000000000000000000000000000840000000000000F03F22
:40684000000000000000244000000000000024C000C2010000000800C20100000008A1200000000002000000FF0000000000007D00FA0000400000000090D003000000005E
:4068800000000000000000000000000000000000000000000000000000000000000000000000000000000000000000000000000000000000000000000000000000000000D8
:4068C0000000000000000000000000000000000000000000000000000000000000000000000000000000000000000000000000000000000000000000000000000000000098
:406900000000000000000000000000000000000000000000000000000000000000000000000000000000000000000000000000000000000000000000000000000000000057
:406940000000000000000000000000000000000000000000000000000000000000000000000000000000000000000000000000000000000000000000000000000000000017
:020000040003F7
:0200000480007A
:4000000001450040014F004009520040015B00400764004001650040560001403B0101404A0201404D0301405E04014046050140450601404C070140670801404A0901405D
:400040004F0A01404B0B01404F0C01404B0D01404B0E01402F0F01404C1401404A1501406216014053170140641801404B190140651A01404C1B01400F400140164101406A
:4000800010420140084301400E4401401045014011460140134701400A48014017490140104C0140184D014005500140025101407E020A4B002001A1188128342921300C12
:4000C000310460027C402F84720276337E14810D830D860D8D0F851F0C020E081217150318011A081C0F2004210622082301250527022B04301033073407360839083A8086
:40010000402449FF4AFF4BFF4F015018580B59045A0B5B045C295D095F016040624064406540668068806A806C806E8089048B028F019102930495029704A601A902AB04D5
:40014000AF01B001B506B701BB20BF40C064C5ECC602C807C9FFCAFFCBFFCD83CE03CF01D018D401D604D804D904DA08DB08DD99DF01E040E240E440E540E680E880EA80EB
:40018000EC80EE8003020A050B40108016201A0D1B021C801D012020210825102640284829082E202F063108350137043D203E80428446804D014E044F0454805680588054
:4001C00059205B095D015E805F04624A6308650278017F018102864089208B018F04C001C20BC428CA37CCC2CE30D085D220D6DFD88FDE11E208E420E6080BE00F901730F5
:400200001B0320022201230524012602270928012A022B502C012E022F0E3003330F35F038803A023E403F145608580459045B045D905F018104820487028C0195049604D6
:400240009E03A304A402A501A702A802AB01B004B304B403B703B908BE01BF40C053C5ECC702C813C9FFCAFFCBFFCF01D018D401D809D904DA04DB04DC20DF01E040E240A7
:40028000E440E540E680E880EA80EC80EE8000020140098810281504168217201A801B101E011F0221042280240426042708284029182D042E822F66320436203724380262
:4002C00039083C803D304108480149055004510859055A805E4064016702682869406D806E24781080048615881889408A048D808E409002974A9CC99F04A050A110A60868
:40030000A801A908AF08B602C009C205C4F6CAF7CC62CE33D002D208D61BD810DE04E201E441E602EC10EE040301070211011401150116021B011C021D021E012101250153
:4003400028012A022B023301350236033A803F044046410249FF4AFF4BFF5440580459045A045B045D105F0160406240632064406540664068906A906C906E9083208518FF
:4003800087068A408E20950A9610971498059A0AA003A20CA301A403A60CA80AA90AAA05AB14AD06AF18B00FB240B31EB420B520B610B701C046C102C9FFCAFFCBFFCD0FC3
:4003C000CE03D608D804D904DA04DB04DD90DF01E040E240E320E440E540E640E890EA90EC90EE900602070408080A010E2812041510168017081A011B801D021E401F64E1
:400400002118254026B8280829042A012C802D102E8030183101321033803604380A3A043C043F0141104248450246084A084E085C805F1061A8640467019004911097C8A8
:400440009A829B089C409D189F04A010A204A310A401A620A720AA08AE80B480C0C0C265C472CAB7CC4FCEC3D0A5D224D630D83E020209010E041201130C17041E061F08F1
:400480002201230225012F02320633013401350C370239083E043F54405445EC4602480749FF4AFF4BFF4F0150185401580859045A085B085C095D995F0160406240644005
:4004C0006540668068806A806C806E80800488018E0493019A029D01A001A804AD01B004B101B201B402B808BA02BB02BE04D280D804D904DB0ADD90DF01006002800580EF
:4005000006400B080E400F0212081302168018581B011E28210122022504264027082A402E402F9032823580368A3D1046804C024D014F04568057805D015E805F046408EE
:4005400067086D907002724075087604770278047F01831088408B108C10940A9620975098049C489D1D9E01A010A280A310A489A520A880B010B1C0B704C09BC292C41AC1
:40058000CAD8CCD9CE20D080D210D6D0DE12E480EE01020103400503060A070C09030A060B0C111013201520161C1710190A1B051E2021102212232024202505270A294034
:4005C0002A202F4030203201330F341E353037403B203E103F404032410449FF4AFF4BFF5608580459045A045B045D905F0160406240632064406540664068906A906C90D2
:400600006E90800382188401850C861487038C028E1090129503970C99059B0A9C039E0CA002A412A810A905AA02AB0AAC12B21FB30FB808C063C104C9FFCAFFCBFFCD0F81
:40064000CE03D804D904DA04DC02DF01E040E240E320E440E540E640E890EA90EC90EE900002014804100504068008010B020D080E020F1010A812011510170519081B081C
:400680001C101D121E211F602104232025042648270429102D022F29310833103601371438043C063F104106450647204A085D80668089088D809004914092069302980195
:4006C00099049A019B109E48A0A9A650A708AC80AF10B204B420B510C07DC2A9C47FCAF4CCE6CEE2D0E3D204D610D810E010E280EC20EE11010A0304050C07020C010F0101
:400700001306150119011C011F08210124012701280129042B082D012E01310E330134013E103F04403541044260440245CE46FB470D481F49FF4AFF4BFF4C224EF04F0C0B
:4007400050045440580459045A045B045C205D225F0162C0644065016610671168C069016B116C406D016E406F0182018B02930196209E06A20AA612AA1CB220B41EB502DD
:40078000B601B701BE10D608D804D904DB04DD90DF0100800302068008400A010E2210281140171519201C041D041E02210822012550270128412A052B0A2E402F013028B0
:4007C00032013380360139403B0A3E2041044248430848814929521453805CA061086210630166A080808204830185808B0191409201930A9508971099809B149D299E41A4
:40080000A069A301A540A641A708A920AB02C011C2A1C477CA0FCC8FCE2BD007D20CD630D83EE008E601EA1008010D010F06110113021501170219021B011C0122022401C5
:400840002E0233033402350436013B083E40400545104602480649FF4AFF4BFF4DA04EF05409580459045A0A5B045D205F016040614062406350810183028402850E861D66
